{
  "abi": [
    {
      "anonymous": false,
      "inputs": [
        {
          "indexed": true,
          "internalType": "address",
          "name": "owner",
          "type": "address"
        },
        {
          "indexed": true,
          "internalType": "address",
          "name": "approved",
          "type": "address"
        },
        {
          "indexed": true,
          "internalType": "uint256",
          "name": "tokenId",
          "type": "uint256"
        }
      ],
      "name": "Approval",
      "type": "event"
    },
    {
      "anonymous": false,
      "inputs": [
        {
          "indexed": true,
          "internalType": "address",
          "name": "owner",
          "type": "address"
        },
        {
          "indexed": true,
          "internalType": "address",
          "name": "operator",
          "type": "address"
        },
        {
          "indexed": false,
          "internalType": "bool",
          "name": "approved",
          "type": "bool"
        }
      ],
      "name": "ApprovalForAll",
      "type": "event"
    },
    {
      "anonymous": false,
      "inputs": [
        {
          "indexed": true,
          "internalType": "address",
          "name": "from",
          "type": "address"
        },
        {
          "indexed": true,
          "internalType": "address",
          "name": "to",
          "type": "address"
        },
        {
          "indexed": true,
          "internalType": "uint256",
          "name": "tokenId",
          "type": "uint256"
        }
      ],
      "name": "Transfer",
      "type": "event"
    },
    {
      "inputs": [
        {
          "internalType": "address",
          "name": "to",
          "type": "address"
        },
        {
          "internalType": "uint256",
          "name": "tokenId",
          "type": "uint256"
        }
      ],
      "name": "approve",
      "outputs": [],
      "stateMutability": "nonpayable",
      "type": "function"
    },
    {
      "inputs": [
        {
          "internalType": "address",
          "name": "owner",
          "type": "address"
        }
      ],
      "name": "balanceOf",
      "outputs": [
        {
          "internalType": "uint256",
          "name": "",
          "type": "uint256"
        }
      ],
      "stateMutability": "view",
      "type": "function"
    },
    {
      "inputs": [],
      "name": "contractURI",
      "outputs": [
        {
          "internalType": "string",
          "name": "",
          "type": "string"
        }
      ],
      "stateMutability": "view",
      "type": "function"
    },
    {
      "inputs": [],
      "name": "genesisEggsMax",
      "outputs": [
        {
          "internalType": "uint256",
          "name": "",
          "type": "uint256"
        }
      ],
      "stateMutability": "view",
      "type": "function"
    },
    {
      "inputs": [
        {
          "internalType": "uint256",
          "name": "tokenId",
          "type": "uint256"
        }
      ],
      "name": "getApproved",
      "outputs": [
        {
          "internalType": "address",
          "name": "",
          "type": "address"
        }
      ],
      "stateMutability": "view",
      "type": "function"
    },
    {
      "inputs": [
        {
          "internalType": "uint256",
          "name": "_tokenId",
          "type": "uint256"
        }
      ],
      "name": "getDNA",
      "outputs": [
        {
          "internalType": "uint256",
          "name": "",
          "type": "uint256"
        }
      ],
      "stateMutability": "view",
      "type": "function"
    },
    {
      "inputs": [
        {
          "internalType": "address",
          "name": "owner",
          "type": "address"
        },
        {
          "internalType": "address",
          "name": "operator",
          "type": "address"
        }
      ],
      "name": "isApprovedForAll",
      "outputs": [
        {
          "internalType": "bool",
          "name": "",
          "type": "bool"
        }
      ],
      "stateMutability": "view",
      "type": "function"
    },
    {
      "inputs": [],
      "name": "license",
      "outputs": [
        {
          "internalType": "string",
          "name": "",
          "type": "string"
        }
      ],
      "stateMutability": "view",
      "type": "function"
    },
    {
      "inputs": [],
      "name": "name",
      "outputs": [
        {
          "internalType": "string",
          "name": "",
          "type": "string"
        }
      ],
      "stateMutability": "view",
      "type": "function"
    },
    {
      "inputs": [
        {
          "internalType": "uint256",
          "name": "tokenId",
          "type": "uint256"
        }
      ],
      "name": "ownerOf",
      "outputs": [
        {
          "internalType": "address",
          "name": "",
          "type": "address"
        }
      ],
      "stateMutability": "view",
      "type": "function"
    },
    {
      "inputs": [],
      "name": "presaleHatchingUnlockTime",
      "outputs": [
        {
          "internalType": "uint256",
          "name": "",
          "type": "uint256"
        }
      ],
      "stateMutability": "view",
      "type": "function"
    },
    {
      "inputs": [],
      "name": "presaleUnlockTime",
      "outputs": [
        {
          "internalType": "uint256",
          "name": "",
          "type": "uint256"
        }
      ],
      "stateMutability": "view",
      "type": "function"
    },
    {
      "inputs": [
        {
          "internalType": "address",
          "name": "from",
          "type": "address"
        },
        {
          "internalType": "address",
          "name": "to",
          "type": "address"
        },
        {
          "internalType": "uint256",
          "name": "tokenId",
          "type": "uint256"
        }
      ],
      "name": "safeTransferFrom",
      "outputs": [],
      "stateMutability": "nonpayable",
      "type": "function"
    },
    {
      "inputs": [
        {
          "internalType": "address",
          "name": "from",
          "type": "address"
        },
        {
          "internalType": "address",
          "name": "to",
          "type": "address"
        },
        {
          "internalType": "uint256",
          "name": "tokenId",
          "type": "uint256"
        },
        {
          "internalType": "bytes",
          "name": "_data",
          "type": "bytes"
        }
      ],
      "name": "safeTransferFrom",
      "outputs": [],
      "stateMutability": "nonpayable",
      "type": "function"
    },
    {
      "inputs": [
        {
          "internalType": "address",
          "name": "operator",
          "type": "address"
        },
        {
          "internalType": "bool",
          "name": "approved",
          "type": "bool"
        }
      ],
      "name": "setApprovalForAll",
      "outputs": [],
      "stateMutability": "nonpayable",
      "type": "function"
    },
    {
      "inputs": [
        {
          "internalType": "uint256[]",
          "name": "_tokenIds",
          "type": "uint256[]"
        },
        {
          "internalType": "uint8",
          "name": "_class",
          "type": "uint8"
        }
      ],
      "name": "setDNAForGenesisTokens",
      "outputs": [],
      "stateMutability": "nonpayable",
      "type": "function"
    },
    {
      "inputs": [
        {
          "internalType": "bytes4",
          "name": "interfaceId",
          "type": "bytes4"
        }
      ],
      "name": "supportsInterface",
      "outputs": [
        {
          "internalType": "bool",
          "name": "",
          "type": "bool"
        }
      ],
      "stateMutability": "view",
      "type": "function"
    },
    {
      "inputs": [],
      "name": "symbol",
      "outputs": [
        {
          "internalType": "string",
          "name": "",
          "type": "string"
        }
      ],
      "stateMutability": "view",
      "type": "function"
    },
    {
      "inputs": [
        {
          "internalType": "uint256",
          "name": "index",
          "type": "uint256"
        }
      ],
      "name": "tokenByIndex",
      "outputs": [
        {
          "internalType": "uint256",
          "name": "",
          "type": "uint256"
        }
      ],
      "stateMutability": "view",
      "type": "function"
    },
    {
      "inputs": [
        {
          "internalType": "address",
          "name": "owner",
          "type": "address"
        },
        {
          "internalType": "uint256",
          "name": "index",
          "type": "uint256"
        }
      ],
      "name": "tokenOfOwnerByIndex",
      "outputs": [
        {
          "internalType": "uint256",
          "name": "",
          "type": "uint256"
        }
      ],
      "stateMutability": "view",
      "type": "function"
    },
    {
      "inputs": [
        {
          "internalType": "uint256",
          "name": "tokenId",
          "type": "uint256"
        }
      ],
      "name": "tokenURI",
      "outputs": [
        {
          "internalType": "string",
          "name": "",
          "type": "string"
        }
      ],
      "stateMutability": "view",
      "type": "function"
    },
    {
      "inputs": [],
      "name": "totalSupply",
      "outputs": [
        {
          "internalType": "uint256",
          "name": "",
          "type": "uint256"
        }
      ],
      "stateMutability": "view",
      "type": "function"
    },
    {
      "inputs": [
        {
          "internalType": "address",
          "name": "from",
          "type": "address"
        },
        {
          "internalType": "address",
          "name": "to",
          "type": "address"
        },
        {
          "internalType": "uint256",
          "name": "tokenId",
          "type": "uint256"
        }
      ],
      "name": "transferFrom",
      "outputs": [],
      "stateMutability": "nonpayable",
      "type": "function"
    }
  ],
  "bytecode": "608060405234801561001057600080fd5b50612e18806100206000396000f3fe608060405234801561001057600080fd5b506004361061014d5760003560e01c80635bb209a5116100c3578063a22cb4651161007c578063a22cb46514610292578063b88d4fde146102a5578063c87b56dd146102b8578063e8a3d485146102cb578063e985e9c5146102d3578063fad5cdd6146102e657600080fd5b80635bb209a5146102415780636352211e146102545780636b87d24c146102675780636c4b91341461026f57806370a082311461027757806395d89b411461028a57600080fd5b8063234a4b9b11610115578063234a4b9b146101e557806323b872dd146101ed5780632964502d146102005780632f745c591461020857806342842e0e1461021b5780634f6ccce71461022e57600080fd5b806301ffc9a71461015257806306fdde031461017a578063081812fc1461018f578063095ea7b3146101ba57806318160ddd146101cf575b600080fd5b6101656101603660046128dc565b6102f9565b60405190151581526020015b60405180910390f35b610182610366565b6040516101719190612946565b6101a261019d366004612959565b610401565b6040516001600160a01b039091168152602001610171565b6101cd6101c836600461298e565b610497565b005b6101d76105ad565b604051908152602001610171565b6101d76105c2565b6101cd6101fb3660046129b8565b6105d5565b6101d7610606565b6101d761021636600461298e565b610619565b6101cd6102293660046129b8565b6106be565b6101d761023c366004612959565b6106d9565b6101d761024f366004612959565b610779565b6101a2610262366004612959565b610784565b61018261080c565b6127106101d7565b6101d76102853660046129f4565b610824565b6101826108b9565b6101cd6102a0366004612a0f565b6108d1565b6101cd6102b3366004612a61565b6108e0565b6101826102c6366004612959565b610918565b610182610a34565b6101656102e1366004612b3d565b610a4c565b6101cd6102f4366004612b70565b610a89565b60006001600160e01b031982166380ac58cd60e01b148061032a57506001600160e01b03198216635b5e139f60e01b145b8061034557506001600160e01b0319821663780e9d6360e01b145b8061036057506301ffc9a760e01b6001600160e01b03198316145b92915050565b6060610370610ad1565b600e01805461037e90612bfc565b80601f01602080910402602001604051908101604052809291908181526020018280546103aa90612bfc565b80156103f75780601f106103cc576101008083540402835291602001916103f7565b820191906000526020600020905b8154815290600101906020018083116103da57829003601f168201915b5050505050905090565b600061040c82610af5565b6104725760405162461bcd60e51b815260206004820152602c60248201527f4552433732313a20617070726f76656420717565727920666f72206e6f6e657860448201526b34b9ba32b73a103a37b5b2b760a11b60648201526084015b60405180910390fd5b61047a610ad1565b6000928352600c016020525060409020546001600160a01b031690565b60006104a282610784565b9050806001600160a01b0316836001600160a01b031614156105105760405162461bcd60e51b815260206004820152602160248201527f4552433732313a20617070726f76616c20746f2063757272656e74206f776e656044820152603960f91b6064820152608401610469565b336001600160a01b038216148061052c575061052c8133610a4c565b61059e5760405162461bcd60e51b815260206004820152603860248201527f4552433732313a20617070726f76652063616c6c6572206973206e6f74206f7760448201527f6e6572206e6f7220617070726f76656420666f7220616c6c00000000000000006064820152608401610469565b6105a88383610b23565b505050565b6000806105b8610ad1565b600a015492915050565b60006105cc610ad1565b60120154905090565b6105df3382610ba1565b6105fb5760405162461bcd60e51b815260040161046990612c37565b6105a8838383610c6b565b6000610610610ad1565b60130154905090565b600080610624610ad1565b905061062f84610824565b83106106915760405162461bcd60e51b815260206004820152602b60248201527f455243373231456e756d657261626c653a206f776e657220696e646578206f7560448201526a74206f6620626f756e647360a81b6064820152608401610469565b6001600160a01b039390931660009081526008909301602090815260408085209385529290525090205490565b6105a8838383604051806020016040528060008152506108e0565b6000806106e4610ad1565b90506106ee6105ad565b83106107515760405162461bcd60e51b815260206004820152602c60248201527f455243373231456e756d657261626c653a20676c6f62616c20696e646578206f60448201526b7574206f6620626f756e647360a01b6064820152608401610469565b80600a01838154811061076657610766612c88565b9060005260206000200154915050919050565b600061036082610ecd565b60008061078f610ad1565b600084815260069190910160205260409020546001600160a01b03169050806103605760405162461bcd60e51b815260206004820152602960248201527f4552433732313a206f776e657220717565727920666f72206e6f6e657869737460448201526832b73a103a37b5b2b760b91b6064820152608401610469565b6060610816610ad1565b601101805461037e90612bfc565b60006001600160a01b03821661088f5760405162461bcd60e51b815260206004820152602a60248201527f4552433732313a2062616c616e636520717565727920666f7220746865207a65604482015269726f206164647265737360b01b6064820152608401610469565b610897610ad1565b6001600160a01b03909216600090815260079290920160205250604090205490565b60606108c3610ad1565b600f01805461037e90612bfc565b6108dc338383610f02565b5050565b6108ea3383610ba1565b6109065760405162461bcd60e51b815260040161046990612c37565b61091284848484610fe5565b50505050565b606061092382610af5565b6109875760405162461bcd60e51b815260206004820152602f60248201527f4552433732314d657461646174613a2055524920717565727920666f72206e6f60448201526e3732bc34b9ba32b73a103a37b5b2b760891b6064820152608401610469565b6000610991610ad1565b60008481526014919091016020526040902080546109ae90612bfc565b80601f01602080910402602001604051908101604052809291908181526020018280546109da90612bfc565b8015610a275780601f106109fc57610100808354040283529160200191610a27565b820191906000526020600020905b815481529060010190602001808311610a0a57829003601f168201915b5093979650505050505050565b6060610a3e610ad1565b601001805461037e90612bfc565b6000610a56610ad1565b6001600160a01b039384166000908152600d91909101602090815260408083209490951682529290925250205460ff1690565b610a91611018565b60005b8281101561091257610abe848483818110610ab157610ab1612c88565b9050602002013583611088565b5080610ac981612cb4565b915050610a94565b7fc8fcad8db84d3cc18b4c41d551ea0ee66dd599cde068d998e57d5e09332c131c90565b600080610b00610ad1565b60009384526006016020526040909220546001600160a01b031690911415919050565b6000610b2d610ad1565b6000838152600c82016020526040902080546001600160a01b0319166001600160a01b0386169081179091559091508290610b6782610784565b6001600160a01b03167f8c5be1e5ebec7d5bd14f71427d1e84f3dd0314c0f7b2291e5b200ac8c7c3b92560405160405180910390a4505050565b6000610bac82610af5565b610c0d5760405162461bcd60e51b815260206004820152602c60248201527f4552433732313a206f70657261746f7220717565727920666f72206e6f6e657860448201526b34b9ba32b73a103a37b5b2b760a11b6064820152608401610469565b6000610c1883610784565b9050806001600160a01b0316846001600160a01b03161480610c535750836001600160a01b0316610c4884610401565b6001600160a01b0316145b80610c635750610c638185610a4c565b949350505050565b826001600160a01b0316610c7e82610784565b6001600160a01b031614610ce65760405162461bcd60e51b815260206004820152602960248201527f4552433732313a207472616e73666572206f6620746f6b656e2074686174206960448201526839903737ba1037bbb760b91b6064820152608401610469565b6001600160a01b038216610d485760405162461bcd60e51b8152602060048201526024808201527f4552433732313a207472616e7366657220746f20746865207a65726f206164646044820152637265737360e01b6064820152608401610469565b610d518161116e565b610de95760405162461bcd60e51b815260206004820152605e60248201527f455243373231576974684469616d6f6e6453746f726167653a2043616e6e6f7460448201527f207472616e73666572206120556e69636f726e206c6f636b656420696e20676160648201527f6d65206f7220636f6f6c696e6720646f776e2066726f6d20756e6c6f636b0000608482015260a401610469565b610df48383836111c6565b610dff600082610b23565b6000610e09610ad1565b6001600160a01b038516600090815260078201602052604081208054929350600192909190610e39908490612ccf565b90915550506001600160a01b03831660009081526007820160205260408120805460019290610e69908490612ce6565b9091555050600082815260068201602052604080822080546001600160a01b0319166001600160a01b0387811691821790925591518593918816917fddf252ad1be2c89b69c2b068fc378daa952ba7f163c4a11628f55a4df523b3ef91a450505050565b6000610ed88261123f565b15610ee65761036082611343565b610eee610ad1565b600092835260180160205250604090205490565b816001600160a01b0316836001600160a01b03161415610f645760405162461bcd60e51b815260206004820152601960248201527f4552433732313a20617070726f766520746f2063616c6c6572000000000000006044820152606401610469565b6000610f6e610ad1565b6001600160a01b038581166000818152600d84016020908152604080832094891680845294825291829020805460ff19168815159081179091559151918252939450919290917f17307eab39ab6107e8899845ad3d59bd9653f200f220920489ca2b5937696c31910160405180910390a350505050565b610ff0848484610c6b565b610ffc84848484611d59565b6109125760405162461bcd60e51b815260040161046990612cfe565b611020610ad1565b600401546001600160a01b031633146110865760405162461bcd60e51b815260206004820152602260248201527f4c69624469616d6f6e643a204d75737420626520636f6e7472616374206f776e60448201526132b960f11b6064820152608401610469565b565b60006127108311156111025760405162461bcd60e51b815260206004820152603d60248201527f455243373231576974684469616d6f6e6453746f726167653a2043616e206f6e60448201527f6c792073657420444e4120666f722067656e6573697320746f6b656e730000006064820152608401610469565b600061111581611110611e66565b611e79565b9050611122816001611e8e565b905061112f816000611e9d565b905061113c816000611eac565b9050611149816000611ebb565b9050611156816000611eca565b90506111628184611eda565b9050610c638482611eed565b600061118161117c83610ecd565b611fa0565b1561118e57506000919050565b6000611198610ad1565b603981015460008581526038830160205260408120549293509142916111bd91612ce6565b10949350505050565b6001600160a01b0383166111e2576111dd81611fae565b611205565b816001600160a01b0316836001600160a01b031614611205576112058382611fe7565b6001600160a01b03821661121c576105a88161209c565b826001600160a01b0316826001600160a01b0316146105a8576105a88282612165565b600061124a826121b5565b801561125c575061125a826121ce565b155b1561133b5760008281527ffdccebc9c7798f16c9158af32c6bb14bb2526bcd260561cab5771cff2fa8ad9660209081526040808320548084527ffdccebc9c7798f16c9158af32c6bb14bb2526bcd260561cab5771cff2fa8ad908352818420548085527ffdccebc9c7798f16c9158af32c6bb14bb2526bcd260561cab5771cff2fa8ad949093529220547ffdccebc9c7798f16c9158af32c6bb14bb2526bcd260561cab5771cff2fa8ad8e929190158015906113275750600081815260068401602052604090205443115b1561133757506001949350505050565b5050505b506000919050565b600061134e826121ce565b1561139b5760405162461bcd60e51b815260206004820152601a60248201527f4c69624861746368696e673a20524e47206e6f742072656164790000000000006044820152606401610469565b6113a4826121b5565b6113f05760405162461bcd60e51b815260206004820181905260248201527f4c69624861746368696e673a2057616974696e6720666f72205652462054544c6044820152606401610469565b60008281527ffdccebc9c7798f16c9158af32c6bb14bb2526bcd260561cab5771cff2fa8ad96602090815260408083205483527ffdccebc9c7798f16c9158af32c6bb14bb2526bcd260561cab5771cff2fa8ad908252808320548084527ffdccebc9c7798f16c9158af32c6bb14bb2526bcd260561cab5771cff2fa8ad94909252909120547ffdccebc9c7798f16c9158af32c6bb14bb2526bcd260561cab5771cff2fa8ad8e91906114e45760405162461bcd60e51b815260206004820152601760248201527f4c69624861746368696e673a204e6f20524e47207365740000000000000000006044820152606401610469565b6000818152600683016020526040902054431161155f5760405162461bcd60e51b815260206004820152603360248201527f4c69624861746368696e673a2050726564696374696f6e206d61736b656420646044820152727572696e6720524e472073657420626c6f636b60681b6064820152608401610469565b600061156a856121e7565b90506000611577826121f1565b146115d85760405162461bcd60e51b815260206004820152602b60248201527f4c69624861746368696e673a20444e412068617320616c72656164792062656560448201526a1b881c195c9cda5cdd195960aa1b6064820152608401610469565b60006115e3826121ff565b60ff16905060006115f2610ad1565b6000888152603a8201602052604081209192509061161390825b0154610ecd565b6000898152603a84016020526040812091925090611631908261160c565b9050600061163e836121ff565b60ff16851490506000611650836121ff565b60ff1686149050600082806116625750815b905061166f886001611ebb565b60008a815260048c01602090815260408083205460058f01909252822054929a5091908380156116ab5750826116a961271084600b61220e565b105b15611747578580156116ba5750845b156116e2576116cc600283600c61220e565b6001146116d957866116db565b875b90506116f2565b856116ed57866116ef565b875b90505b6117048b6116ff83612250565b612260565b9a506117188b61171383612271565b612282565b9a5061172c8b61172783612294565b6122a6565b9a506117408b61173b836122b9565b6122cc565b9a506117b0565b6117748b8a60260160006117608d8f600189600d6122e0565b815260200190815260200160002054612260565b9a506117878b6117138b8d86600e612483565b9a5061179a8b6117278b8d86600f612483565b9a506117ad8b61173b8b8d866010612483565b9a505b8380156117c95750826117c761271084601561220e565b105b15611865578580156117d85750845b15611800576117ea600283601661220e565b6001146117f757866117f9565b875b9050611810565b8561180b578661180d565b875b90505b6118228b61181d83612595565b6125a5565b9a506118368b611831836125b6565b6125c6565b9a5061184a8b611845836125d7565b6125e7565b9a5061185e8b611859836125f8565b612608565b9a506118ce565b6118928b8a602601600061187e8d8f60028960176122e0565b8152602001908152602001600020546125a5565b9a506118a58b6118318b8d866018612483565b9a506118b88b6118458b8d866019612483565b9a506118cb8b6118598b8d86601a612483565b9a505b8380156118e75750826118e561271084601f61220e565b105b15611983578580156118f65750845b1561191e57611908600283602061220e565b6001146119155786611917565b875b905061192e565b85611929578661192b565b875b90505b6119408b61193b83612619565b612629565b9a506119548b61194f8361263a565b61264a565b9a506119688b6119638361265b565b61266b565b9a5061197c8b6119778361267c565b61268c565b9a506119ec565b6119b08b8a602601600061199c8d8f60038960216122e0565b815260200190815260200160002054612629565b9a506119c38b61194f8b8d866022612483565b9a506119d68b6119638b8d866023612483565b9a506119e98b6119778b8d866024612483565b9a505b838015611a05575082611a0361271084602961220e565b105b15611aa157858015611a145750845b15611a3c57611a26600283602a61220e565b600114611a335786611a35565b875b9050611a4c565b85611a475786611a49565b875b90505b611a5e8b611a598361269d565b6126ad565b9a50611a728b611a6d836126be565b6126ce565b9a50611a868b611a81836126df565b6126ef565b9a50611a9a8b611a9583612700565b612710565b9a50611b0a565b611ace8b8a6026016000611aba8d8f600489602b6122e0565b8152602001908152602001600020546126ad565b9a50611ae18b611a6d8b8d86602c612483565b9a50611af48b611a818b8d86602d612483565b9a50611b078b611a958b8d86602e612483565b9a505b838015611b23575082611b2161271084603361220e565b105b15611bbf57858015611b325750845b15611b5a57611b44600283603461220e565b600114611b515786611b53565b875b9050611b6a565b85611b655786611b67565b875b90505b611b7c8b611b7783612721565b612731565b9a50611b908b611b8b83612742565b612752565b9a50611ba48b611b9f83612763565b612773565b9a50611bb88b611bb383612784565b612794565b9a50611c28565b611bec8b8a6026016000611bd88d8f60058960356122e0565b815260200190815260200160002054612731565b9a50611bff8b611b8b8b8d866036612483565b9a50611c128b611b9f8b8d866037612483565b9a50611c258b611bb38b8d866038612483565b9a505b838015611c41575082611c3f61271084603d61220e565b105b15611cdd57858015611c505750845b15611c7857611c62600283603e61220e565b600114611c6f5786611c71565b875b9050611c88565b85611c835786611c85565b875b90505b611c9a8b611c95836127a5565b6127b5565b9a50611cae8b611ca9836127c6565b6127d6565b9a50611cc28b611cbd836127e7565b6127f7565b9a50611cd68b611cd183612808565b612818565b9a50611d46565b611d0a8b8a6026016000611cf68d8f600689603f6122e0565b8152602001908152602001600020546127b5565b9a50611d1d8b611ca98b8d866040612483565b9a50611d308b611cbd8b8d866041612483565b9a50611d438b611cd18b8d866042612483565b9a505b50989d9c50505050505050505050505050565b60006001600160a01b0384163b15611e5b57604051630a85bd0160e11b81526001600160a01b0385169063150b7a0290611d9d903390899088908890600401612d50565b602060405180830381600087803b158015611db757600080fd5b505af1925050508015611de7575060408051601f3d908101601f19168201909252611de491810190612d8d565b60015b611e41573d808015611e15576040519150601f19603f3d011682016040523d82523d6000602084013e611e1a565b606091505b508051611e395760405162461bcd60e51b815260040161046990612cfe565b805181602001fd5b6001600160e01b031916630a85bd0160e11b149050610c63565b506001949350505050565b6000611e70610ad1565b60410154905090565b6000611e87838360ff612825565b9392505050565b6000611e878383610100612849565b6000611e878383610200612849565b6000611e878383610400612849565b6000611e878383611800612825565b6000611e8783836201e000612825565b6000611e87838360ff16621e0000612825565b6000808211611f3e5760405162461bcd60e51b815260206004820152601f60248201527f4c6962556e69636f726e444e413a2063616e6e6f7420736574203020444e41006044820152606401610469565b6000611f48610ad1565b600085815260188201602090815260409182902086905581518781529081018690529192507f9224d149facb2ec112bf239305994586c3a09a1776770edcaf18f1ec3a4596b1910160405180910390a1509092915050565b600061020082161515610360565b6000611fb8610ad1565b600a810180546000858152600b9093016020908152604084208290556001820183559183529120019190915550565b6000611ff1610ad1565b90506000600161200085610824565b61200a9190612ccf565b6000848152600984016020526040902054909150808214612063576001600160a01b0385166000908152600884016020908152604080832085845282528083205484845281842081905583526009860190915290208190555b50600092835260098201602090815260408085208590556001600160a01b03909516845260089092018252838320908352905290812055565b60006120a6610ad1565b600a8101549091506000906120bd90600190612ccf565b6000848152600b84016020526040812054600a850180549394509092849081106120e9576120e9612c88565b906000526020600020015490508084600a01838154811061210c5761210c612c88565b6000918252602080832090910192909255828152600b86019091526040808220849055868252812055600a840180548061214857612148612daa565b600190038181906000526020600020016000905590555050505050565b600061216f610ad1565b9050600061217c84610824565b6001600160a01b039094166000908152600883016020908152604080832087845282528083208690559482526009909301909252502055565b6000806121c183612867565b9050608081161515611e87565b6000806121da83612867565b9050604081161515611e87565b6000610eee610ad1565b600061036082611800612887565b600061036082621e0000612887565b600083838360405160200161222d929190918252602082015260400190565b6040516020818303038152906040528051906020012060001c610c639190612dc0565b600061036082631fe00000612887565b6000611e878383631fe00000612825565b600061036082641fe0000000612887565b6000611e878383641fe0000000612825565b600061036082651fe000000000612887565b6000611e878383651fe000000000612825565b600061036082661fe00000000000612887565b6000611e878383661fe00000000000612825565b6000848152602986016020908152604080832086845290915281205481805b8281101561237457600088815260298a01602090815260408083208a845290915281208054602b8c019291908490811061233b5761233b612c88565b9060005260206000200154815260200190815260200160002054826123609190612ce6565b91508061236c81612cb4565b9150506122ff565b50600061238282878761220e565b61238d906001612ce6565b90506000805b8481101561241d5760008a815260298c01602090815260408083208c845290915281208054839081106123c8576123c8612c88565b6000918252602080832090910154808352602b8f019091526040909120549091506123f38185612ce6565b935083851161240a5750955061247a945050505050565b50508061241690612cb4565b9050612393565b5060405162461bcd60e51b815260206004820152602b60248201527f4861746368696e6746616365743a204661696c65642067657474696e6720524e60448201526a4720626f6479706172747360a81b6064820152608401610469565b95945050505050565b60008381526021850160209081526040808320546022880190925282205482906124ae90868661220e565b6124b9906001612ce6565b90506000805b8381101561253d57600088815260218a01602052604081208054839081106124e9576124e9612c88565b9060005260206000200154905089602301600082815260200190815260200160002054836125179190612ce6565b925082841161252c579450610c639350505050565b5061253681612cb4565b90506124bf565b5060405162461bcd60e51b815260206004820152602660248201527f4861746368696e6746616365743a204661696c65642067657474696e6720524e604482015265472067656e6560d01b6064820152608401610469565b60006103608260ff60351b612887565b6000611e87838360ff60351b612825565b60006103608260ff603d1b612887565b6000611e87838360ff603d1b612825565b60006103608260ff60451b612887565b6000611e87838360ff60451b612825565b60006103608260ff604d1b612887565b6000611e87838360ff604d1b612825565b60006103608260ff60551b612887565b6000611e87838360ff60551b612825565b60006103608260ff605d1b612887565b6000611e87838360ff605d1b612825565b60006103608260ff60651b612887565b6000611e87838360ff60651b612825565b60006103608260ff606d1b612887565b6000611e87838360ff606d1b612825565b60006103608260ff60751b612887565b6000611e87838360ff60751b612825565b60006103608260ff607d1b612887565b6000611e87838360ff607d1b612825565b60006103608260ff60851b612887565b6000611e87838360ff60851b612825565b60006103608260ff608d1b612887565b6000611e87838360ff608d1b612825565b60006103608260ff60951b612887565b6000611e87838360ff60951b612825565b60006103608260ff609d1b612887565b6000611e87838360ff609d1b612825565b60006103608260ff60a51b612887565b6000611e87838360ff60a51b612825565b60006103608260ff60ad1b612887565b6000611e87838360ff60ad1b612825565b60006103608260ff60b51b612887565b6000611e87838360ff60b51b612825565b60006103608260ff60bd1b612887565b6000611e87838360ff60bd1b612825565b60006103608260ff60c51b612887565b6000611e87838360ff60c51b612825565b60006103608260ff60cd1b612887565b6000611e87838360ff60cd1b5b600080612831836128a0565b600019841886169085901b8416179150509392505050565b6000610c63848461285b57600061285e565b60015b60ff1684612825565b600080612872610ad1565b60009384526019016020525050604090205490565b600080612893836128a0565b9290931690911c92915050565b6000805b600183166103605760019290921c916128bc81612cb4565b90506128a4565b6001600160e01b0319811681146128d957600080fd5b50565b6000602082840312156128ee57600080fd5b8135611e87816128c3565b6000815180845260005b8181101561291f57602081850181015186830182015201612903565b81811115612931576000602083870101525b50601f01601f19169290920160200192915050565b602081526000611e8760208301846128f9565b60006020828403121561296b57600080fd5b5035919050565b80356001600160a01b038116811461298957600080fd5b919050565b600080604083850312156129a157600080fd5b6129aa83612972565b946020939093013593505050565b6000806000606084860312156129cd57600080fd5b6129d684612972565b92506129e460208501612972565b9150604084013590509250925092565b600060208284031215612a0657600080fd5b611e8782612972565b60008060408385031215612a2257600080fd5b612a2b83612972565b915060208301358015158114612a4057600080fd5b809150509250929050565b634e487b7160e01b600052604160045260246000fd5b60008060008060808587031215612a7757600080fd5b612a8085612972565b9350612a8e60208601612972565b925060408501359150606085013567ffffffffffffffff80821115612ab257600080fd5b818701915087601f830112612ac657600080fd5b813581811115612ad857612ad8612a4b565b604051601f8201601f19908116603f01168101908382118183101715612b0057612b00612a4b565b816040528281528a6020848701011115612b1957600080fd5b82602086016020830137600060208483010152809550505050505092959194509250565b60008060408385031215612b5057600080fd5b612b5983612972565b9150612b6760208401612972565b90509250929050565b600080600060408486031215612b8557600080fd5b833567ffffffffffffffff80821115612b9d57600080fd5b818601915086601f830112612bb157600080fd5b813581811115612bc057600080fd5b8760208260051b8501011115612bd557600080fd5b6020928301955093505084013560ff81168114612bf157600080fd5b809150509250925092565b600181811c90821680612c1057607f821691505b60208210811415612c3157634e487b7160e01b600052602260045260246000fd5b50919050565b60208082526031908201527f4552433732313a207472616e736665722063616c6c6572206973206e6f74206f6040820152701ddb995c881b9bdc88185c1c1c9bdd9959607a1b606082015260800190565b634e487b7160e01b600052603260045260246000fd5b634e487b7160e01b600052601160045260246000fd5b6000600019821415612cc857612cc8612c9e565b5060010190565b600082821015612ce157612ce1612c9e565b500390565b60008219821115612cf957612cf9612c9e565b500190565b60208082526032908201527f4552433732313a207472616e7366657220746f206e6f6e20455243373231526560408201527131b2b4bb32b91034b6b83632b6b2b73a32b960711b606082015260800190565b6001600160a01b0385811682528416602082015260408101839052608060608201819052600090612d83908301846128f9565b9695505050505050565b600060208284031215612d9f57600080fd5b8151611e87816128c3565b634e487b7160e01b600052603160045260246000fd5b600082612ddd57634e487b7160e01b600052601260045260246000fd5b50069056fea26469706673582212205dc999c69aa53b0afdf6b71bb681fe00f2cdd16417e9c4ec8d757eeb740af96864736f6c63430008090033",
  "bytecodeSha1": "63caacf96ea119302650efd41c1ceb12b8579aa5",
  "compiler": {
    "evm_version": "istanbul",
    "optimizer": {
      "enabled": true,
      "runs": 200
    },
    "version": "0.8.9+commit.e5eed63a"
  },
  "contractName": "ERC721WithDiamondStorage",
  "language": "Solidity",
  "natspec": {
    "kind": "dev",
    "methods": {
      "approve(address,uint256)": {
        "details": "See {IERC721-approve}."
      },
      "balanceOf(address)": {
        "details": "See {IERC721-balanceOf}."
      },
      "contractURI()": {
        "details": "See {IERC721Metadata-symbol}.See https://docs.opensea.io/docs/contract-level-metadata"
      },
      "genesisEggsMax()": {
        "details": "Maximum genesis eggs that can be minted. (note: ids starts at 1)"
      },
      "getApproved(uint256)": {
        "details": "See {IERC721-getApproved}."
      },
      "getDNA(uint256)": {
        "notice": "Unicorn DNA methods"
      },
      "isApprovedForAll(address,address)": {
        "details": "See {IERC721-isApprovedForAll}."
      },
      "license()": {
        "details": "Reference URI for the NFT license file hosted on Arweave permaweb."
      },
      "name()": {
        "details": "See {IERC721Metadata-name}."
      },
      "ownerOf(uint256)": {
        "details": "See {IERC721-ownerOf}."
      },
      "presaleHatchingUnlockTime()": {
        "details": "Timestamp (in seconds) when the genesis eggs can be hatched."
      },
      "presaleUnlockTime()": {
        "details": "Timestamp (in seconds) when the genesis egg presale activates."
      },
      "safeTransferFrom(address,address,uint256)": {
        "details": "See {IERC721-safeTransferFrom}."
      },
      "safeTransferFrom(address,address,uint256,bytes)": {
        "details": "See {IERC721-safeTransferFrom}."
      },
      "setApprovalForAll(address,bool)": {
        "details": "See {IERC721-setApprovalForAll}."
      },
      "supportsInterface(bytes4)": {
        "details": "See {IERC165-supportsInterface}."
      },
      "symbol()": {
        "details": "See {IERC721Metadata-symbol}."
      },
      "tokenByIndex(uint256)": {
        "details": "See {IERC721Enumerable-tokenByIndex}."
      },
      "tokenOfOwnerByIndex(address,uint256)": {
        "details": "See {IERC721Enumerable-tokenOfOwnerByIndex}."
      },
      "tokenURI(uint256)": {
        "details": "See {IERC721Metadata-tokenURI}."
      },
      "totalSupply()": {
        "details": "See {IERC721Enumerable-totalSupply}."
      },
      "transferFrom(address,address,uint256)": {
        "details": "See {IERC721-transferFrom}."
      }
    },
    "version": 1
  },
  "opcodes": "PUSH1 0x80 PUSH1 0x40 MSTORE CALLVALUE DUP1 ISZERO PUSH2 0x10 JUMPI PUSH1 0x0 DUP1 REVERT JUMPDEST POP PUSH1 0x4 CALLDATASIZE LT PUSH2 0x14D JUMPI PUSH1 0x0 CALLDATALOAD PUSH1 0xE0 SHR DUP1 PUSH4 0x5BB209A5 GT PUSH2 0xC3 JUMPI DUP1 PUSH4 0xA22CB465 GT PUSH2 0x7C JUMPI DUP1 PUSH4 0xA22CB465 EQ PUSH2 0x292 JUMPI DUP1 PUSH4 0xB88D4FDE EQ PUSH2 0x2A5 JUMPI DUP1 PUSH4 0xC87B56DD EQ PUSH2 0x2B8 JUMPI DUP1 PUSH4 0xE8A3D485 EQ PUSH2 0x2CB JUMPI DUP1 PUSH4 0xE985E9C5 EQ PUSH2 0x2D3 JUMPI DUP1 PUSH4 0xFAD5CDD6 EQ PUSH2 0x2E6 JUMPI PUSH1 0x0 DUP1 REVERT JUMPDEST DUP1 PUSH4 0x5BB209A5 EQ PUSH2 0x241 JUMPI DUP1 PUSH4 0x6352211E EQ PUSH2 0x254 JUMPI DUP1 PUSH4 0x6B87D24C EQ PUSH2 0x267 JUMPI DUP1 PUSH4 0x6C4B9134 EQ PUSH2 0x26F JUMPI DUP1 PUSH4 0x70A08231 EQ PUSH2 0x277 JUMPI DUP1 PUSH4 0x95D89B41 EQ PUSH2 0x28A JUMPI PUSH1 0x0 DUP1 REVERT JUMPDEST DUP1 PUSH4 0x234A4B9B GT PUSH2 0x115 JUMPI DUP1 PUSH4 0x234A4B9B EQ PUSH2 0x1E5 JUMPI DUP1 PUSH4 0x23B872DD EQ PUSH2 0x1ED JUMPI DUP1 PUSH4 0x2964502D EQ PUSH2 0x200 JUMPI DUP1 PUSH4 0x2F745C59 EQ PUSH2 0x208 JUMPI DUP1 PUSH4 0x42842E0E EQ PUSH2 0x21B JUMPI DUP1 PUSH4 0x4F6CCCE7 EQ PUSH2 0x22E JUMPI PUSH1 0x0 DUP1 REVERT JUMPDEST DUP1 PUSH4 0x1FFC9A7 EQ PUSH2 0x152 JUMPI DUP1 PUSH4 0x6FDDE03 EQ PUSH2 0x17A JUMPI DUP1 PUSH4 0x81812FC EQ PUSH2 0x18F JUMPI DUP1 PUSH4 0x95EA7B3 EQ PUSH2 0x1BA JUMPI DUP1 PUSH4 0x18160DDD EQ PUSH2 0x1CF JUMPI JUMPDEST PUSH1 0x0 DUP1 REVERT JUMPDEST PUSH2 0x165 PUSH2 0x160 CALLDATASIZE PUSH1 0x4 PUSH2 0x28DC JUMP JUMPDEST PUSH2 0x2F9 JUMP JUMPDEST PUSH1 0x40 MLOAD SWAP1 ISZERO ISZERO DUP2 MSTORE PUSH1 0x20 ADD JUMPDEST PUSH1 0x40 MLOAD DUP1 SWAP2 SUB SWAP1 RETURN JUMPDEST PUSH2 0x182 PUSH2 0x366 JUMP JUMPDEST PUSH1 0x40 MLOAD PUSH2 0x171 SWAP2 SWAP1 PUSH2 0x2946 JUMP JUMPDEST PUSH2 0x1A2 PUSH2 0x19D CALLDATASIZE PUSH1 0x4 PUSH2 0x2959 JUMP JUMPDEST PUSH2 0x401 JUMP JUMPDEST PUSH1 0x40 MLOAD PUSH1 0x1 PUSH1 0x1 PUSH1 0xA0 SHL SUB SWAP1 SWAP2 AND DUP2 MSTORE PUSH1 0x20 ADD PUSH2 0x171 JUMP JUMPDEST PUSH2 0x1CD PUSH2 0x1C8 CALLDATASIZE PUSH1 0x4 PUSH2 0x298E JUMP JUMPDEST PUSH2 0x497 JUMP JUMPDEST STOP JUMPDEST PUSH2 0x1D7 PUSH2 0x5AD JUMP JUMPDEST PUSH1 0x40 MLOAD SWAP1 DUP2 MSTORE PUSH1 0x20 ADD PUSH2 0x171 JUMP JUMPDEST PUSH2 0x1D7 PUSH2 0x5C2 JUMP JUMPDEST PUSH2 0x1CD PUSH2 0x1FB CALLDATASIZE PUSH1 0x4 PUSH2 0x29B8 JUMP JUMPDEST PUSH2 0x5D5 JUMP JUMPDEST PUSH2 0x1D7 PUSH2 0x606 JUMP JUMPDEST PUSH2 0x1D7 PUSH2 0x216 CALLDATASIZE PUSH1 0x4 PUSH2 0x298E JUMP JUMPDEST PUSH2 0x619 JUMP JUMPDEST PUSH2 0x1CD PUSH2 0x229 CALLDATASIZE PUSH1 0x4 PUSH2 0x29B8 JUMP JUMPDEST PUSH2 0x6BE JUMP JUMPDEST PUSH2 0x1D7 PUSH2 0x23C CALLDATASIZE PUSH1 0x4 PUSH2 0x2959 JUMP JUMPDEST PUSH2 0x6D9 JUMP JUMPDEST PUSH2 0x1D7 PUSH2 0x24F CALLDATASIZE PUSH1 0x4 PUSH2 0x2959 JUMP JUMPDEST PUSH2 0x779 JUMP JUMPDEST PUSH2 0x1A2 PUSH2 0x262 CALLDATASIZE PUSH1 0x4 PUSH2 0x2959 JUMP JUMPDEST PUSH2 0x784 JUMP JUMPDEST PUSH2 0x182 PUSH2 0x80C JUMP JUMPDEST PUSH2 0x2710 PUSH2 0x1D7 JUMP JUMPDEST PUSH2 0x1D7 PUSH2 0x285 CALLDATASIZE PUSH1 0x4 PUSH2 0x29F4 JUMP JUMPDEST PUSH2 0x824 JUMP JUMPDEST PUSH2 0x182 PUSH2 0x8B9 JUMP JUMPDEST PUSH2 0x1CD PUSH2 0x2A0 CALLDATASIZE PUSH1 0x4 PUSH2 0x2A0F JUMP JUMPDEST PUSH2 0x8D1 JUMP JUMPDEST PUSH2 0x1CD PUSH2 0x2B3 CALLDATASIZE PUSH1 0x4 PUSH2 0x2A61 JUMP JUMPDEST PUSH2 0x8E0 JUMP JUMPDEST PUSH2 0x182 PUSH2 0x2C6 CALLDATASIZE PUSH1 0x4 PUSH2 0x2959 JUMP JUMPDEST PUSH2 0x918 JUMP JUMPDEST PUSH2 0x182 PUSH2 0xA34 JUMP JUMPDEST PUSH2 0x165 PUSH2 0x2E1 CALLDATASIZE PUSH1 0x4 PUSH2 0x2B3D JUMP JUMPDEST PUSH2 0xA4C JUMP JUMPDEST PUSH2 0x1CD PUSH2 0x2F4 CALLDATASIZE PUSH1 0x4 PUSH2 0x2B70 JUMP JUMPDEST PUSH2 0xA89 JUMP JUMPDEST PUSH1 0x0 PUSH1 0x1 PUSH1 0x1 PUSH1 0xE0 SHL SUB NOT DUP3 AND PUSH4 0x80AC58CD PUSH1 0xE0 SHL EQ DUP1 PUSH2 0x32A JUMPI POP PUSH1 0x1 PUSH1 0x1 PUSH1 0xE0 SHL SUB NOT DUP3 AND PUSH4 0x5B5E139F PUSH1 0xE0 SHL EQ JUMPDEST DUP1 PUSH2 0x345 JUMPI POP PUSH1 0x1 PUSH1 0x1 PUSH1 0xE0 SHL SUB NOT DUP3 AND PUSH4 0x780E9D63 PUSH1 0xE0 SHL EQ JUMPDEST DUP1 PUSH2 0x360 JUMPI POP PUSH4 0x1FFC9A7 PUSH1 0xE0 SHL PUSH1 0x1 PUSH1 0x1 PUSH1 0xE0 SHL SUB NOT DUP4 AND EQ JUMPDEST SWAP3 SWAP2 POP POP JUMP JUMPDEST PUSH1 0x60 PUSH2 0x370 PUSH2 0xAD1 JUMP JUMPDEST PUSH1 0xE ADD DUP1 SLOAD PUSH2 0x37E SWAP1 PUSH2 0x2BFC JUMP JUMPDEST DUP1 PUSH1 0x1F ADD PUSH1 0x20 DUP1 SWAP2 DIV MUL PUSH1 0x20 ADD PUSH1 0x40 MLOAD SWAP1 DUP2 ADD PUSH1 0x40 MSTORE DUP1 SWAP3 SWAP2 SWAP1 DUP2 DUP2 MSTORE PUSH1 0x20 ADD DUP3 DUP1 SLOAD PUSH2 0x3AA SWAP1 PUSH2 0x2BFC JUMP JUMPDEST DUP1 ISZERO PUSH2 0x3F7 JUMPI DUP1 PUSH1 0x1F LT PUSH2 0x3CC JUMPI PUSH2 0x100 DUP1 DUP4 SLOAD DIV MUL DUP4 MSTORE SWAP2 PUSH1 0x20 ADD SWAP2 PUSH2 0x3F7 JUMP JUMPDEST DUP3 ADD SWAP2 SWAP1 PUSH1 0x0 MSTORE PUSH1 0x20 PUSH1 0x0 KECCAK256 SWAP1 JUMPDEST DUP2 SLOAD DUP2 MSTORE SWAP1 PUSH1 0x1 ADD SWAP1 PUSH1 0x20 ADD DUP1 DUP4 GT PUSH2 0x3DA JUMPI DUP3 SWAP1 SUB PUSH1 0x1F AND DUP3 ADD SWAP2 JUMPDEST POP POP POP POP POP SWAP1 POP SWAP1 JUMP JUMPDEST PUSH1 0x0 PUSH2 0x40C DUP3 PUSH2 0xAF5 JUMP JUMPDEST PUSH2 0x472 JUMPI PUSH1 0x40 MLOAD PUSH3 0x461BCD PUSH1 0xE5 SHL DUP2 MSTORE PUSH1 0x20 PUSH1 0x4 DUP3 ADD MSTORE PUSH1 0x2C PUSH1 0x24 DUP3 ADD MSTORE PUSH32 0x4552433732313A20617070726F76656420717565727920666F72206E6F6E6578 PUSH1 0x44 DUP3 ADD MSTORE PUSH12 0x34B9BA32B73A103A37B5B2B7 PUSH1 0xA1 SHL PUSH1 0x64 DUP3 ADD MSTORE PUSH1 0x84 ADD JUMPDEST PUSH1 0x40 MLOAD DUP1 SWAP2 SUB SWAP1 REVERT JUMPDEST PUSH2 0x47A PUSH2 0xAD1 JUMP JUMPDEST PUSH1 0x0 SWAP3 DUP4 MSTORE PUSH1 0xC ADD PUSH1 0x20 MSTORE POP PUSH1 0x40 SWAP1 KECCAK256 SLOAD PUSH1 0x1 PUSH1 0x1 PUSH1 0xA0 SHL SUB AND SWAP1 JUMP JUMPDEST PUSH1 0x0 PUSH2 0x4A2 DUP3 PUSH2 0x784 JUMP JUMPDEST SWAP1 POP DUP1 PUSH1 0x1 PUSH1 0x1 PUSH1 0xA0 SHL SUB AND DUP4 PUSH1 0x1 PUSH1 0x1 PUSH1 0xA0 SHL SUB AND EQ ISZERO PUSH2 0x510 JUMPI PUSH1 0x40 MLOAD PUSH3 0x461BCD PUSH1 0xE5 SHL DUP2 MSTORE PUSH1 0x20 PUSH1 0x4 DUP3 ADD MSTORE PUSH1 0x21 PUSH1 0x24 DUP3 ADD MSTORE PUSH32 0x4552433732313A20617070726F76616C20746F2063757272656E74206F776E65 PUSH1 0x44 DUP3 ADD MSTORE PUSH1 0x39 PUSH1 0xF9 SHL PUSH1 0x64 DUP3 ADD MSTORE PUSH1 0x84 ADD PUSH2 0x469 JUMP JUMPDEST CALLER PUSH1 0x1 PUSH1 0x1 PUSH1 0xA0 SHL SUB DUP3 AND EQ DUP1 PUSH2 0x52C JUMPI POP PUSH2 0x52C DUP2 CALLER PUSH2 0xA4C JUMP JUMPDEST PUSH2 0x59E JUMPI PUSH1 0x40 MLOAD PUSH3 0x461BCD PUSH1 0xE5 SHL DUP2 MSTORE PUSH1 0x20 PUSH1 0x4 DUP3 ADD MSTORE PUSH1 0x38 PUSH1 0x24 DUP3 ADD MSTORE PUSH32 0x4552433732313A20617070726F76652063616C6C6572206973206E6F74206F77 PUSH1 0x44 DUP3 ADD MSTORE PUSH32 0x6E6572206E6F7220617070726F76656420666F7220616C6C0000000000000000 PUSH1 0x64 DUP3 ADD MSTORE PUSH1 0x84 ADD PUSH2 0x469 JUMP JUMPDEST PUSH2 0x5A8 DUP4 DUP4 PUSH2 0xB23 JUMP JUMPDEST POP POP POP JUMP JUMPDEST PUSH1 0x0 DUP1 PUSH2 0x5B8 PUSH2 0xAD1 JUMP JUMPDEST PUSH1 0xA ADD SLOAD SWAP3 SWAP2 POP POP JUMP JUMPDEST PUSH1 0x0 PUSH2 0x5CC PUSH2 0xAD1 JUMP JUMPDEST PUSH1 0x12 ADD SLOAD SWAP1 POP SWAP1 JUMP JUMPDEST PUSH2 0x5DF CALLER DUP3 PUSH2 0xBA1 JUMP JUMPDEST PUSH2 0x5FB JUMPI PUSH1 0x40 MLOAD PUSH3 0x461BCD PUSH1 0xE5 SHL DUP2 MSTORE PUSH1 0x4 ADD PUSH2 0x469 SWAP1 PUSH2 0x2C37 JUMP JUMPDEST PUSH2 0x5A8 DUP4 DUP4 DUP4 PUSH2 0xC6B JUMP JUMPDEST PUSH1 0x0 PUSH2 0x610 PUSH2 0xAD1 JUMP JUMPDEST PUSH1 0x13 ADD SLOAD SWAP1 POP SWAP1 JUMP JUMPDEST PUSH1 0x0 DUP1 PUSH2 0x624 PUSH2 0xAD1 JUMP JUMPDEST SWAP1 POP PUSH2 0x62F DUP5 PUSH2 0x824 JUMP JUMPDEST DUP4 LT PUSH2 0x691 JUMPI PUSH1 0x40 MLOAD PUSH3 0x461BCD PUSH1 0xE5 SHL DUP2 MSTORE PUSH1 0x20 PUSH1 0x4 DUP3 ADD MSTORE PUSH1 0x2B PUSH1 0x24 DUP3 ADD MSTORE PUSH32 0x455243373231456E756D657261626C653A206F776E657220696E646578206F75 PUSH1 0x44 DUP3 ADD MSTORE PUSH11 0x74206F6620626F756E6473 PUSH1 0xA8 SHL PUSH1 0x64 DUP3 ADD MSTORE PUSH1 0x84 ADD PUSH2 0x469 JUMP JUMPDEST PUSH1 0x1 PUSH1 0x1 PUSH1 0xA0 SHL SUB SWAP4 SWAP1 SWAP4 AND PUSH1 0x0 SWAP1 DUP2 MSTORE PUSH1 0x8 SWAP1 SWAP4 ADD PUSH1 0x20 SWAP1 DUP2 MSTORE PUSH1 0x40 DUP1 DUP6 KECCAK256 SWAP4 DUP6 MSTORE SWAP3 SWAP1 MSTORE POP SWAP1 KECCAK256 SLOAD SWAP1 JUMP JUMPDEST PUSH2 0x5A8 DUP4 DUP4 DUP4 PUSH1 0x40 MLOAD DUP1 PUSH1 0x20 ADD PUSH1 0x40 MSTORE DUP1 PUSH1 0x0 DUP2 MSTORE POP PUSH2 0x8E0 JUMP JUMPDEST PUSH1 0x0 DUP1 PUSH2 0x6E4 PUSH2 0xAD1 JUMP JUMPDEST SWAP1 POP PUSH2 0x6EE PUSH2 0x5AD JUMP JUMPDEST DUP4 LT PUSH2 0x751 JUMPI PUSH1 0x40 MLOAD PUSH3 0x461BCD PUSH1 0xE5 SHL DUP2 MSTORE PUSH1 0x20 PUSH1 0x4 DUP3 ADD MSTORE PUSH1 0x2C PUSH1 0x24 DUP3 ADD MSTORE PUSH32 0x455243373231456E756D657261626C653A20676C6F62616C20696E646578206F PUSH1 0x44 DUP3 ADD MSTORE PUSH12 0x7574206F6620626F756E6473 PUSH1 0xA0 SHL PUSH1 0x64 DUP3 ADD MSTORE PUSH1 0x84 ADD PUSH2 0x469 JUMP JUMPDEST DUP1 PUSH1 0xA ADD DUP4 DUP2 SLOAD DUP2 LT PUSH2 0x766 JUMPI PUSH2 0x766 PUSH2 0x2C88 JUMP JUMPDEST SWAP1 PUSH1 0x0 MSTORE PUSH1 0x20 PUSH1 0x0 KECCAK256 ADD SLOAD SWAP2 POP POP SWAP2 SWAP1 POP JUMP JUMPDEST PUSH1 0x0 PUSH2 0x360 DUP3 PUSH2 0xECD JUMP JUMPDEST PUSH1 0x0 DUP1 PUSH2 0x78F PUSH2 0xAD1 JUMP JUMPDEST PUSH1 0x0 DUP5 DUP2 MSTORE PUSH1 0x6 SWAP2 SWAP1 SWAP2 ADD PUSH1 0x20 MSTORE PUSH1 0x40 SWAP1 KECCAK256 SLOAD PUSH1 0x1 PUSH1 0x1 PUSH1 0xA0 SHL SUB AND SWAP1 POP DUP1 PUSH2 0x360 JUMPI PUSH1 0x40 MLOAD PUSH3 0x461BCD PUSH1 0xE5 SHL DUP2 MSTORE PUSH1 0x20 PUSH1 0x4 DUP3 ADD MSTORE PUSH1 0x29 PUSH1 0x24 DUP3 ADD MSTORE PUSH32 0x4552433732313A206F776E657220717565727920666F72206E6F6E6578697374 PUSH1 0x44 DUP3 ADD MSTORE PUSH9 0x32B73A103A37B5B2B7 PUSH1 0xB9 SHL PUSH1 0x64 DUP3 ADD MSTORE PUSH1 0x84 ADD PUSH2 0x469 JUMP JUMPDEST PUSH1 0x60 PUSH2 0x816 PUSH2 0xAD1 JUMP JUMPDEST PUSH1 0x11 ADD DUP1 SLOAD PUSH2 0x37E SWAP1 PUSH2 0x2BFC JUMP JUMPDEST PUSH1 0x0 PUSH1 0x1 PUSH1 0x1 PUSH1 0xA0 SHL SUB DUP3 AND PUSH2 0x88F JUMPI PUSH1 0x40 MLOAD PUSH3 0x461BCD PUSH1 0xE5 SHL DUP2 MSTORE PUSH1 0x20 PUSH1 0x4 DUP3 ADD MSTORE PUSH1 0x2A PUSH1 0x24 DUP3 ADD MSTORE PUSH32 0x4552433732313A2062616C616E636520717565727920666F7220746865207A65 PUSH1 0x44 DUP3 ADD MSTORE PUSH10 0x726F2061646472657373 PUSH1 0xB0 SHL PUSH1 0x64 DUP3 ADD MSTORE PUSH1 0x84 ADD PUSH2 0x469 JUMP JUMPDEST PUSH2 0x897 PUSH2 0xAD1 JUMP JUMPDEST PUSH1 0x1 PUSH1 0x1 PUSH1 0xA0 SHL SUB SWAP1 SWAP3 AND PUSH1 0x0 SWAP1 DUP2 MSTORE PUSH1 0x7 SWAP3 SWAP1 SWAP3 ADD PUSH1 0x20 MSTORE POP PUSH1 0x40 SWAP1 KECCAK256 SLOAD SWAP1 JUMP JUMPDEST PUSH1 0x60 PUSH2 0x8C3 PUSH2 0xAD1 JUMP JUMPDEST PUSH1 0xF ADD DUP1 SLOAD PUSH2 0x37E SWAP1 PUSH2 0x2BFC JUMP JUMPDEST PUSH2 0x8DC CALLER DUP4 DUP4 PUSH2 0xF02 JUMP JUMPDEST POP POP JUMP JUMPDEST PUSH2 0x8EA CALLER DUP4 PUSH2 0xBA1 JUMP JUMPDEST PUSH2 0x906 JUMPI PUSH1 0x40 MLOAD PUSH3 0x461BCD PUSH1 0xE5 SHL DUP2 MSTORE PUSH1 0x4 ADD PUSH2 0x469 SWAP1 PUSH2 0x2C37 JUMP JUMPDEST PUSH2 0x912 DUP5 DUP5 DUP5 DUP5 PUSH2 0xFE5 JUMP JUMPDEST POP POP POP POP JUMP JUMPDEST PUSH1 0x60 PUSH2 0x923 DUP3 PUSH2 0xAF5 JUMP JUMPDEST PUSH2 0x987 JUMPI PUSH1 0x40 MLOAD PUSH3 0x461BCD PUSH1 0xE5 SHL DUP2 MSTORE PUSH1 0x20 PUSH1 0x4 DUP3 ADD MSTORE PUSH1 0x2F PUSH1 0x24 DUP3 ADD MSTORE PUSH32 0x4552433732314D657461646174613A2055524920717565727920666F72206E6F PUSH1 0x44 DUP3 ADD MSTORE PUSH15 0x3732BC34B9BA32B73A103A37B5B2B7 PUSH1 0x89 SHL PUSH1 0x64 DUP3 ADD MSTORE PUSH1 0x84 ADD PUSH2 0x469 JUMP JUMPDEST PUSH1 0x0 PUSH2 0x991 PUSH2 0xAD1 JUMP JUMPDEST PUSH1 0x0 DUP5 DUP2 MSTORE PUSH1 0x14 SWAP2 SWAP1 SWAP2 ADD PUSH1 0x20 MSTORE PUSH1 0x40 SWAP1 KECCAK256 DUP1 SLOAD PUSH2 0x9AE SWAP1 PUSH2 0x2BFC JUMP JUMPDEST DUP1 PUSH1 0x1F ADD PUSH1 0x20 DUP1 SWAP2 DIV MUL PUSH1 0x20 ADD PUSH1 0x40 MLOAD SWAP1 DUP2 ADD PUSH1 0x40 MSTORE DUP1 SWAP3 SWAP2 SWAP1 DUP2 DUP2 MSTORE PUSH1 0x20 ADD DUP3 DUP1 SLOAD PUSH2 0x9DA SWAP1 PUSH2 0x2BFC JUMP JUMPDEST DUP1 ISZERO PUSH2 0xA27 JUMPI DUP1 PUSH1 0x1F LT PUSH2 0x9FC JUMPI PUSH2 0x100 DUP1 DUP4 SLOAD DIV MUL DUP4 MSTORE SWAP2 PUSH1 0x20 ADD SWAP2 PUSH2 0xA27 JUMP JUMPDEST DUP3 ADD SWAP2 SWAP1 PUSH1 0x0 MSTORE PUSH1 0x20 PUSH1 0x0 KECCAK256 SWAP1 JUMPDEST DUP2 SLOAD DUP2 MSTORE SWAP1 PUSH1 0x1 ADD SWAP1 PUSH1 0x20 ADD DUP1 DUP4 GT PUSH2 0xA0A JUMPI DUP3 SWAP1 SUB PUSH1 0x1F AND DUP3 ADD SWAP2 JUMPDEST POP SWAP4 SWAP8 SWAP7 POP POP POP POP POP POP POP JUMP JUMPDEST PUSH1 0x60 PUSH2 0xA3E PUSH2 0xAD1 JUMP JUMPDEST PUSH1 0x10 ADD DUP1 SLOAD PUSH2 0x37E SWAP1 PUSH2 0x2BFC JUMP JUMPDEST PUSH1 0x0 PUSH2 0xA56 PUSH2 0xAD1 JUMP JUMPDEST PUSH1 0x1 PUSH1 0x1 PUSH1 0xA0 SHL SUB SWAP4 DUP5 AND PUSH1 0x0 SWAP1 DUP2 MSTORE PUSH1 0xD SWAP2 SWAP1 SWAP2 ADD PUSH1 0x20 SWAP1 DUP2 MSTORE PUSH1 0x40 DUP1 DUP4 KECCAK256 SWAP5 SWAP1 SWAP6 AND DUP3 MSTORE SWAP3 SWAP1 SWAP3 MSTORE POP KECCAK256 SLOAD PUSH1 0xFF AND SWAP1 JUMP JUMPDEST PUSH2 0xA91 PUSH2 0x1018 JUMP JUMPDEST PUSH1 0x0 JUMPDEST DUP3 DUP2 LT ISZERO PUSH2 0x912 JUMPI PUSH2 0xABE DUP5 DUP5 DUP4 DUP2 DUP2 LT PUSH2 0xAB1 JUMPI PUSH2 0xAB1 PUSH2 0x2C88 JUMP JUMPDEST SWAP1 POP PUSH1 0x20 MUL ADD CALLDATALOAD DUP4 PUSH2 0x1088 JUMP JUMPDEST POP DUP1 PUSH2 0xAC9 DUP2 PUSH2 0x2CB4 JUMP JUMPDEST SWAP2 POP POP PUSH2 0xA94 JUMP JUMPDEST PUSH32 0xC8FCAD8DB84D3CC18B4C41D551EA0EE66DD599CDE068D998E57D5E09332C131C SWAP1 JUMP JUMPDEST PUSH1 0x0 DUP1 PUSH2 0xB00 PUSH2 0xAD1 JUMP JUMPDEST PUSH1 0x0 SWAP4 DUP5 MSTORE PUSH1 0x6 ADD PUSH1 0x20 MSTORE PUSH1 0x40 SWAP1 SWAP3 KECCAK256 SLOAD PUSH1 0x1 PUSH1 0x1 PUSH1 0xA0 SHL SUB AND SWAP1 SWAP2 EQ ISZERO SWAP2 SWAP1 POP JUMP JUMPDEST PUSH1 0x0 PUSH2 0xB2D PUSH2 0xAD1 JUMP JUMPDEST PUSH1 0x0 DUP4 DUP2 MSTORE PUSH1 0xC DUP3 ADD PUSH1 0x20 MSTORE PUSH1 0x40 SWAP1 KECCAK256 DUP1 SLOAD PUSH1 0x1 PUSH1 0x1 PUSH1 0xA0 SHL SUB NOT AND PUSH1 0x1 PUSH1 0x1 PUSH1 0xA0 SHL SUB DUP7 AND SWAP1 DUP2 OR SWAP1 SWAP2 SSTORE SWAP1 SWAP2 POP DUP3 SWAP1 PUSH2 0xB67 DUP3 PUSH2 0x784 JUMP JUMPDEST PUSH1 0x1 PUSH1 0x1 PUSH1 0xA0 SHL SUB AND PUSH32 0x8C5BE1E5EBEC7D5BD14F71427D1E84F3DD0314C0F7B2291E5B200AC8C7C3B925 PUSH1 0x40 MLOAD PUSH1 0x40 MLOAD DUP1 SWAP2 SUB SWAP1 LOG4 POP POP POP JUMP JUMPDEST PUSH1 0x0 PUSH2 0xBAC DUP3 PUSH2 0xAF5 JUMP JUMPDEST PUSH2 0xC0D JUMPI PUSH1 0x40 MLOAD PUSH3 0x461BCD PUSH1 0xE5 SHL DUP2 MSTORE PUSH1 0x20 PUSH1 0x4 DUP3 ADD MSTORE PUSH1 0x2C PUSH1 0x24 DUP3 ADD MSTORE PUSH32 0x4552433732313A206F70657261746F7220717565727920666F72206E6F6E6578 PUSH1 0x44 DUP3 ADD MSTORE PUSH12 0x34B9BA32B73A103A37B5B2B7 PUSH1 0xA1 SHL PUSH1 0x64 DUP3 ADD MSTORE PUSH1 0x84 ADD PUSH2 0x469 JUMP JUMPDEST PUSH1 0x0 PUSH2 0xC18 DUP4 PUSH2 0x784 JUMP JUMPDEST SWAP1 POP DUP1 PUSH1 0x1 PUSH1 0x1 PUSH1 0xA0 SHL SUB AND DUP5 PUSH1 0x1 PUSH1 0x1 PUSH1 0xA0 SHL SUB AND EQ DUP1 PUSH2 0xC53 JUMPI POP DUP4 PUSH1 0x1 PUSH1 0x1 PUSH1 0xA0 SHL SUB AND PUSH2 0xC48 DUP5 PUSH2 0x401 JUMP JUMPDEST PUSH1 0x1 PUSH1 0x1 PUSH1 0xA0 SHL SUB AND EQ JUMPDEST DUP1 PUSH2 0xC63 JUMPI POP PUSH2 0xC63 DUP2 DUP6 PUSH2 0xA4C JUMP JUMPDEST SWAP5 SWAP4 POP POP POP POP JUMP JUMPDEST DUP3 PUSH1 0x1 PUSH1 0x1 PUSH1 0xA0 SHL SUB AND PUSH2 0xC7E DUP3 PUSH2 0x784 JUMP JUMPDEST PUSH1 0x1 PUSH1 0x1 PUSH1 0xA0 SHL SUB AND EQ PUSH2 0xCE6 JUMPI PUSH1 0x40 MLOAD PUSH3 0x461BCD PUSH1 0xE5 SHL DUP2 MSTORE PUSH1 0x20 PUSH1 0x4 DUP3 ADD MSTORE PUSH1 0x29 PUSH1 0x24 DUP3 ADD MSTORE PUSH32 0x4552433732313A207472616E73666572206F6620746F6B656E20746861742069 PUSH1 0x44 DUP3 ADD MSTORE PUSH9 0x39903737BA1037BBB7 PUSH1 0xB9 SHL PUSH1 0x64 DUP3 ADD MSTORE PUSH1 0x84 ADD PUSH2 0x469 JUMP JUMPDEST PUSH1 0x1 PUSH1 0x1 PUSH1 0xA0 SHL SUB DUP3 AND PUSH2 0xD48 JUMPI PUSH1 0x40 MLOAD PUSH3 0x461BCD PUSH1 0xE5 SHL DUP2 MSTORE PUSH1 0x20 PUSH1 0x4 DUP3 ADD MSTORE PUSH1 0x24 DUP1 DUP3 ADD MSTORE PUSH32 0x4552433732313A207472616E7366657220746F20746865207A65726F20616464 PUSH1 0x44 DUP3 ADD MSTORE PUSH4 0x72657373 PUSH1 0xE0 SHL PUSH1 0x64 DUP3 ADD MSTORE PUSH1 0x84 ADD PUSH2 0x469 JUMP JUMPDEST PUSH2 0xD51 DUP2 PUSH2 0x116E JUMP JUMPDEST PUSH2 0xDE9 JUMPI PUSH1 0x40 MLOAD PUSH3 0x461BCD PUSH1 0xE5 SHL DUP2 MSTORE PUSH1 0x20 PUSH1 0x4 DUP3 ADD MSTORE PUSH1 0x5E PUSH1 0x24 DUP3 ADD MSTORE PUSH32 0x455243373231576974684469616D6F6E6453746F726167653A2043616E6E6F74 PUSH1 0x44 DUP3 ADD MSTORE PUSH32 0x207472616E73666572206120556E69636F726E206C6F636B656420696E206761 PUSH1 0x64 DUP3 ADD MSTORE PUSH32 0x6D65206F7220636F6F6C696E6720646F776E2066726F6D20756E6C6F636B0000 PUSH1 0x84 DUP3 ADD MSTORE PUSH1 0xA4 ADD PUSH2 0x469 JUMP JUMPDEST PUSH2 0xDF4 DUP4 DUP4 DUP4 PUSH2 0x11C6 JUMP JUMPDEST PUSH2 0xDFF PUSH1 0x0 DUP3 PUSH2 0xB23 JUMP JUMPDEST PUSH1 0x0 PUSH2 0xE09 PUSH2 0xAD1 JUMP JUMPDEST PUSH1 0x1 PUSH1 0x1 PUSH1 0xA0 SHL SUB DUP6 AND PUSH1 0x0 SWAP1 DUP2 MSTORE PUSH1 0x7 DUP3 ADD PUSH1 0x20 MSTORE PUSH1 0x40 DUP2 KECCAK256 DUP1 SLOAD SWAP3 SWAP4 POP PUSH1 0x1 SWAP3 SWAP1 SWAP2 SWAP1 PUSH2 0xE39 SWAP1 DUP5 SWAP1 PUSH2 0x2CCF JUMP JUMPDEST SWAP1 SWAP2 SSTORE POP POP PUSH1 0x1 PUSH1 0x1 PUSH1 0xA0 SHL SUB DUP4 AND PUSH1 0x0 SWAP1 DUP2 MSTORE PUSH1 0x7 DUP3 ADD PUSH1 0x20 MSTORE PUSH1 0x40 DUP2 KECCAK256 DUP1 SLOAD PUSH1 0x1 SWAP3 SWAP1 PUSH2 0xE69 SWAP1 DUP5 SWAP1 PUSH2 0x2CE6 JUMP JUMPDEST SWAP1 SWAP2 SSTORE POP POP PUSH1 0x0 DUP3 DUP2 MSTORE PUSH1 0x6 DUP3 ADD PUSH1 0x20 MSTORE PUSH1 0x40 DUP1 DUP3 KECCAK256 DUP1 SLOAD PUSH1 0x1 PUSH1 0x1 PUSH1 0xA0 SHL SUB NOT AND PUSH1 0x1 PUSH1 0x1 PUSH1 0xA0 SHL SUB DUP8 DUP2 AND SWAP2 DUP3 OR SWAP1 SWAP3 SSTORE SWAP2 MLOAD DUP6 SWAP4 SWAP2 DUP9 AND SWAP2 PUSH32 0xDDF252AD1BE2C89B69C2B068FC378DAA952BA7F163C4A11628F55A4DF523B3EF SWAP2 LOG4 POP POP POP POP JUMP JUMPDEST PUSH1 0x0 PUSH2 0xED8 DUP3 PUSH2 0x123F JUMP JUMPDEST ISZERO PUSH2 0xEE6 JUMPI PUSH2 0x360 DUP3 PUSH2 0x1343 JUMP JUMPDEST PUSH2 0xEEE PUSH2 0xAD1 JUMP JUMPDEST PUSH1 0x0 SWAP3 DUP4 MSTORE PUSH1 0x18 ADD PUSH1 0x20 MSTORE POP PUSH1 0x40 SWAP1 KECCAK256 SLOAD SWAP1 JUMP JUMPDEST DUP2 PUSH1 0x1 PUSH1 0x1 PUSH1 0xA0 SHL SUB AND DUP4 PUSH1 0x1 PUSH1 0x1 PUSH1 0xA0 SHL SUB AND EQ ISZERO PUSH2 0xF64 JUMPI PUSH1 0x40 MLOAD PUSH3 0x461BCD PUSH1 0xE5 SHL DUP2 MSTORE PUSH1 0x20 PUSH1 0x4 DUP3 ADD MSTORE PUSH1 0x19 PUSH1 0x24 DUP3 ADD MSTORE PUSH32 0x4552433732313A20617070726F766520746F2063616C6C657200000000000000 PUSH1 0x44 DUP3 ADD MSTORE PUSH1 0x64 ADD PUSH2 0x469 JUMP JUMPDEST PUSH1 0x0 PUSH2 0xF6E PUSH2 0xAD1 JUMP JUMPDEST PUSH1 0x1 PUSH1 0x1 PUSH1 0xA0 SHL SUB DUP6 DUP2 AND PUSH1 0x0 DUP2 DUP2 MSTORE PUSH1 0xD DUP5 ADD PUSH1 0x20 SWAP1 DUP2 MSTORE PUSH1 0x40 DUP1 DUP4 KECCAK256 SWAP5 DUP10 AND DUP1 DUP5 MSTORE SWAP5 DUP3 MSTORE SWAP2 DUP3 SWAP1 KECCAK256 DUP1 SLOAD PUSH1 0xFF NOT AND DUP9 ISZERO ISZERO SWAP1 DUP2 OR SWAP1 SWAP2 SSTORE SWAP2 MLOAD SWAP2 DUP3 MSTORE SWAP4 SWAP5 POP SWAP2 SWAP3 SWAP1 SWAP2 PUSH32 0x17307EAB39AB6107E8899845AD3D59BD9653F200F220920489CA2B5937696C31 SWAP2 ADD PUSH1 0x40 MLOAD DUP1 SWAP2 SUB SWAP1 LOG3 POP POP POP POP JUMP JUMPDEST PUSH2 0xFF0 DUP5 DUP5 DUP5 PUSH2 0xC6B JUMP JUMPDEST PUSH2 0xFFC DUP5 DUP5 DUP5 DUP5 PUSH2 0x1D59 JUMP JUMPDEST PUSH2 0x912 JUMPI PUSH1 0x40 MLOAD PUSH3 0x461BCD PUSH1 0xE5 SHL DUP2 MSTORE PUSH1 0x4 ADD PUSH2 0x469 SWAP1 PUSH2 0x2CFE JUMP JUMPDEST PUSH2 0x1020 PUSH2 0xAD1 JUMP JUMPDEST PUSH1 0x4 ADD SLOAD PUSH1 0x1 PUSH1 0x1 PUSH1 0xA0 SHL SUB AND CALLER EQ PUSH2 0x1086 JUMPI PUSH1 0x40 MLOAD PUSH3 0x461BCD PUSH1 0xE5 SHL DUP2 MSTORE PUSH1 0x20 PUSH1 0x4 DUP3 ADD MSTORE PUSH1 0x22 PUSH1 0x24 DUP3 ADD MSTORE PUSH32 0x4C69624469616D6F6E643A204D75737420626520636F6E7472616374206F776E PUSH1 0x44 DUP3 ADD MSTORE PUSH2 0x32B9 PUSH1 0xF1 SHL PUSH1 0x64 DUP3 ADD MSTORE PUSH1 0x84 ADD PUSH2 0x469 JUMP JUMPDEST JUMP JUMPDEST PUSH1 0x0 PUSH2 0x2710 DUP4 GT ISZERO PUSH2 0x1102 JUMPI PUSH1 0x40 MLOAD PUSH3 0x461BCD PUSH1 0xE5 SHL DUP2 MSTORE PUSH1 0x20 PUSH1 0x4 DUP3 ADD MSTORE PUSH1 0x3D PUSH1 0x24 DUP3 ADD MSTORE PUSH32 0x455243373231576974684469616D6F6E6453746F726167653A2043616E206F6E PUSH1 0x44 DUP3 ADD MSTORE PUSH32 0x6C792073657420444E4120666F722067656E6573697320746F6B656E73000000 PUSH1 0x64 DUP3 ADD MSTORE PUSH1 0x84 ADD PUSH2 0x469 JUMP JUMPDEST PUSH1 0x0 PUSH2 0x1115 DUP2 PUSH2 0x1110 PUSH2 0x1E66 JUMP JUMPDEST PUSH2 0x1E79 JUMP JUMPDEST SWAP1 POP PUSH2 0x1122 DUP2 PUSH1 0x1 PUSH2 0x1E8E JUMP JUMPDEST SWAP1 POP PUSH2 0x112F DUP2 PUSH1 0x0 PUSH2 0x1E9D JUMP JUMPDEST SWAP1 POP PUSH2 0x113C DUP2 PUSH1 0x0 PUSH2 0x1EAC JUMP JUMPDEST SWAP1 POP PUSH2 0x1149 DUP2 PUSH1 0x0 PUSH2 0x1EBB JUMP JUMPDEST SWAP1 POP PUSH2 0x1156 DUP2 PUSH1 0x0 PUSH2 0x1ECA JUMP JUMPDEST SWAP1 POP PUSH2 0x1162 DUP2 DUP5 PUSH2 0x1EDA JUMP JUMPDEST SWAP1 POP PUSH2 0xC63 DUP5 DUP3 PUSH2 0x1EED JUMP JUMPDEST PUSH1 0x0 PUSH2 0x1181 PUSH2 0x117C DUP4 PUSH2 0xECD JUMP JUMPDEST PUSH2 0x1FA0 JUMP JUMPDEST ISZERO PUSH2 0x118E JUMPI POP PUSH1 0x0 SWAP2 SWAP1 POP JUMP JUMPDEST PUSH1 0x0 PUSH2 0x1198 PUSH2 0xAD1 JUMP JUMPDEST PUSH1 0x39 DUP2 ADD SLOAD PUSH1 0x0 DUP6 DUP2 MSTORE PUSH1 0x38 DUP4 ADD PUSH1 0x20 MSTORE PUSH1 0x40 DUP2 KECCAK256 SLOAD SWAP3 SWAP4 POP SWAP2 TIMESTAMP SWAP2 PUSH2 0x11BD SWAP2 PUSH2 0x2CE6 JUMP JUMPDEST LT SWAP5 SWAP4 POP POP POP POP JUMP JUMPDEST PUSH1 0x1 PUSH1 0x1 PUSH1 0xA0 SHL SUB DUP4 AND PUSH2 0x11E2 JUMPI PUSH2 0x11DD DUP2 PUSH2 0x1FAE JUMP JUMPDEST PUSH2 0x1205 JUMP JUMPDEST DUP2 PUSH1 0x1 PUSH1 0x1 PUSH1 0xA0 SHL SUB AND DUP4 PUSH1 0x1 PUSH1 0x1 PUSH1 0xA0 SHL SUB AND EQ PUSH2 0x1205 JUMPI PUSH2 0x1205 DUP4 DUP3 PUSH2 0x1FE7 JUMP JUMPDEST PUSH1 0x1 PUSH1 0x1 PUSH1 0xA0 SHL SUB DUP3 AND PUSH2 0x121C JUMPI PUSH2 0x5A8 DUP2 PUSH2 0x209C JUMP JUMPDEST DUP3 PUSH1 0x1 PUSH1 0x1 PUSH1 0xA0 SHL SUB AND DUP3 PUSH1 0x1 PUSH1 0x1 PUSH1 0xA0 SHL SUB AND EQ PUSH2 0x5A8 JUMPI PUSH2 0x5A8 DUP3 DUP3 PUSH2 0x2165 JUMP JUMPDEST PUSH1 0x0 PUSH2 0x124A DUP3 PUSH2 0x21B5 JUMP JUMPDEST DUP1 ISZERO PUSH2 0x125C JUMPI POP PUSH2 0x125A DUP3 PUSH2 0x21CE JUMP JUMPDEST ISZERO JUMPDEST ISZERO PUSH2 0x133B JUMPI PUSH1 0x0 DUP3 DUP2 MSTORE PUSH32 0xFDCCEBC9C7798F16C9158AF32C6BB14BB2526BCD260561CAB5771CFF2FA8AD96 PUSH1 0x20 SWAP1 DUP2 MSTORE PUSH1 0x40 DUP1 DUP4 KECCAK256 SLOAD DUP1 DUP5 MSTORE PUSH32 0xFDCCEBC9C7798F16C9158AF32C6BB14BB2526BCD260561CAB5771CFF2FA8AD90 DUP4 MSTORE DUP2 DUP5 KECCAK256 SLOAD DUP1 DUP6 MSTORE PUSH32 0xFDCCEBC9C7798F16C9158AF32C6BB14BB2526BCD260561CAB5771CFF2FA8AD94 SWAP1 SWAP4 MSTORE SWAP3 KECCAK256 SLOAD PUSH32 0xFDCCEBC9C7798F16C9158AF32C6BB14BB2526BCD260561CAB5771CFF2FA8AD8E SWAP3 SWAP2 SWAP1 ISZERO DUP1 ISZERO SWAP1 PUSH2 0x1327 JUMPI POP PUSH1 0x0 DUP2 DUP2 MSTORE PUSH1 0x6 DUP5 ADD PUSH1 0x20 MSTORE PUSH1 0x40 SWAP1 KECCAK256 SLOAD NUMBER GT JUMPDEST ISZERO PUSH2 0x1337 JUMPI POP PUSH1 0x1 SWAP5 SWAP4 POP POP POP POP JUMP JUMPDEST POP POP POP JUMPDEST POP PUSH1 0x0 SWAP2 SWAP1 POP JUMP JUMPDEST PUSH1 0x0 PUSH2 0x134E DUP3 PUSH2 0x21CE JUMP JUMPDEST ISZERO PUSH2 0x139B JUMPI PUSH1 0x40 MLOAD PUSH3 0x461BCD PUSH1 0xE5 SHL DUP2 MSTORE PUSH1 0x20 PUSH1 0x4 DUP3 ADD MSTORE PUSH1 0x1A PUSH1 0x24 DUP3 ADD MSTORE PUSH32 0x4C69624861746368696E673A20524E47206E6F74207265616479000000000000 PUSH1 0x44 DUP3 ADD MSTORE PUSH1 0x64 ADD PUSH2 0x469 JUMP JUMPDEST PUSH2 0x13A4 DUP3 PUSH2 0x21B5 JUMP JUMPDEST PUSH2 0x13F0 JUMPI PUSH1 0x40 MLOAD PUSH3 0x461BCD PUSH1 0xE5 SHL DUP2 MSTORE PUSH1 0x20 PUSH1 0x4 DUP3 ADD DUP2 SWAP1 MSTORE PUSH1 0x24 DUP3 ADD MSTORE PUSH32 0x4C69624861746368696E673A2057616974696E6720666F72205652462054544C PUSH1 0x44 DUP3 ADD MSTORE PUSH1 0x64 ADD PUSH2 0x469 JUMP JUMPDEST PUSH1 0x0 DUP3 DUP2 MSTORE PUSH32 0xFDCCEBC9C7798F16C9158AF32C6BB14BB2526BCD260561CAB5771CFF2FA8AD96 PUSH1 0x20 SWAP1 DUP2 MSTORE PUSH1 0x40 DUP1 DUP4 KECCAK256 SLOAD DUP4 MSTORE PUSH32 0xFDCCEBC9C7798F16C9158AF32C6BB14BB2526BCD260561CAB5771CFF2FA8AD90 DUP3 MSTORE DUP1 DUP4 KECCAK256 SLOAD DUP1 DUP5 MSTORE PUSH32 0xFDCCEBC9C7798F16C9158AF32C6BB14BB2526BCD260561CAB5771CFF2FA8AD94 SWAP1 SWAP3 MSTORE SWAP1 SWAP2 KECCAK256 SLOAD PUSH32 0xFDCCEBC9C7798F16C9158AF32C6BB14BB2526BCD260561CAB5771CFF2FA8AD8E SWAP2 SWAP1 PUSH2 0x14E4 JUMPI PUSH1 0x40 MLOAD PUSH3 0x461BCD PUSH1 0xE5 SHL DUP2 MSTORE PUSH1 0x20 PUSH1 0x4 DUP3 ADD MSTORE PUSH1 0x17 PUSH1 0x24 DUP3 ADD MSTORE PUSH32 0x4C69624861746368696E673A204E6F20524E4720736574000000000000000000 PUSH1 0x44 DUP3 ADD MSTORE PUSH1 0x64 ADD PUSH2 0x469 JUMP JUMPDEST PUSH1 0x0 DUP2 DUP2 MSTORE PUSH1 0x6 DUP4 ADD PUSH1 0x20 MSTORE PUSH1 0x40 SWAP1 KECCAK256 SLOAD NUMBER GT PUSH2 0x155F JUMPI PUSH1 0x40 MLOAD PUSH3 0x461BCD PUSH1 0xE5 SHL DUP2 MSTORE PUSH1 0x20 PUSH1 0x4 DUP3 ADD MSTORE PUSH1 0x33 PUSH1 0x24 DUP3 ADD MSTORE PUSH32 0x4C69624861746368696E673A2050726564696374696F6E206D61736B65642064 PUSH1 0x44 DUP3 ADD MSTORE PUSH19 0x7572696E6720524E472073657420626C6F636B PUSH1 0x68 SHL PUSH1 0x64 DUP3 ADD MSTORE PUSH1 0x84 ADD PUSH2 0x469 JUMP JUMPDEST PUSH1 0x0 PUSH2 0x156A DUP6 PUSH2 0x21E7 JUMP JUMPDEST SWAP1 POP PUSH1 0x0 PUSH2 0x1577 DUP3 PUSH2 0x21F1 JUMP JUMPDEST EQ PUSH2 0x15D8 JUMPI PUSH1 0x40 MLOAD PUSH3 0x461BCD PUSH1 0xE5 SHL DUP2 MSTORE PUSH1 0x20 PUSH1 0x4 DUP3 ADD MSTORE PUSH1 0x2B PUSH1 0x24 DUP3 ADD MSTORE PUSH32 0x4C69624861746368696E673A20444E412068617320616C726561647920626565 PUSH1 0x44 DUP3 ADD MSTORE PUSH11 0x1B881C195C9CDA5CDD1959 PUSH1 0xAA SHL PUSH1 0x64 DUP3 ADD MSTORE PUSH1 0x84 ADD PUSH2 0x469 JUMP JUMPDEST PUSH1 0x0 PUSH2 0x15E3 DUP3 PUSH2 0x21FF JUMP JUMPDEST PUSH1 0xFF AND SWAP1 POP PUSH1 0x0 PUSH2 0x15F2 PUSH2 0xAD1 JUMP JUMPDEST PUSH1 0x0 DUP9 DUP2 MSTORE PUSH1 0x3A DUP3 ADD PUSH1 0x20 MSTORE PUSH1 0x40 DUP2 KECCAK256 SWAP2 SWAP3 POP SWAP1 PUSH2 0x1613 SWAP1 DUP3 JUMPDEST ADD SLOAD PUSH2 0xECD JUMP JUMPDEST PUSH1 0x0 DUP10 DUP2 MSTORE PUSH1 0x3A DUP5 ADD PUSH1 0x20 MSTORE PUSH1 0x40 DUP2 KECCAK256 SWAP2 SWAP3 POP SWAP1 PUSH2 0x1631 SWAP1 DUP3 PUSH2 0x160C JUMP JUMPDEST SWAP1 POP PUSH1 0x0 PUSH2 0x163E DUP4 PUSH2 0x21FF JUMP JUMPDEST PUSH1 0xFF AND DUP6 EQ SWAP1 POP PUSH1 0x0 PUSH2 0x1650 DUP4 PUSH2 0x21FF JUMP JUMPDEST PUSH1 0xFF AND DUP7 EQ SWAP1 POP PUSH1 0x0 DUP3 DUP1 PUSH2 0x1662 JUMPI POP DUP2 JUMPDEST SWAP1 POP PUSH2 0x166F DUP9 PUSH1 0x1 PUSH2 0x1EBB JUMP JUMPDEST PUSH1 0x0 DUP11 DUP2 MSTORE PUSH1 0x4 DUP13 ADD PUSH1 0x20 SWAP1 DUP2 MSTORE PUSH1 0x40 DUP1 DUP4 KECCAK256 SLOAD PUSH1 0x5 DUP16 ADD SWAP1 SWAP3 MSTORE DUP3 KECCAK256 SLOAD SWAP3 SWAP11 POP SWAP2 SWAP1 DUP4 DUP1 ISZERO PUSH2 0x16AB JUMPI POP DUP3 PUSH2 0x16A9 PUSH2 0x2710 DUP5 PUSH1 0xB PUSH2 0x220E JUMP JUMPDEST LT JUMPDEST ISZERO PUSH2 0x1747 JUMPI DUP6 DUP1 ISZERO PUSH2 0x16BA JUMPI POP DUP5 JUMPDEST ISZERO PUSH2 0x16E2 JUMPI PUSH2 0x16CC PUSH1 0x2 DUP4 PUSH1 0xC PUSH2 0x220E JUMP JUMPDEST PUSH1 0x1 EQ PUSH2 0x16D9 JUMPI DUP7 PUSH2 0x16DB JUMP JUMPDEST DUP8 JUMPDEST SWAP1 POP PUSH2 0x16F2 JUMP JUMPDEST DUP6 PUSH2 0x16ED JUMPI DUP7 PUSH2 0x16EF JUMP JUMPDEST DUP8 JUMPDEST SWAP1 POP JUMPDEST PUSH2 0x1704 DUP12 PUSH2 0x16FF DUP4 PUSH2 0x2250 JUMP JUMPDEST PUSH2 0x2260 JUMP JUMPDEST SWAP11 POP PUSH2 0x1718 DUP12 PUSH2 0x1713 DUP4 PUSH2 0x2271 JUMP JUMPDEST PUSH2 0x2282 JUMP JUMPDEST SWAP11 POP PUSH2 0x172C DUP12 PUSH2 0x1727 DUP4 PUSH2 0x2294 JUMP JUMPDEST PUSH2 0x22A6 JUMP JUMPDEST SWAP11 POP PUSH2 0x1740 DUP12 PUSH2 0x173B DUP4 PUSH2 0x22B9 JUMP JUMPDEST PUSH2 0x22CC JUMP JUMPDEST SWAP11 POP PUSH2 0x17B0 JUMP JUMPDEST PUSH2 0x1774 DUP12 DUP11 PUSH1 0x26 ADD PUSH1 0x0 PUSH2 0x1760 DUP14 DUP16 PUSH1 0x1 DUP10 PUSH1 0xD PUSH2 0x22E0 JUMP JUMPDEST DUP2 MSTORE PUSH1 0x20 ADD SWAP1 DUP2 MSTORE PUSH1 0x20 ADD PUSH1 0x0 KECCAK256 SLOAD PUSH2 0x2260 JUMP JUMPDEST SWAP11 POP PUSH2 0x1787 DUP12 PUSH2 0x1713 DUP12 DUP14 DUP7 PUSH1 0xE PUSH2 0x2483 JUMP JUMPDEST SWAP11 POP PUSH2 0x179A DUP12 PUSH2 0x1727 DUP12 DUP14 DUP7 PUSH1 0xF PUSH2 0x2483 JUMP JUMPDEST SWAP11 POP PUSH2 0x17AD DUP12 PUSH2 0x173B DUP12 DUP14 DUP7 PUSH1 0x10 PUSH2 0x2483 JUMP JUMPDEST SWAP11 POP JUMPDEST DUP4 DUP1 ISZERO PUSH2 0x17C9 JUMPI POP DUP3 PUSH2 0x17C7 PUSH2 0x2710 DUP5 PUSH1 0x15 PUSH2 0x220E JUMP JUMPDEST LT JUMPDEST ISZERO PUSH2 0x1865 JUMPI DUP6 DUP1 ISZERO PUSH2 0x17D8 JUMPI POP DUP5 JUMPDEST ISZERO PUSH2 0x1800 JUMPI PUSH2 0x17EA PUSH1 0x2 DUP4 PUSH1 0x16 PUSH2 0x220E JUMP JUMPDEST PUSH1 0x1 EQ PUSH2 0x17F7 JUMPI DUP7 PUSH2 0x17F9 JUMP JUMPDEST DUP8 JUMPDEST SWAP1 POP PUSH2 0x1810 JUMP JUMPDEST DUP6 PUSH2 0x180B JUMPI DUP7 PUSH2 0x180D JUMP JUMPDEST DUP8 JUMPDEST SWAP1 POP JUMPDEST PUSH2 0x1822 DUP12 PUSH2 0x181D DUP4 PUSH2 0x2595 JUMP JUMPDEST PUSH2 0x25A5 JUMP JUMPDEST SWAP11 POP PUSH2 0x1836 DUP12 PUSH2 0x1831 DUP4 PUSH2 0x25B6 JUMP JUMPDEST PUSH2 0x25C6 JUMP JUMPDEST SWAP11 POP PUSH2 0x184A DUP12 PUSH2 0x1845 DUP4 PUSH2 0x25D7 JUMP JUMPDEST PUSH2 0x25E7 JUMP JUMPDEST SWAP11 POP PUSH2 0x185E DUP12 PUSH2 0x1859 DUP4 PUSH2 0x25F8 JUMP JUMPDEST PUSH2 0x2608 JUMP JUMPDEST SWAP11 POP PUSH2 0x18CE JUMP JUMPDEST PUSH2 0x1892 DUP12 DUP11 PUSH1 0x26 ADD PUSH1 0x0 PUSH2 0x187E DUP14 DUP16 PUSH1 0x2 DUP10 PUSH1 0x17 PUSH2 0x22E0 JUMP JUMPDEST DUP2 MSTORE PUSH1 0x20 ADD SWAP1 DUP2 MSTORE PUSH1 0x20 ADD PUSH1 0x0 KECCAK256 SLOAD PUSH2 0x25A5 JUMP JUMPDEST SWAP11 POP PUSH2 0x18A5 DUP12 PUSH2 0x1831 DUP12 DUP14 DUP7 PUSH1 0x18 PUSH2 0x2483 JUMP JUMPDEST SWAP11 POP PUSH2 0x18B8 DUP12 PUSH2 0x1845 DUP12 DUP14 DUP7 PUSH1 0x19 PUSH2 0x2483 JUMP JUMPDEST SWAP11 POP PUSH2 0x18CB DUP12 PUSH2 0x1859 DUP12 DUP14 DUP7 PUSH1 0x1A PUSH2 0x2483 JUMP JUMPDEST SWAP11 POP JUMPDEST DUP4 DUP1 ISZERO PUSH2 0x18E7 JUMPI POP DUP3 PUSH2 0x18E5 PUSH2 0x2710 DUP5 PUSH1 0x1F PUSH2 0x220E JUMP JUMPDEST LT JUMPDEST ISZERO PUSH2 0x1983 JUMPI DUP6 DUP1 ISZERO PUSH2 0x18F6 JUMPI POP DUP5 JUMPDEST ISZERO PUSH2 0x191E JUMPI PUSH2 0x1908 PUSH1 0x2 DUP4 PUSH1 0x20 PUSH2 0x220E JUMP JUMPDEST PUSH1 0x1 EQ PUSH2 0x1915 JUMPI DUP7 PUSH2 0x1917 JUMP JUMPDEST DUP8 JUMPDEST SWAP1 POP PUSH2 0x192E JUMP JUMPDEST DUP6 PUSH2 0x1929 JUMPI DUP7 PUSH2 0x192B JUMP JUMPDEST DUP8 JUMPDEST SWAP1 POP JUMPDEST PUSH2 0x1940 DUP12 PUSH2 0x193B DUP4 PUSH2 0x2619 JUMP JUMPDEST PUSH2 0x2629 JUMP JUMPDEST SWAP11 POP PUSH2 0x1954 DUP12 PUSH2 0x194F DUP4 PUSH2 0x263A JUMP JUMPDEST PUSH2 0x264A JUMP JUMPDEST SWAP11 POP PUSH2 0x1968 DUP12 PUSH2 0x1963 DUP4 PUSH2 0x265B JUMP JUMPDEST PUSH2 0x266B JUMP JUMPDEST SWAP11 POP PUSH2 0x197C DUP12 PUSH2 0x1977 DUP4 PUSH2 0x267C JUMP JUMPDEST PUSH2 0x268C JUMP JUMPDEST SWAP11 POP PUSH2 0x19EC JUMP JUMPDEST PUSH2 0x19B0 DUP12 DUP11 PUSH1 0x26 ADD PUSH1 0x0 PUSH2 0x199C DUP14 DUP16 PUSH1 0x3 DUP10 PUSH1 0x21 PUSH2 0x22E0 JUMP JUMPDEST DUP2 MSTORE PUSH1 0x20 ADD SWAP1 DUP2 MSTORE PUSH1 0x20 ADD PUSH1 0x0 KECCAK256 SLOAD PUSH2 0x2629 JUMP JUMPDEST SWAP11 POP PUSH2 0x19C3 DUP12 PUSH2 0x194F DUP12 DUP14 DUP7 PUSH1 0x22 PUSH2 0x2483 JUMP JUMPDEST SWAP11 POP PUSH2 0x19D6 DUP12 PUSH2 0x1963 DUP12 DUP14 DUP7 PUSH1 0x23 PUSH2 0x2483 JUMP JUMPDEST SWAP11 POP PUSH2 0x19E9 DUP12 PUSH2 0x1977 DUP12 DUP14 DUP7 PUSH1 0x24 PUSH2 0x2483 JUMP JUMPDEST SWAP11 POP JUMPDEST DUP4 DUP1 ISZERO PUSH2 0x1A05 JUMPI POP DUP3 PUSH2 0x1A03 PUSH2 0x2710 DUP5 PUSH1 0x29 PUSH2 0x220E JUMP JUMPDEST LT JUMPDEST ISZERO PUSH2 0x1AA1 JUMPI DUP6 DUP1 ISZERO PUSH2 0x1A14 JUMPI POP DUP5 JUMPDEST ISZERO PUSH2 0x1A3C JUMPI PUSH2 0x1A26 PUSH1 0x2 DUP4 PUSH1 0x2A PUSH2 0x220E JUMP JUMPDEST PUSH1 0x1 EQ PUSH2 0x1A33 JUMPI DUP7 PUSH2 0x1A35 JUMP JUMPDEST DUP8 JUMPDEST SWAP1 POP PUSH2 0x1A4C JUMP JUMPDEST DUP6 PUSH2 0x1A47 JUMPI DUP7 PUSH2 0x1A49 JUMP JUMPDEST DUP8 JUMPDEST SWAP1 POP JUMPDEST PUSH2 0x1A5E DUP12 PUSH2 0x1A59 DUP4 PUSH2 0x269D JUMP JUMPDEST PUSH2 0x26AD JUMP JUMPDEST SWAP11 POP PUSH2 0x1A72 DUP12 PUSH2 0x1A6D DUP4 PUSH2 0x26BE JUMP JUMPDEST PUSH2 0x26CE JUMP JUMPDEST SWAP11 POP PUSH2 0x1A86 DUP12 PUSH2 0x1A81 DUP4 PUSH2 0x26DF JUMP JUMPDEST PUSH2 0x26EF JUMP JUMPDEST SWAP11 POP PUSH2 0x1A9A DUP12 PUSH2 0x1A95 DUP4 PUSH2 0x2700 JUMP JUMPDEST PUSH2 0x2710 JUMP JUMPDEST SWAP11 POP PUSH2 0x1B0A JUMP JUMPDEST PUSH2 0x1ACE DUP12 DUP11 PUSH1 0x26 ADD PUSH1 0x0 PUSH2 0x1ABA DUP14 DUP16 PUSH1 0x4 DUP10 PUSH1 0x2B PUSH2 0x22E0 JUMP JUMPDEST DUP2 MSTORE PUSH1 0x20 ADD SWAP1 DUP2 MSTORE PUSH1 0x20 ADD PUSH1 0x0 KECCAK256 SLOAD PUSH2 0x26AD JUMP JUMPDEST SWAP11 POP PUSH2 0x1AE1 DUP12 PUSH2 0x1A6D DUP12 DUP14 DUP7 PUSH1 0x2C PUSH2 0x2483 JUMP JUMPDEST SWAP11 POP PUSH2 0x1AF4 DUP12 PUSH2 0x1A81 DUP12 DUP14 DUP7 PUSH1 0x2D PUSH2 0x2483 JUMP JUMPDEST SWAP11 POP PUSH2 0x1B07 DUP12 PUSH2 0x1A95 DUP12 DUP14 DUP7 PUSH1 0x2E PUSH2 0x2483 JUMP JUMPDEST SWAP11 POP JUMPDEST DUP4 DUP1 ISZERO PUSH2 0x1B23 JUMPI POP DUP3 PUSH2 0x1B21 PUSH2 0x2710 DUP5 PUSH1 0x33 PUSH2 0x220E JUMP JUMPDEST LT JUMPDEST ISZERO PUSH2 0x1BBF JUMPI DUP6 DUP1 ISZERO PUSH2 0x1B32 JUMPI POP DUP5 JUMPDEST ISZERO PUSH2 0x1B5A JUMPI PUSH2 0x1B44 PUSH1 0x2 DUP4 PUSH1 0x34 PUSH2 0x220E JUMP JUMPDEST PUSH1 0x1 EQ PUSH2 0x1B51 JUMPI DUP7 PUSH2 0x1B53 JUMP JUMPDEST DUP8 JUMPDEST SWAP1 POP PUSH2 0x1B6A JUMP JUMPDEST DUP6 PUSH2 0x1B65 JUMPI DUP7 PUSH2 0x1B67 JUMP JUMPDEST DUP8 JUMPDEST SWAP1 POP JUMPDEST PUSH2 0x1B7C DUP12 PUSH2 0x1B77 DUP4 PUSH2 0x2721 JUMP JUMPDEST PUSH2 0x2731 JUMP JUMPDEST SWAP11 POP PUSH2 0x1B90 DUP12 PUSH2 0x1B8B DUP4 PUSH2 0x2742 JUMP JUMPDEST PUSH2 0x2752 JUMP JUMPDEST SWAP11 POP PUSH2 0x1BA4 DUP12 PUSH2 0x1B9F DUP4 PUSH2 0x2763 JUMP JUMPDEST PUSH2 0x2773 JUMP JUMPDEST SWAP11 POP PUSH2 0x1BB8 DUP12 PUSH2 0x1BB3 DUP4 PUSH2 0x2784 JUMP JUMPDEST PUSH2 0x2794 JUMP JUMPDEST SWAP11 POP PUSH2 0x1C28 JUMP JUMPDEST PUSH2 0x1BEC DUP12 DUP11 PUSH1 0x26 ADD PUSH1 0x0 PUSH2 0x1BD8 DUP14 DUP16 PUSH1 0x5 DUP10 PUSH1 0x35 PUSH2 0x22E0 JUMP JUMPDEST DUP2 MSTORE PUSH1 0x20 ADD SWAP1 DUP2 MSTORE PUSH1 0x20 ADD PUSH1 0x0 KECCAK256 SLOAD PUSH2 0x2731 JUMP JUMPDEST SWAP11 POP PUSH2 0x1BFF DUP12 PUSH2 0x1B8B DUP12 DUP14 DUP7 PUSH1 0x36 PUSH2 0x2483 JUMP JUMPDEST SWAP11 POP PUSH2 0x1C12 DUP12 PUSH2 0x1B9F DUP12 DUP14 DUP7 PUSH1 0x37 PUSH2 0x2483 JUMP JUMPDEST SWAP11 POP PUSH2 0x1C25 DUP12 PUSH2 0x1BB3 DUP12 DUP14 DUP7 PUSH1 0x38 PUSH2 0x2483 JUMP JUMPDEST SWAP11 POP JUMPDEST DUP4 DUP1 ISZERO PUSH2 0x1C41 JUMPI POP DUP3 PUSH2 0x1C3F PUSH2 0x2710 DUP5 PUSH1 0x3D PUSH2 0x220E JUMP JUMPDEST LT JUMPDEST ISZERO PUSH2 0x1CDD JUMPI DUP6 DUP1 ISZERO PUSH2 0x1C50 JUMPI POP DUP5 JUMPDEST ISZERO PUSH2 0x1C78 JUMPI PUSH2 0x1C62 PUSH1 0x2 DUP4 PUSH1 0x3E PUSH2 0x220E JUMP JUMPDEST PUSH1 0x1 EQ PUSH2 0x1C6F JUMPI DUP7 PUSH2 0x1C71 JUMP JUMPDEST DUP8 JUMPDEST SWAP1 POP PUSH2 0x1C88 JUMP JUMPDEST DUP6 PUSH2 0x1C83 JUMPI DUP7 PUSH2 0x1C85 JUMP JUMPDEST DUP8 JUMPDEST SWAP1 POP JUMPDEST PUSH2 0x1C9A DUP12 PUSH2 0x1C95 DUP4 PUSH2 0x27A5 JUMP JUMPDEST PUSH2 0x27B5 JUMP JUMPDEST SWAP11 POP PUSH2 0x1CAE DUP12 PUSH2 0x1CA9 DUP4 PUSH2 0x27C6 JUMP JUMPDEST PUSH2 0x27D6 JUMP JUMPDEST SWAP11 POP PUSH2 0x1CC2 DUP12 PUSH2 0x1CBD DUP4 PUSH2 0x27E7 JUMP JUMPDEST PUSH2 0x27F7 JUMP JUMPDEST SWAP11 POP PUSH2 0x1CD6 DUP12 PUSH2 0x1CD1 DUP4 PUSH2 0x2808 JUMP JUMPDEST PUSH2 0x2818 JUMP JUMPDEST SWAP11 POP PUSH2 0x1D46 JUMP JUMPDEST PUSH2 0x1D0A DUP12 DUP11 PUSH1 0x26 ADD PUSH1 0x0 PUSH2 0x1CF6 DUP14 DUP16 PUSH1 0x6 DUP10 PUSH1 0x3F PUSH2 0x22E0 JUMP JUMPDEST DUP2 MSTORE PUSH1 0x20 ADD SWAP1 DUP2 MSTORE PUSH1 0x20 ADD PUSH1 0x0 KECCAK256 SLOAD PUSH2 0x27B5 JUMP JUMPDEST SWAP11 POP PUSH2 0x1D1D DUP12 PUSH2 0x1CA9 DUP12 DUP14 DUP7 PUSH1 0x40 PUSH2 0x2483 JUMP JUMPDEST SWAP11 POP PUSH2 0x1D30 DUP12 PUSH2 0x1CBD DUP12 DUP14 DUP7 PUSH1 0x41 PUSH2 0x2483 JUMP JUMPDEST SWAP11 POP PUSH2 0x1D43 DUP12 PUSH2 0x1CD1 DUP12 DUP14 DUP7 PUSH1 0x42 PUSH2 0x2483 JUMP JUMPDEST SWAP11 POP JUMPDEST POP SWAP9 SWAP14 SWAP13 POP POP POP POP POP POP POP POP POP POP POP POP POP JUMP JUMPDEST PUSH1 0x0 PUSH1 0x1 PUSH1 0x1 PUSH1 0xA0 SHL SUB DUP5 AND EXTCODESIZE ISZERO PUSH2 0x1E5B JUMPI PUSH1 0x40 MLOAD PUSH4 0xA85BD01 PUSH1 0xE1 SHL DUP2 MSTORE PUSH1 0x1 PUSH1 0x1 PUSH1 0xA0 SHL SUB DUP6 AND SWAP1 PUSH4 0x150B7A02 SWAP1 PUSH2 0x1D9D SWAP1 CALLER SWAP1 DUP10 SWAP1 DUP9 SWAP1 DUP9 SWAP1 PUSH1 0x4 ADD PUSH2 0x2D50 JUMP JUMPDEST PUSH1 0x20 PUSH1 0x40 MLOAD DUP1 DUP4 SUB DUP2 PUSH1 0x0 DUP8 DUP1 EXTCODESIZE ISZERO DUP1 ISZERO PUSH2 0x1DB7 JUMPI PUSH1 0x0 DUP1 REVERT JUMPDEST POP GAS CALL SWAP3 POP POP POP DUP1 ISZERO PUSH2 0x1DE7 JUMPI POP PUSH1 0x40 DUP1 MLOAD PUSH1 0x1F RETURNDATASIZE SWAP1 DUP2 ADD PUSH1 0x1F NOT AND DUP3 ADD SWAP1 SWAP3 MSTORE PUSH2 0x1DE4 SWAP2 DUP2 ADD SWAP1 PUSH2 0x2D8D JUMP JUMPDEST PUSH1 0x1 JUMPDEST PUSH2 0x1E41 JUMPI RETURNDATASIZE DUP1 DUP1 ISZERO PUSH2 0x1E15 JUMPI PUSH1 0x40 MLOAD SWAP2 POP PUSH1 0x1F NOT PUSH1 0x3F RETURNDATASIZE ADD AND DUP3 ADD PUSH1 0x40 MSTORE RETURNDATASIZE DUP3 MSTORE RETURNDATASIZE PUSH1 0x0 PUSH1 0x20 DUP5 ADD RETURNDATACOPY PUSH2 0x1E1A JUMP JUMPDEST PUSH1 0x60 SWAP2 POP JUMPDEST POP DUP1 MLOAD PUSH2 0x1E39 JUMPI PUSH1 0x40 MLOAD PUSH3 0x461BCD PUSH1 0xE5 SHL DUP2 MSTORE PUSH1 0x4 ADD PUSH2 0x469 SWAP1 PUSH2 0x2CFE JUMP JUMPDEST DUP1 MLOAD DUP2 PUSH1 0x20 ADD REVERT JUMPDEST PUSH1 0x1 PUSH1 0x1 PUSH1 0xE0 SHL SUB NOT AND PUSH4 0xA85BD01 PUSH1 0xE1 SHL EQ SWAP1 POP PUSH2 0xC63 JUMP JUMPDEST POP PUSH1 0x1 SWAP5 SWAP4 POP POP POP POP JUMP JUMPDEST PUSH1 0x0 PUSH2 0x1E70 PUSH2 0xAD1 JUMP JUMPDEST PUSH1 0x41 ADD SLOAD SWAP1 POP SWAP1 JUMP JUMPDEST PUSH1 0x0 PUSH2 0x1E87 DUP4 DUP4 PUSH1 0xFF PUSH2 0x2825 JUMP JUMPDEST SWAP4 SWAP3 POP POP POP JUMP JUMPDEST PUSH1 0x0 PUSH2 0x1E87 DUP4 DUP4 PUSH2 0x100 PUSH2 0x2849 JUMP JUMPDEST PUSH1 0x0 PUSH2 0x1E87 DUP4 DUP4 PUSH2 0x200 PUSH2 0x2849 JUMP JUMPDEST PUSH1 0x0 PUSH2 0x1E87 DUP4 DUP4 PUSH2 0x400 PUSH2 0x2849 JUMP JUMPDEST PUSH1 0x0 PUSH2 0x1E87 DUP4 DUP4 PUSH2 0x1800 PUSH2 0x2825 JUMP JUMPDEST PUSH1 0x0 PUSH2 0x1E87 DUP4 DUP4 PUSH3 0x1E000 PUSH2 0x2825 JUMP JUMPDEST PUSH1 0x0 PUSH2 0x1E87 DUP4 DUP4 PUSH1 0xFF AND PUSH3 0x1E0000 PUSH2 0x2825 JUMP JUMPDEST PUSH1 0x0 DUP1 DUP3 GT PUSH2 0x1F3E JUMPI PUSH1 0x40 MLOAD PUSH3 0x461BCD PUSH1 0xE5 SHL DUP2 MSTORE PUSH1 0x20 PUSH1 0x4 DUP3 ADD MSTORE PUSH1 0x1F PUSH1 0x24 DUP3 ADD MSTORE PUSH32 0x4C6962556E69636F726E444E413A2063616E6E6F7420736574203020444E4100 PUSH1 0x44 DUP3 ADD MSTORE PUSH1 0x64 ADD PUSH2 0x469 JUMP JUMPDEST PUSH1 0x0 PUSH2 0x1F48 PUSH2 0xAD1 JUMP JUMPDEST PUSH1 0x0 DUP6 DUP2 MSTORE PUSH1 0x18 DUP3 ADD PUSH1 0x20 SWAP1 DUP2 MSTORE PUSH1 0x40 SWAP2 DUP3 SWAP1 KECCAK256 DUP7 SWAP1 SSTORE DUP2 MLOAD DUP8 DUP2 MSTORE SWAP1 DUP2 ADD DUP7 SWAP1 MSTORE SWAP2 SWAP3 POP PUSH32 0x9224D149FACB2EC112BF239305994586C3A09A1776770EDCAF18F1EC3A4596B1 SWAP2 ADD PUSH1 0x40 MLOAD DUP1 SWAP2 SUB SWAP1 LOG1 POP SWAP1 SWAP3 SWAP2 POP POP JUMP JUMPDEST PUSH1 0x0 PUSH2 0x200 DUP3 AND ISZERO ISZERO PUSH2 0x360 JUMP JUMPDEST PUSH1 0x0 PUSH2 0x1FB8 PUSH2 0xAD1 JUMP JUMPDEST PUSH1 0xA DUP2 ADD DUP1 SLOAD PUSH1 0x0 DUP6 DUP2 MSTORE PUSH1 0xB SWAP1 SWAP4 ADD PUSH1 0x20 SWAP1 DUP2 MSTORE PUSH1 0x40 DUP5 KECCAK256 DUP3 SWAP1 SSTORE PUSH1 0x1 DUP3 ADD DUP4 SSTORE SWAP2 DUP4 MSTORE SWAP2 KECCAK256 ADD SWAP2 SWAP1 SWAP2 SSTORE POP JUMP JUMPDEST PUSH1 0x0 PUSH2 0x1FF1 PUSH2 0xAD1 JUMP JUMPDEST SWAP1 POP PUSH1 0x0 PUSH1 0x1 PUSH2 0x2000 DUP6 PUSH2 0x824 JUMP JUMPDEST PUSH2 0x200A SWAP2 SWAP1 PUSH2 0x2CCF JUMP JUMPDEST PUSH1 0x0 DUP5 DUP2 MSTORE PUSH1 0x9 DUP5 ADD PUSH1 0x20 MSTORE PUSH1 0x40 SWAP1 KECCAK256 SLOAD SWAP1 SWAP2 POP DUP1 DUP3 EQ PUSH2 0x2063 JUMPI PUSH1 0x1 PUSH1 0x1 PUSH1 0xA0 SHL SUB DUP6 AND PUSH1 0x0 SWAP1 DUP2 MSTORE PUSH1 0x8 DUP5 ADD PUSH1 0x20 SWAP1 DUP2 MSTORE PUSH1 0x40 DUP1 DUP4 KECCAK256 DUP6 DUP5 MSTORE DUP3 MSTORE DUP1 DUP4 KECCAK256 SLOAD DUP5 DUP5 MSTORE DUP2 DUP5 KECCAK256 DUP2 SWAP1 SSTORE DUP4 MSTORE PUSH1 0x9 DUP7 ADD SWAP1 SWAP2 MSTORE SWAP1 KECCAK256 DUP2 SWAP1 SSTORE JUMPDEST POP PUSH1 0x0 SWAP3 DUP4 MSTORE PUSH1 0x9 DUP3 ADD PUSH1 0x20 SWAP1 DUP2 MSTORE PUSH1 0x40 DUP1 DUP6 KECCAK256 DUP6 SWAP1 SSTORE PUSH1 0x1 PUSH1 0x1 PUSH1 0xA0 SHL SUB SWAP1 SWAP6 AND DUP5 MSTORE PUSH1 0x8 SWAP1 SWAP3 ADD DUP3 MSTORE DUP4 DUP4 KECCAK256 SWAP1 DUP4 MSTORE SWAP1 MSTORE SWAP1 DUP2 KECCAK256 SSTORE JUMP JUMPDEST PUSH1 0x0 PUSH2 0x20A6 PUSH2 0xAD1 JUMP JUMPDEST PUSH1 0xA DUP2 ADD SLOAD SWAP1 SWAP2 POP PUSH1 0x0 SWAP1 PUSH2 0x20BD SWAP1 PUSH1 0x1 SWAP1 PUSH2 0x2CCF JUMP JUMPDEST PUSH1 0x0 DUP5 DUP2 MSTORE PUSH1 0xB DUP5 ADD PUSH1 0x20 MSTORE PUSH1 0x40 DUP2 KECCAK256 SLOAD PUSH1 0xA DUP6 ADD DUP1 SLOAD SWAP4 SWAP5 POP SWAP1 SWAP3 DUP5 SWAP1 DUP2 LT PUSH2 0x20E9 JUMPI PUSH2 0x20E9 PUSH2 0x2C88 JUMP JUMPDEST SWAP1 PUSH1 0x0 MSTORE PUSH1 0x20 PUSH1 0x0 KECCAK256 ADD SLOAD SWAP1 POP DUP1 DUP5 PUSH1 0xA ADD DUP4 DUP2 SLOAD DUP2 LT PUSH2 0x210C JUMPI PUSH2 0x210C PUSH2 0x2C88 JUMP JUMPDEST PUSH1 0x0 SWAP2 DUP3 MSTORE PUSH1 0x20 DUP1 DUP4 KECCAK256 SWAP1 SWAP2 ADD SWAP3 SWAP1 SWAP3 SSTORE DUP3 DUP2 MSTORE PUSH1 0xB DUP7 ADD SWAP1 SWAP2 MSTORE PUSH1 0x40 DUP1 DUP3 KECCAK256 DUP5 SWAP1 SSTORE DUP7 DUP3 MSTORE DUP2 KECCAK256 SSTORE PUSH1 0xA DUP5 ADD DUP1 SLOAD DUP1 PUSH2 0x2148 JUMPI PUSH2 0x2148 PUSH2 0x2DAA JUMP JUMPDEST PUSH1 0x1 SWAP1 SUB DUP2 DUP2 SWAP1 PUSH1 0x0 MSTORE PUSH1 0x20 PUSH1 0x0 KECCAK256 ADD PUSH1 0x0 SWAP1 SSTORE SWAP1 SSTORE POP POP POP POP POP JUMP JUMPDEST PUSH1 0x0 PUSH2 0x216F PUSH2 0xAD1 JUMP JUMPDEST SWAP1 POP PUSH1 0x0 PUSH2 0x217C DUP5 PUSH2 0x824 JUMP JUMPDEST PUSH1 0x1 PUSH1 0x1 PUSH1 0xA0 SHL SUB SWAP1 SWAP5 AND PUSH1 0x0 SWAP1 DUP2 MSTORE PUSH1 0x8 DUP4 ADD PUSH1 0x20 SWAP1 DUP2 MSTORE PUSH1 0x40 DUP1 DUP4 KECCAK256 DUP8 DUP5 MSTORE DUP3 MSTORE DUP1 DUP4 KECCAK256 DUP7 SWAP1 SSTORE SWAP5 DUP3 MSTORE PUSH1 0x9 SWAP1 SWAP4 ADD SWAP1 SWAP3 MSTORE POP KECCAK256 SSTORE JUMP JUMPDEST PUSH1 0x0 DUP1 PUSH2 0x21C1 DUP4 PUSH2 0x2867 JUMP JUMPDEST SWAP1 POP PUSH1 0x80 DUP2 AND ISZERO ISZERO PUSH2 0x1E87 JUMP JUMPDEST PUSH1 0x0 DUP1 PUSH2 0x21DA DUP4 PUSH2 0x2867 JUMP JUMPDEST SWAP1 POP PUSH1 0x40 DUP2 AND ISZERO ISZERO PUSH2 0x1E87 JUMP JUMPDEST PUSH1 0x0 PUSH2 0xEEE PUSH2 0xAD1 JUMP JUMPDEST PUSH1 0x0 PUSH2 0x360 DUP3 PUSH2 0x1800 PUSH2 0x2887 JUMP JUMPDEST PUSH1 0x0 PUSH2 0x360 DUP3 PUSH3 0x1E0000 PUSH2 0x2887 JUMP JUMPDEST PUSH1 0x0 DUP4 DUP4 DUP4 PUSH1 0x40 MLOAD PUSH1 0x20 ADD PUSH2 0x222D SWAP3 SWAP2 SWAP1 SWAP2 DUP3 MSTORE PUSH1 0x20 DUP3 ADD MSTORE PUSH1 0x40 ADD SWAP1 JUMP JUMPDEST PUSH1 0x40 MLOAD PUSH1 0x20 DUP2 DUP4 SUB SUB DUP2 MSTORE SWAP1 PUSH1 0x40 MSTORE DUP1 MLOAD SWAP1 PUSH1 0x20 ADD KECCAK256 PUSH1 0x0 SHR PUSH2 0xC63 SWAP2 SWAP1 PUSH2 0x2DC0 JUMP JUMPDEST PUSH1 0x0 PUSH2 0x360 DUP3 PUSH4 0x1FE00000 PUSH2 0x2887 JUMP JUMPDEST PUSH1 0x0 PUSH2 0x1E87 DUP4 DUP4 PUSH4 0x1FE00000 PUSH2 0x2825 JUMP JUMPDEST PUSH1 0x0 PUSH2 0x360 DUP3 PUSH5 0x1FE0000000 PUSH2 0x2887 JUMP JUMPDEST PUSH1 0x0 PUSH2 0x1E87 DUP4 DUP4 PUSH5 0x1FE0000000 PUSH2 0x2825 JUMP JUMPDEST PUSH1 0x0 PUSH2 0x360 DUP3 PUSH6 0x1FE000000000 PUSH2 0x2887 JUMP JUMPDEST PUSH1 0x0 PUSH2 0x1E87 DUP4 DUP4 PUSH6 0x1FE000000000 PUSH2 0x2825 JUMP JUMPDEST PUSH1 0x0 PUSH2 0x360 DUP3 PUSH7 0x1FE00000000000 PUSH2 0x2887 JUMP JUMPDEST PUSH1 0x0 PUSH2 0x1E87 DUP4 DUP4 PUSH7 0x1FE00000000000 PUSH2 0x2825 JUMP JUMPDEST PUSH1 0x0 DUP5 DUP2 MSTORE PUSH1 0x29 DUP7 ADD PUSH1 0x20 SWAP1 DUP2 MSTORE PUSH1 0x40 DUP1 DUP4 KECCAK256 DUP7 DUP5 MSTORE SWAP1 SWAP2 MSTORE DUP2 KECCAK256 SLOAD DUP2 DUP1 JUMPDEST DUP3 DUP2 LT ISZERO PUSH2 0x2374 JUMPI PUSH1 0x0 DUP9 DUP2 MSTORE PUSH1 0x29 DUP11 ADD PUSH1 0x20 SWAP1 DUP2 MSTORE PUSH1 0x40 DUP1 DUP4 KECCAK256 DUP11 DUP5 MSTORE SWAP1 SWAP2 MSTORE DUP2 KECCAK256 DUP1 SLOAD PUSH1 0x2B DUP13 ADD SWAP3 SWAP2 SWAP1 DUP5 SWAP1 DUP2 LT PUSH2 0x233B JUMPI PUSH2 0x233B PUSH2 0x2C88 JUMP JUMPDEST SWAP1 PUSH1 0x0 MSTORE PUSH1 0x20 PUSH1 0x0 KECCAK256 ADD SLOAD DUP2 MSTORE PUSH1 0x20 ADD SWAP1 DUP2 MSTORE PUSH1 0x20 ADD PUSH1 0x0 KECCAK256 SLOAD DUP3 PUSH2 0x2360 SWAP2 SWAP1 PUSH2 0x2CE6 JUMP JUMPDEST SWAP2 POP DUP1 PUSH2 0x236C DUP2 PUSH2 0x2CB4 JUMP JUMPDEST SWAP2 POP POP PUSH2 0x22FF JUMP JUMPDEST POP PUSH1 0x0 PUSH2 0x2382 DUP3 DUP8 DUP8 PUSH2 0x220E JUMP JUMPDEST PUSH2 0x238D SWAP1 PUSH1 0x1 PUSH2 0x2CE6 JUMP JUMPDEST SWAP1 POP PUSH1 0x0 DUP1 JUMPDEST DUP5 DUP2 LT ISZERO PUSH2 0x241D JUMPI PUSH1 0x0 DUP11 DUP2 MSTORE PUSH1 0x29 DUP13 ADD PUSH1 0x20 SWAP1 DUP2 MSTORE PUSH1 0x40 DUP1 DUP4 KECCAK256 DUP13 DUP5 MSTORE SWAP1 SWAP2 MSTORE DUP2 KECCAK256 DUP1 SLOAD DUP4 SWAP1 DUP2 LT PUSH2 0x23C8 JUMPI PUSH2 0x23C8 PUSH2 0x2C88 JUMP JUMPDEST PUSH1 0x0 SWAP2 DUP3 MSTORE PUSH1 0x20 DUP1 DUP4 KECCAK256 SWAP1 SWAP2 ADD SLOAD DUP1 DUP4 MSTORE PUSH1 0x2B DUP16 ADD SWAP1 SWAP2 MSTORE PUSH1 0x40 SWAP1 SWAP2 KECCAK256 SLOAD SWAP1 SWAP2 POP PUSH2 0x23F3 DUP2 DUP6 PUSH2 0x2CE6 JUMP JUMPDEST SWAP4 POP DUP4 DUP6 GT PUSH2 0x240A JUMPI POP SWAP6 POP PUSH2 0x247A SWAP5 POP POP POP POP POP JUMP JUMPDEST POP POP DUP1 PUSH2 0x2416 SWAP1 PUSH2 0x2CB4 JUMP JUMPDEST SWAP1 POP PUSH2 0x2393 JUMP JUMPDEST POP PUSH1 0x40 MLOAD PUSH3 0x461BCD PUSH1 0xE5 SHL DUP2 MSTORE PUSH1 0x20 PUSH1 0x4 DUP3 ADD MSTORE PUSH1 0x2B PUSH1 0x24 DUP3 ADD MSTORE PUSH32 0x4861746368696E6746616365743A204661696C65642067657474696E6720524E PUSH1 0x44 DUP3 ADD MSTORE PUSH11 0x4720626F64797061727473 PUSH1 0xA8 SHL PUSH1 0x64 DUP3 ADD MSTORE PUSH1 0x84 ADD PUSH2 0x469 JUMP JUMPDEST SWAP6 SWAP5 POP POP POP POP POP JUMP JUMPDEST PUSH1 0x0 DUP4 DUP2 MSTORE PUSH1 0x21 DUP6 ADD PUSH1 0x20 SWAP1 DUP2 MSTORE PUSH1 0x40 DUP1 DUP4 KECCAK256 SLOAD PUSH1 0x22 DUP9 ADD SWAP1 SWAP3 MSTORE DUP3 KECCAK256 SLOAD DUP3 SWAP1 PUSH2 0x24AE SWAP1 DUP7 DUP7 PUSH2 0x220E JUMP JUMPDEST PUSH2 0x24B9 SWAP1 PUSH1 0x1 PUSH2 0x2CE6 JUMP JUMPDEST SWAP1 POP PUSH1 0x0 DUP1 JUMPDEST DUP4 DUP2 LT ISZERO PUSH2 0x253D JUMPI PUSH1 0x0 DUP9 DUP2 MSTORE PUSH1 0x21 DUP11 ADD PUSH1 0x20 MSTORE PUSH1 0x40 DUP2 KECCAK256 DUP1 SLOAD DUP4 SWAP1 DUP2 LT PUSH2 0x24E9 JUMPI PUSH2 0x24E9 PUSH2 0x2C88 JUMP JUMPDEST SWAP1 PUSH1 0x0 MSTORE PUSH1 0x20 PUSH1 0x0 KECCAK256 ADD SLOAD SWAP1 POP DUP10 PUSH1 0x23 ADD PUSH1 0x0 DUP3 DUP2 MSTORE PUSH1 0x20 ADD SWAP1 DUP2 MSTORE PUSH1 0x20 ADD PUSH1 0x0 KECCAK256 SLOAD DUP4 PUSH2 0x2517 SWAP2 SWAP1 PUSH2 0x2CE6 JUMP JUMPDEST SWAP3 POP DUP3 DUP5 GT PUSH2 0x252C JUMPI SWAP5 POP PUSH2 0xC63 SWAP4 POP POP POP POP JUMP JUMPDEST POP PUSH2 0x2536 DUP2 PUSH2 0x2CB4 JUMP JUMPDEST SWAP1 POP PUSH2 0x24BF JUMP JUMPDEST POP PUSH1 0x40 MLOAD PUSH3 0x461BCD PUSH1 0xE5 SHL DUP2 MSTORE PUSH1 0x20 PUSH1 0x4 DUP3 ADD MSTORE PUSH1 0x26 PUSH1 0x24 DUP3 ADD MSTORE PUSH32 0x4861746368696E6746616365743A204661696C65642067657474696E6720524E PUSH1 0x44 DUP3 ADD MSTORE PUSH6 0x472067656E65 PUSH1 0xD0 SHL PUSH1 0x64 DUP3 ADD MSTORE PUSH1 0x84 ADD PUSH2 0x469 JUMP JUMPDEST PUSH1 0x0 PUSH2 0x360 DUP3 PUSH1 0xFF PUSH1 0x35 SHL PUSH2 0x2887 JUMP JUMPDEST PUSH1 0x0 PUSH2 0x1E87 DUP4 DUP4 PUSH1 0xFF PUSH1 0x35 SHL PUSH2 0x2825 JUMP JUMPDEST PUSH1 0x0 PUSH2 0x360 DUP3 PUSH1 0xFF PUSH1 0x3D SHL PUSH2 0x2887 JUMP JUMPDEST PUSH1 0x0 PUSH2 0x1E87 DUP4 DUP4 PUSH1 0xFF PUSH1 0x3D SHL PUSH2 0x2825 JUMP JUMPDEST PUSH1 0x0 PUSH2 0x360 DUP3 PUSH1 0xFF PUSH1 0x45 SHL PUSH2 0x2887 JUMP JUMPDEST PUSH1 0x0 PUSH2 0x1E87 DUP4 DUP4 PUSH1 0xFF PUSH1 0x45 SHL PUSH2 0x2825 JUMP JUMPDEST PUSH1 0x0 PUSH2 0x360 DUP3 PUSH1 0xFF PUSH1 0x4D SHL PUSH2 0x2887 JUMP JUMPDEST PUSH1 0x0 PUSH2 0x1E87 DUP4 DUP4 PUSH1 0xFF PUSH1 0x4D SHL PUSH2 0x2825 JUMP JUMPDEST PUSH1 0x0 PUSH2 0x360 DUP3 PUSH1 0xFF PUSH1 0x55 SHL PUSH2 0x2887 JUMP JUMPDEST PUSH1 0x0 PUSH2 0x1E87 DUP4 DUP4 PUSH1 0xFF PUSH1 0x55 SHL PUSH2 0x2825 JUMP JUMPDEST PUSH1 0x0 PUSH2 0x360 DUP3 PUSH1 0xFF PUSH1 0x5D SHL PUSH2 0x2887 JUMP JUMPDEST PUSH1 0x0 PUSH2 0x1E87 DUP4 DUP4 PUSH1 0xFF PUSH1 0x5D SHL PUSH2 0x2825 JUMP JUMPDEST PUSH1 0x0 PUSH2 0x360 DUP3 PUSH1 0xFF PUSH1 0x65 SHL PUSH2 0x2887 JUMP JUMPDEST PUSH1 0x0 PUSH2 0x1E87 DUP4 DUP4 PUSH1 0xFF PUSH1 0x65 SHL PUSH2 0x2825 JUMP JUMPDEST PUSH1 0x0 PUSH2 0x360 DUP3 PUSH1 0xFF PUSH1 0x6D SHL PUSH2 0x2887 JUMP JUMPDEST PUSH1 0x0 PUSH2 0x1E87 DUP4 DUP4 PUSH1 0xFF PUSH1 0x6D SHL PUSH2 0x2825 JUMP JUMPDEST PUSH1 0x0 PUSH2 0x360 DUP3 PUSH1 0xFF PUSH1 0x75 SHL PUSH2 0x2887 JUMP JUMPDEST PUSH1 0x0 PUSH2 0x1E87 DUP4 DUP4 PUSH1 0xFF PUSH1 0x75 SHL PUSH2 0x2825 JUMP JUMPDEST PUSH1 0x0 PUSH2 0x360 DUP3 PUSH1 0xFF PUSH1 0x7D SHL PUSH2 0x2887 JUMP JUMPDEST PUSH1 0x0 PUSH2 0x1E87 DUP4 DUP4 PUSH1 0xFF PUSH1 0x7D SHL PUSH2 0x2825 JUMP JUMPDEST PUSH1 0x0 PUSH2 0x360 DUP3 PUSH1 0xFF PUSH1 0x85 SHL PUSH2 0x2887 JUMP JUMPDEST PUSH1 0x0 PUSH2 0x1E87 DUP4 DUP4 PUSH1 0xFF PUSH1 0x85 SHL PUSH2 0x2825 JUMP JUMPDEST PUSH1 0x0 PUSH2 0x360 DUP3 PUSH1 0xFF PUSH1 0x8D SHL PUSH2 0x2887 JUMP JUMPDEST PUSH1 0x0 PUSH2 0x1E87 DUP4 DUP4 PUSH1 0xFF PUSH1 0x8D SHL PUSH2 0x2825 JUMP JUMPDEST PUSH1 0x0 PUSH2 0x360 DUP3 PUSH1 0xFF PUSH1 0x95 SHL PUSH2 0x2887 JUMP JUMPDEST PUSH1 0x0 PUSH2 0x1E87 DUP4 DUP4 PUSH1 0xFF PUSH1 0x95 SHL PUSH2 0x2825 JUMP JUMPDEST PUSH1 0x0 PUSH2 0x360 DUP3 PUSH1 0xFF PUSH1 0x9D SHL PUSH2 0x2887 JUMP JUMPDEST PUSH1 0x0 PUSH2 0x1E87 DUP4 DUP4 PUSH1 0xFF PUSH1 0x9D SHL PUSH2 0x2825 JUMP JUMPDEST PUSH1 0x0 PUSH2 0x360 DUP3 PUSH1 0xFF PUSH1 0xA5 SHL PUSH2 0x2887 JUMP JUMPDEST PUSH1 0x0 PUSH2 0x1E87 DUP4 DUP4 PUSH1 0xFF PUSH1 0xA5 SHL PUSH2 0x2825 JUMP JUMPDEST PUSH1 0x0 PUSH2 0x360 DUP3 PUSH1 0xFF PUSH1 0xAD SHL PUSH2 0x2887 JUMP JUMPDEST PUSH1 0x0 PUSH2 0x1E87 DUP4 DUP4 PUSH1 0xFF PUSH1 0xAD SHL PUSH2 0x2825 JUMP JUMPDEST PUSH1 0x0 PUSH2 0x360 DUP3 PUSH1 0xFF PUSH1 0xB5 SHL PUSH2 0x2887 JUMP JUMPDEST PUSH1 0x0 PUSH2 0x1E87 DUP4 DUP4 PUSH1 0xFF PUSH1 0xB5 SHL PUSH2 0x2825 JUMP JUMPDEST PUSH1 0x0 PUSH2 0x360 DUP3 PUSH1 0xFF PUSH1 0xBD SHL PUSH2 0x2887 JUMP JUMPDEST PUSH1 0x0 PUSH2 0x1E87 DUP4 DUP4 PUSH1 0xFF PUSH1 0xBD SHL PUSH2 0x2825 JUMP JUMPDEST PUSH1 0x0 PUSH2 0x360 DUP3 PUSH1 0xFF PUSH1 0xC5 SHL PUSH2 0x2887 JUMP JUMPDEST PUSH1 0x0 PUSH2 0x1E87 DUP4 DUP4 PUSH1 0xFF PUSH1 0xC5 SHL PUSH2 0x2825 JUMP JUMPDEST PUSH1 0x0 PUSH2 0x360 DUP3 PUSH1 0xFF PUSH1 0xCD SHL PUSH2 0x2887 JUMP JUMPDEST PUSH1 0x0 PUSH2 0x1E87 DUP4 DUP4 PUSH1 0xFF PUSH1 0xCD SHL JUMPDEST PUSH1 0x0 DUP1 PUSH2 0x2831 DUP4 PUSH2 0x28A0 JUMP JUMPDEST PUSH1 0x0 NOT DUP5 XOR DUP7 AND SWAP1 DUP6 SWAP1 SHL DUP5 AND OR SWAP2 POP POP SWAP4 SWAP3 POP POP POP JUMP JUMPDEST PUSH1 0x0 PUSH2 0xC63 DUP5 DUP5 PUSH2 0x285B JUMPI PUSH1 0x0 PUSH2 0x285E JUMP JUMPDEST PUSH1 0x1 JUMPDEST PUSH1 0xFF AND DUP5 PUSH2 0x2825 JUMP JUMPDEST PUSH1 0x0 DUP1 PUSH2 0x2872 PUSH2 0xAD1 JUMP JUMPDEST PUSH1 0x0 SWAP4 DUP5 MSTORE PUSH1 0x19 ADD PUSH1 0x20 MSTORE POP POP PUSH1 0x40 SWAP1 KECCAK256 SLOAD SWAP1 JUMP JUMPDEST PUSH1 0x0 DUP1 PUSH2 0x2893 DUP4 PUSH2 0x28A0 JUMP JUMPDEST SWAP3 SWAP1 SWAP4 AND SWAP1 SWAP2 SHR SWAP3 SWAP2 POP POP JUMP JUMPDEST PUSH1 0x0 DUP1 JUMPDEST PUSH1 0x1 DUP4 AND PUSH2 0x360 JUMPI PUSH1 0x1 SWAP3 SWAP1 SWAP3 SHR SWAP2 PUSH2 0x28BC DUP2 PUSH2 0x2CB4 JUMP JUMPDEST SWAP1 POP PUSH2 0x28A4 JUMP JUMPDEST PUSH1 0x1 PUSH1 0x1 PUSH1 0xE0 SHL SUB NOT DUP2 AND DUP2 EQ PUSH2 0x28D9 JUMPI PUSH1 0x0 DUP1 REVERT JUMPDEST POP JUMP JUMPDEST PUSH1 0x0 PUSH1 0x20 DUP3 DUP5 SUB SLT ISZERO PUSH2 0x28EE JUMPI PUSH1 0x0 DUP1 REVERT JUMPDEST DUP2 CALLDATALOAD PUSH2 0x1E87 DUP2 PUSH2 0x28C3 JUMP JUMPDEST PUSH1 0x0 DUP2 MLOAD DUP1 DUP5 MSTORE PUSH1 0x0 JUMPDEST DUP2 DUP2 LT ISZERO PUSH2 0x291F JUMPI PUSH1 0x20 DUP2 DUP6 ADD DUP2 ADD MLOAD DUP7 DUP4 ADD DUP3 ADD MSTORE ADD PUSH2 0x2903 JUMP JUMPDEST DUP2 DUP2 GT ISZERO PUSH2 0x2931 JUMPI PUSH1 0x0 PUSH1 0x20 DUP4 DUP8 ADD ADD MSTORE JUMPDEST POP PUSH1 0x1F ADD PUSH1 0x1F NOT AND SWAP3 SWAP1 SWAP3 ADD PUSH1 0x20 ADD SWAP3 SWAP2 POP POP JUMP JUMPDEST PUSH1 0x20 DUP2 MSTORE PUSH1 0x0 PUSH2 0x1E87 PUSH1 0x20 DUP4 ADD DUP5 PUSH2 0x28F9 JUMP JUMPDEST PUSH1 0x0 PUSH1 0x20 DUP3 DUP5 SUB SLT ISZERO PUSH2 0x296B JUMPI PUSH1 0x0 DUP1 REVERT JUMPDEST POP CALLDATALOAD SWAP2 SWAP1 POP JUMP JUMPDEST DUP1 CALLDATALOAD PUSH1 0x1 PUSH1 0x1 PUSH1 0xA0 SHL SUB DUP2 AND DUP2 EQ PUSH2 0x2989 JUMPI PUSH1 0x0 DUP1 REVERT JUMPDEST SWAP2 SWAP1 POP JUMP JUMPDEST PUSH1 0x0 DUP1 PUSH1 0x40 DUP4 DUP6 SUB SLT ISZERO PUSH2 0x29A1 JUMPI PUSH1 0x0 DUP1 REVERT JUMPDEST PUSH2 0x29AA DUP4 PUSH2 0x2972 JUMP JUMPDEST SWAP5 PUSH1 0x20 SWAP4 SWAP1 SWAP4 ADD CALLDATALOAD SWAP4 POP POP POP JUMP JUMPDEST PUSH1 0x0 DUP1 PUSH1 0x0 PUSH1 0x60 DUP5 DUP7 SUB SLT ISZERO PUSH2 0x29CD JUMPI PUSH1 0x0 DUP1 REVERT JUMPDEST PUSH2 0x29D6 DUP5 PUSH2 0x2972 JUMP JUMPDEST SWAP3 POP PUSH2 0x29E4 PUSH1 0x20 DUP6 ADD PUSH2 0x2972 JUMP JUMPDEST SWAP2 POP PUSH1 0x40 DUP5 ADD CALLDATALOAD SWAP1 POP SWAP3 POP SWAP3 POP SWAP3 JUMP JUMPDEST PUSH1 0x0 PUSH1 0x20 DUP3 DUP5 SUB SLT ISZERO PUSH2 0x2A06 JUMPI PUSH1 0x0 DUP1 REVERT JUMPDEST PUSH2 0x1E87 DUP3 PUSH2 0x2972 JUMP JUMPDEST PUSH1 0x0 DUP1 PUSH1 0x40 DUP4 DUP6 SUB SLT ISZERO PUSH2 0x2A22 JUMPI PUSH1 0x0 DUP1 REVERT JUMPDEST PUSH2 0x2A2B DUP4 PUSH2 0x2972 JUMP JUMPDEST SWAP2 POP PUSH1 0x20 DUP4 ADD CALLDATALOAD DUP1 ISZERO ISZERO DUP2 EQ PUSH2 0x2A40 JUMPI PUSH1 0x0 DUP1 REVERT JUMPDEST DUP1 SWAP2 POP POP SWAP3 POP SWAP3 SWAP1 POP JUMP JUMPDEST PUSH4 0x4E487B71 PUSH1 0xE0 SHL PUSH1 0x0 MSTORE PUSH1 0x41 PUSH1 0x4 MSTORE PUSH1 0x24 PUSH1 0x0 REVERT JUMPDEST PUSH1 0x0 DUP1 PUSH1 0x0 DUP1 PUSH1 0x80 DUP6 DUP8 SUB SLT ISZERO PUSH2 0x2A77 JUMPI PUSH1 0x0 DUP1 REVERT JUMPDEST PUSH2 0x2A80 DUP6 PUSH2 0x2972 JUMP JUMPDEST SWAP4 POP PUSH2 0x2A8E PUSH1 0x20 DUP7 ADD PUSH2 0x2972 JUMP JUMPDEST SWAP3 POP PUSH1 0x40 DUP6 ADD CALLDATALOAD SWAP2 POP PUSH1 0x60 DUP6 ADD CALLDATALOAD PUSH8 0xFFFFFFFFFFFFFFFF DUP1 DUP3 GT ISZERO PUSH2 0x2AB2 JUMPI PUSH1 0x0 DUP1 REVERT JUMPDEST DUP2 DUP8 ADD SWAP2 POP DUP8 PUSH1 0x1F DUP4 ADD SLT PUSH2 0x2AC6 JUMPI PUSH1 0x0 DUP1 REVERT JUMPDEST DUP2 CALLDATALOAD DUP2 DUP2 GT ISZERO PUSH2 0x2AD8 JUMPI PUSH2 0x2AD8 PUSH2 0x2A4B JUMP JUMPDEST PUSH1 0x40 MLOAD PUSH1 0x1F DUP3 ADD PUSH1 0x1F NOT SWAP1 DUP2 AND PUSH1 0x3F ADD AND DUP2 ADD SWAP1 DUP4 DUP3 GT DUP2 DUP4 LT OR ISZERO PUSH2 0x2B00 JUMPI PUSH2 0x2B00 PUSH2 0x2A4B JUMP JUMPDEST DUP2 PUSH1 0x40 MSTORE DUP3 DUP2 MSTORE DUP11 PUSH1 0x20 DUP5 DUP8 ADD ADD GT ISZERO PUSH2 0x2B19 JUMPI PUSH1 0x0 DUP1 REVERT JUMPDEST DUP3 PUSH1 0x20 DUP7 ADD PUSH1 0x20 DUP4 ADD CALLDATACOPY PUSH1 0x0 PUSH1 0x20 DUP5 DUP4 ADD ADD MSTORE DUP1 SWAP6 POP POP POP POP POP POP SWAP3 SWAP6 SWAP2 SWAP5 POP SWAP3 POP JUMP JUMPDEST PUSH1 0x0 DUP1 PUSH1 0x40 DUP4 DUP6 SUB SLT ISZERO PUSH2 0x2B50 JUMPI PUSH1 0x0 DUP1 REVERT JUMPDEST PUSH2 0x2B59 DUP4 PUSH2 0x2972 JUMP JUMPDEST SWAP2 POP PUSH2 0x2B67 PUSH1 0x20 DUP5 ADD PUSH2 0x2972 JUMP JUMPDEST SWAP1 POP SWAP3 POP SWAP3 SWAP1 POP JUMP JUMPDEST PUSH1 0x0 DUP1 PUSH1 0x0 PUSH1 0x40 DUP5 DUP7 SUB SLT ISZERO PUSH2 0x2B85 JUMPI PUSH1 0x0 DUP1 REVERT JUMPDEST DUP4 CALLDATALOAD PUSH8 0xFFFFFFFFFFFFFFFF DUP1 DUP3 GT ISZERO PUSH2 0x2B9D JUMPI PUSH1 0x0 DUP1 REVERT JUMPDEST DUP2 DUP7 ADD SWAP2 POP DUP7 PUSH1 0x1F DUP4 ADD SLT PUSH2 0x2BB1 JUMPI PUSH1 0x0 DUP1 REVERT JUMPDEST DUP2 CALLDATALOAD DUP2 DUP2 GT ISZERO PUSH2 0x2BC0 JUMPI PUSH1 0x0 DUP1 REVERT JUMPDEST DUP8 PUSH1 0x20 DUP3 PUSH1 0x5 SHL DUP6 ADD ADD GT ISZERO PUSH2 0x2BD5 JUMPI PUSH1 0x0 DUP1 REVERT JUMPDEST PUSH1 0x20 SWAP3 DUP4 ADD SWAP6 POP SWAP4 POP POP DUP5 ADD CALLDATALOAD PUSH1 0xFF DUP2 AND DUP2 EQ PUSH2 0x2BF1 JUMPI PUSH1 0x0 DUP1 REVERT JUMPDEST DUP1 SWAP2 POP POP SWAP3 POP SWAP3 POP SWAP3 JUMP JUMPDEST PUSH1 0x1 DUP2 DUP2 SHR SWAP1 DUP3 AND DUP1 PUSH2 0x2C10 JUMPI PUSH1 0x7F DUP3 AND SWAP2 POP JUMPDEST PUSH1 0x20 DUP3 LT DUP2 EQ ISZERO PUSH2 0x2C31 JUMPI PUSH4 0x4E487B71 PUSH1 0xE0 SHL PUSH1 0x0 MSTORE PUSH1 0x22 PUSH1 0x4 MSTORE PUSH1 0x24 PUSH1 0x0 REVERT JUMPDEST POP SWAP2 SWAP1 POP JUMP JUMPDEST PUSH1 0x20 DUP1 DUP3 MSTORE PUSH1 0x31 SWAP1 DUP3 ADD MSTORE PUSH32 0x4552433732313A207472616E736665722063616C6C6572206973206E6F74206F PUSH1 0x40 DUP3 ADD MSTORE PUSH17 0x1DDB995C881B9BDC88185C1C1C9BDD9959 PUSH1 0x7A SHL PUSH1 0x60 DUP3 ADD MSTORE PUSH1 0x80 ADD SWAP1 JUMP JUMPDEST PUSH4 0x4E487B71 PUSH1 0xE0 SHL PUSH1 0x0 MSTORE PUSH1 0x32 PUSH1 0x4 MSTORE PUSH1 0x24 PUSH1 0x0 REVERT JUMPDEST PUSH4 0x4E487B71 PUSH1 0xE0 SHL PUSH1 0x0 MSTORE PUSH1 0x11 PUSH1 0x4 MSTORE PUSH1 0x24 PUSH1 0x0 REVERT JUMPDEST PUSH1 0x0 PUSH1 0x0 NOT DUP3 EQ ISZERO PUSH2 0x2CC8 JUMPI PUSH2 0x2CC8 PUSH2 0x2C9E JUMP JUMPDEST POP PUSH1 0x1 ADD SWAP1 JUMP JUMPDEST PUSH1 0x0 DUP3 DUP3 LT ISZERO PUSH2 0x2CE1 JUMPI PUSH2 0x2CE1 PUSH2 0x2C9E JUMP JUMPDEST POP SUB SWAP1 JUMP JUMPDEST PUSH1 0x0 DUP3 NOT DUP3 GT ISZERO PUSH2 0x2CF9 JUMPI PUSH2 0x2CF9 PUSH2 0x2C9E JUMP JUMPDEST POP ADD SWAP1 JUMP JUMPDEST PUSH1 0x20 DUP1 DUP3 MSTORE PUSH1 0x32 SWAP1 DUP3 ADD MSTORE PUSH32 0x4552433732313A207472616E7366657220746F206E6F6E204552433732315265 PUSH1 0x40 DUP3 ADD MSTORE PUSH18 0x31B2B4BB32B91034B6B83632B6B2B73A32B9 PUSH1 0x71 SHL PUSH1 0x60 DUP3 ADD MSTORE PUSH1 0x80 ADD SWAP1 JUMP JUMPDEST PUSH1 0x1 PUSH1 0x1 PUSH1 0xA0 SHL SUB DUP6 DUP2 AND DUP3 MSTORE DUP5 AND PUSH1 0x20 DUP3 ADD MSTORE PUSH1 0x40 DUP2 ADD DUP4 SWAP1 MSTORE PUSH1 0x80 PUSH1 0x60 DUP3 ADD DUP2 SWAP1 MSTORE PUSH1 0x0 SWAP1 PUSH2 0x2D83 SWAP1 DUP4 ADD DUP5 PUSH2 0x28F9 JUMP JUMPDEST SWAP7 SWAP6 POP POP POP POP POP POP JUMP JUMPDEST PUSH1 0x0 PUSH1 0x20 DUP3 DUP5 SUB SLT ISZERO PUSH2 0x2D9F JUMPI PUSH1 0x0 DUP1 REVERT JUMPDEST DUP2 MLOAD PUSH2 0x1E87 DUP2 PUSH2 0x28C3 JUMP JUMPDEST PUSH4 0x4E487B71 PUSH1 0xE0 SHL PUSH1 0x0 MSTORE PUSH1 0x31 PUSH1 0x4 MSTORE PUSH1 0x24 PUSH1 0x0 REVERT JUMPDEST PUSH1 0x0 DUP3 PUSH2 0x2DDD JUMPI PUSH4 0x4E487B71 PUSH1 0xE0 SHL PUSH1 0x0 MSTORE PUSH1 0x12 PUSH1 0x4 MSTORE PUSH1 0x24 PUSH1 0x0 REVERT JUMPDEST POP MOD SWAP1 JUMP INVALID LOG2 PUSH5 0x6970667358 0x22 SLT KECCAK256 0x5D 0xC9 SWAP10 0xC6 SWAP11 0xA5 EXTCODESIZE EXP REVERT 0xF6 0xB7 SHL 0xB6 DUP2 INVALID STOP CALLCODE 0xCD 0xD1 PUSH5 0x17E9C4EC8D PUSH22 0x7EEB740AF96864736F6C634300080900330000000000 ",
  "sha1": "9f3367850b264ba34870c814a67dfac788fcbec7",
  "source": "// SPDX-License-Identifier: UNLICENSED\npragma solidity ^0.8.0;\nimport \"@openzeppelin-contracts/contracts/token/ERC721/IERC721.sol\";\nimport \"@openzeppelin-contracts/contracts/token/ERC721/IERC721Receiver.sol\";\nimport \"@openzeppelin-contracts/contracts/token/ERC721/extensions/IERC721Metadata.sol\";\nimport \"@openzeppelin-contracts/contracts/token/ERC721/extensions/IERC721Enumerable.sol\";\nimport \"@openzeppelin-contracts/contracts/utils/Address.sol\";\nimport \"@openzeppelin-contracts/contracts/utils/Context.sol\";\nimport \"@openzeppelin-contracts/contracts/utils/Strings.sol\";\nimport \"@openzeppelin-contracts/contracts/utils/introspection/ERC165.sol\";\n\nimport {LibDiamond} from \"../../libraries/LibDiamond.sol\";\nimport {LibUnicornDNA} from \"../../libraries/LibUnicornDNA.sol\";\n\ncontract ERC721WithDiamondStorage is\n    Context,\n    ERC165,\n    IERC721,\n    IERC721Metadata,\n    IERC721Enumerable\n{\n    using Address for address;\n    using Strings for uint256;\n\n    /**\n     * @dev See {IERC165-supportsInterface}.\n     */\n    function supportsInterface(bytes4 interfaceId)\n        public\n        view\n        virtual\n        override(ERC165, IERC165)\n        returns (bool)\n    {\n        return\n            interfaceId == type(IERC721).interfaceId ||\n            interfaceId == type(IERC721Metadata).interfaceId ||\n            interfaceId == type(IERC721Enumerable).interfaceId ||\n            super.supportsInterface(interfaceId);\n    }\n\n    /**\n     * @dev See {IERC721-balanceOf}.\n     */\n    function balanceOf(address owner)\n        public\n        view\n        virtual\n        override\n        returns (uint256)\n    {\n        require(\n            owner != address(0),\n            \"ERC721: balance query for the zero address\"\n        );\n        return LibDiamond.diamondStorage().erc721_balances[owner];\n    }\n\n    /**\n     * @dev See {IERC721-ownerOf}.\n     */\n    function ownerOf(uint256 tokenId)\n        public\n        view\n        virtual\n        override\n        returns (address)\n    {\n        address owner = LibDiamond.diamondStorage().erc721_owners[tokenId];\n        require(\n            owner != address(0),\n            \"ERC721: owner query for nonexistent token\"\n        );\n        return owner;\n    }\n\n    /**\n     * @dev See {IERC721Metadata-name}.\n     */\n    function name() public view virtual override returns (string memory) {\n        return LibDiamond.diamondStorage().erc721_name;\n    }\n\n    /**\n     * @dev See {IERC721Metadata-symbol}.\n     */\n    function symbol() public view virtual override returns (string memory) {\n        return LibDiamond.diamondStorage().erc721_symbol;\n    }\n\n    /**\n     * @dev See {IERC721Metadata-symbol}.\n     * @dev See https://docs.opensea.io/docs/contract-level-metadata\n     */\n    function contractURI() public view returns (string memory) {\n        return LibDiamond.diamondStorage().erc721_contractURI;\n    }\n\n    /**\n     * @dev Reference URI for the NFT license file hosted on Arweave permaweb.\n     */\n    function license() public view returns (string memory) {\n        return LibDiamond.diamondStorage().erc721_licenseURI;\n    }\n\n    /**\n     * @dev Timestamp (in seconds) when the genesis egg presale activates.\n     */\n    function presaleUnlockTime() public view returns (uint256) {\n        return LibDiamond.diamondStorage().erc721_genesisEggPresaleUnlockTime;\n    }\n\n    /**\n     * @dev Timestamp (in seconds) when the genesis eggs can be hatched.\n     */\n    function presaleHatchingUnlockTime() public view returns (uint256) {\n        return LibDiamond.diamondStorage().erc721_genesisEggHatchUnlockTime;\n    }\n\n    /**\n     * @dev Maximum genesis eggs that can be minted. (note: ids starts at 1)\n     */\n    function genesisEggsMax() public view returns (uint256) {\n        return LibDiamond.ERC721_GENESIS_TOKENS;\n    }\n\n    /**\n     * @dev See {IERC721Metadata-tokenURI}.\n     */\n    function tokenURI(uint256 tokenId)\n        public\n        view\n        virtual\n        override\n        returns (string memory)\n    {\n        require(\n            _exists(tokenId),\n            \"ERC721Metadata: URI query for nonexistent token\"\n        );\n        string memory _tokenURI = LibDiamond.diamondStorage().erc721_tokenURIs[\n            tokenId\n        ];\n        return _tokenURI;\n    }\n\n    function _setTokenURI(uint256 tokenId, string memory _tokenURI)\n        internal\n        virtual\n    {\n        require(\n            _exists(tokenId),\n            \"ERC721Metadata: _setTokenURI for nonexistent token\"\n        );\n        LibDiamond.DiamondStorage storage ds = LibDiamond.diamondStorage();\n        ds.erc721_tokenURIs[tokenId] = _tokenURI;\n    }\n\n    /**\n     * @dev See {IERC721-approve}.\n     */\n    function approve(address to, uint256 tokenId) public virtual override {\n        address owner = ERC721WithDiamondStorage.ownerOf(tokenId);\n        require(to != owner, \"ERC721: approval to current owner\");\n\n        require(\n            _msgSender() == owner || isApprovedForAll(owner, _msgSender()),\n            \"ERC721: approve caller is not owner nor approved for all\"\n        );\n\n        _approve(to, tokenId);\n    }\n\n    /**\n     * @dev See {IERC721-getApproved}.\n     */\n    function getApproved(uint256 tokenId)\n        public\n        view\n        virtual\n        override\n        returns (address)\n    {\n        require(\n            _exists(tokenId),\n            \"ERC721: approved query for nonexistent token\"\n        );\n\n        return LibDiamond.diamondStorage().erc721_tokenApprovals[tokenId];\n    }\n\n    /**\n     * @dev See {IERC721-setApprovalForAll}.\n     */\n    function setApprovalForAll(address operator, bool approved)\n        public\n        virtual\n        override\n    {\n        _setApprovalForAll(_msgSender(), operator, approved);\n    }\n\n    /**\n     * @dev See {IERC721-isApprovedForAll}.\n     */\n    function isApprovedForAll(address owner, address operator)\n        public\n        view\n        virtual\n        override\n        returns (bool)\n    {\n        return\n            LibDiamond.diamondStorage().erc721_operatorApprovals[owner][\n                operator\n            ];\n    }\n\n    /**\n     * @dev See {IERC721-transferFrom}.\n     */\n    function transferFrom(\n        address from,\n        address to,\n        uint256 tokenId\n    ) public virtual override {\n        require(\n            _isApprovedOrOwner(_msgSender(), tokenId),\n            \"ERC721: transfer caller is not owner nor approved\"\n        );\n\n        _transfer(from, to, tokenId);\n    }\n\n    /**\n     * @dev See {IERC721-safeTransferFrom}.\n     */\n    function safeTransferFrom(\n        address from,\n        address to,\n        uint256 tokenId\n    ) public virtual override {\n        safeTransferFrom(from, to, tokenId, \"\");\n    }\n\n    /**\n     * @dev See {IERC721-safeTransferFrom}.\n     */\n    function safeTransferFrom(\n        address from,\n        address to,\n        uint256 tokenId,\n        bytes memory _data\n    ) public virtual override {\n        require(\n            _isApprovedOrOwner(_msgSender(), tokenId),\n            \"ERC721: transfer caller is not owner nor approved\"\n        );\n        _safeTransfer(from, to, tokenId, _data);\n    }\n\n    /**\n     * @dev Safely transfers `tokenId` token from `from` to `to`, checking first that contract recipients\n     * are aware of the ERC721 protocol to prevent tokens from being forever locked.\n     *\n     * `_data` is additional data, it has no specified format and it is sent in call to `to`.\n     *\n     * This internal function is equivalent to {safeTransferFrom}, and can be used to e.g.\n     * implement alternative mechanisms to perform token transfer, such as signature-based.\n     *\n     * Requirements:\n     *\n     * - `from` cannot be the zero address.\n     * - `to` cannot be the zero address.\n     * - `tokenId` token must exist and be owned by `from`.\n     * - If `to` refers to a smart contract, it must implement {IERC721Receiver-onERC721Received}, which is called upon a safe transfer.\n     *\n     * Emits a {Transfer} event.\n     */\n    function _safeTransfer(\n        address from,\n        address to,\n        uint256 tokenId,\n        bytes memory _data\n    ) internal virtual {\n        _transfer(from, to, tokenId);\n        require(\n            _checkOnERC721Received(from, to, tokenId, _data),\n            \"ERC721: transfer to non ERC721Receiver implementer\"\n        );\n    }\n\n    /**\n     * @dev Returns whether `tokenId` exists.\n     *\n     * Tokens can be managed by their owner or approved accounts via {approve} or {setApprovalForAll}.\n     *\n     * Tokens start existing when they are minted (`_mint`),\n     * and stop existing when they are burned (`_burn`).\n     */\n    function _exists(uint256 tokenId) internal view virtual returns (bool) {\n        return LibDiamond.diamondStorage().erc721_owners[tokenId] != address(0);\n    }\n\n    /**\n     * @dev Returns whether `spender` is allowed to manage `tokenId`.\n     *\n     * Requirements:\n     *\n     * - `tokenId` must exist.\n     */\n    function _isApprovedOrOwner(address spender, uint256 tokenId)\n        internal\n        view\n        virtual\n        returns (bool)\n    {\n        require(\n            _exists(tokenId),\n            \"ERC721: operator query for nonexistent token\"\n        );\n        address owner = ERC721WithDiamondStorage.ownerOf(tokenId);\n        return (spender == owner ||\n            getApproved(tokenId) == spender ||\n            isApprovedForAll(owner, spender));\n    }\n\n    /**\n     * @dev Safely mints `tokenId` and transfers it to `to`.\n     *\n     * Requirements:\n     *\n     * - `tokenId` must not exist.\n     * - If `to` refers to a smart contract, it must implement {IERC721Receiver-onERC721Received}, which is called upon a safe transfer.\n     *\n     * Emits a {Transfer} event.\n     */\n    function _safeMint(address to, uint256 tokenId) internal virtual {\n        _safeMint(to, tokenId, \"\");\n    }\n\n    /**\n     * @dev Same as {xref-ERC721-_safeMint-address-uint256-}[`_safeMint`], with an additional `data` parameter which is\n     * forwarded in {IERC721Receiver-onERC721Received} to contract recipients.\n     */\n    function _safeMint(\n        address to,\n        uint256 tokenId,\n        bytes memory _data\n    ) internal virtual {\n        _mint(to, tokenId);\n        require(\n            _checkOnERC721Received(address(0), to, tokenId, _data),\n            \"ERC721: transfer to non ERC721Receiver implementer\"\n        );\n    }\n\n    /**\n     * @dev Mints `tokenId` and transfers it to `to`.\n     *\n     * WARNING: Usage of this method is discouraged, use {_safeMint} whenever possible\n     *\n     * Requirements:\n     *\n     * - `tokenId` must not exist.\n     * - `to` cannot be the zero address.\n     *\n     * Emits a {Transfer} event.\n     */\n    function _mint(address to, uint256 tokenId) internal virtual {\n        require(to != address(0), \"ERC721: mint to the zero address\");\n        require(!_exists(tokenId), \"ERC721: token already minted\");\n\n        _beforeTokenTransfer(address(0), to, tokenId);\n        LibDiamond.DiamondStorage storage ds = LibDiamond.diamondStorage();\n        ds.erc721_balances[to] += 1;\n        ds.erc721_owners[tokenId] = to;\n\n        emit Transfer(address(0), to, tokenId);\n    }\n\n    /**\n     * @dev Destroys `tokenId`.\n     * The approval is cleared when the token is burned.\n     *\n     * Requirements:\n     *\n     * - `tokenId` must exist.\n     *\n     * Emits a {Transfer} event.\n     */\n    function _burn(uint256 tokenId) internal virtual {\n        require(\n            LibUnicornDNA._unicornIsTransferrable(tokenId),\n            \"ERC721WithDiamondStorage: Cannot burn a Unicorn locked in game or cooling down from an unlock\"\n        );\n        address owner = ERC721WithDiamondStorage.ownerOf(tokenId);\n\n        _beforeTokenTransfer(owner, address(0), tokenId);\n\n        // Clear approvals\n        _approve(address(0), tokenId);\n        LibDiamond.DiamondStorage storage ds = LibDiamond.diamondStorage();\n        ds.erc721_balances[owner] -= 1;\n        delete ds.erc721_owners[tokenId];\n\n        if (bytes(ds.erc721_tokenURIs[tokenId]).length != 0) {\n            delete ds.erc721_tokenURIs[tokenId];\n        }\n\n        emit Transfer(owner, address(0), tokenId);\n    }\n\n    /**\n     * @dev Transfers `tokenId` from `from` to `to`.\n     *  As opposed to {transferFrom}, this imposes no restrictions on msg.sender.\n     *\n     * Requirements:\n     *\n     * - `to` cannot be the zero address.\n     * - `tokenId` token must be owned by `from`.\n     *\n     * Emits a {Transfer} event.\n     */\n    function _transfer(\n        address from,\n        address to,\n        uint256 tokenId\n    ) internal virtual {\n        require(\n            ERC721WithDiamondStorage.ownerOf(tokenId) == from,\n            \"ERC721: transfer of token that is not own\"\n        );\n        require(to != address(0), \"ERC721: transfer to the zero address\");\n        require(\n            LibUnicornDNA._unicornIsTransferrable(tokenId),\n            \"ERC721WithDiamondStorage: Cannot transfer a Unicorn locked in game or cooling down from unlock\"\n        );\n\n        _beforeTokenTransfer(from, to, tokenId);\n\n        // Clear approvals from the previous owner\n        _approve(address(0), tokenId);\n        LibDiamond.DiamondStorage storage ds = LibDiamond.diamondStorage();\n        ds.erc721_balances[from] -= 1;\n        ds.erc721_balances[to] += 1;\n        ds.erc721_owners[tokenId] = to;\n\n        emit Transfer(from, to, tokenId);\n    }\n\n    /**\n     * @dev Approve `to` to operate on `tokenId`\n     *\n     * Emits a {Approval} event.\n     */\n    function _approve(address to, uint256 tokenId) internal virtual {\n        LibDiamond.DiamondStorage storage ds = LibDiamond.diamondStorage();\n        ds.erc721_tokenApprovals[tokenId] = to;\n        emit Approval(ERC721WithDiamondStorage.ownerOf(tokenId), to, tokenId);\n    }\n\n    /**\n     * @dev Approve `operator` to operate on all of `owner` tokens\n     *\n     * Emits a {ApprovalForAll} event.\n     */\n    function _setApprovalForAll(\n        address owner,\n        address operator,\n        bool approved\n    ) internal virtual {\n        require(owner != operator, \"ERC721: approve to caller\");\n        LibDiamond.DiamondStorage storage ds = LibDiamond.diamondStorage();\n        ds.erc721_operatorApprovals[owner][operator] = approved;\n        emit ApprovalForAll(owner, operator, approved);\n    }\n\n    /**\n     * @dev Internal function to invoke {IERC721Receiver-onERC721Received} on a target address.\n     * The call is not executed if the target address is not a contract.\n     *\n     * @param from address representing the previous owner of the given token ID\n     * @param to target address that will receive the tokens\n     * @param tokenId uint256 ID of the token to be transferred\n     * @param _data bytes optional data to send along with the call\n     * @return bool whether the call correctly returned the expected magic value\n     */\n    function _checkOnERC721Received(\n        address from,\n        address to,\n        uint256 tokenId,\n        bytes memory _data\n    ) private returns (bool) {\n        if (to.isContract()) {\n            try\n                IERC721Receiver(to).onERC721Received(\n                    _msgSender(),\n                    from,\n                    tokenId,\n                    _data\n                )\n            returns (bytes4 retval) {\n                return retval == IERC721Receiver.onERC721Received.selector;\n            } catch (bytes memory reason) {\n                if (reason.length == 0) {\n                    revert(\n                        \"ERC721: transfer to non ERC721Receiver implementer\"\n                    );\n                } else {\n                    // solhint-disable-next-line no-inline-assembly\n                    assembly {\n                        revert(add(32, reason), mload(reason))\n                    }\n                }\n            }\n        } else {\n            return true;\n        }\n    }\n\n    /**\n     * The following methods add support for IERC721Enumerable.\n     */\n\n    /**\n     * @dev See {IERC721Enumerable-totalSupply}.\n     */\n    function totalSupply() public view virtual override returns (uint256) {\n        LibDiamond.DiamondStorage storage ds = LibDiamond.diamondStorage();\n        return ds.erc721_allTokens.length;\n    }\n\n    /**\n     * @dev See {IERC721Enumerable-tokenOfOwnerByIndex}.\n     */\n    function tokenOfOwnerByIndex(address owner, uint256 index)\n        public\n        view\n        virtual\n        override\n        returns (uint256)\n    {\n        LibDiamond.DiamondStorage storage ds = LibDiamond.diamondStorage();\n        require(\n            index < balanceOf(owner),\n            \"ERC721Enumerable: owner index out of bounds\"\n        );\n        return ds.erc721_ownedTokens[owner][index];\n    }\n\n    /**\n     * @dev See {IERC721Enumerable-tokenByIndex}.\n     */\n    function tokenByIndex(uint256 index)\n        public\n        view\n        virtual\n        override\n        returns (uint256)\n    {\n        LibDiamond.DiamondStorage storage ds = LibDiamond.diamondStorage();\n        require(\n            index < totalSupply(),\n            \"ERC721Enumerable: global index out of bounds\"\n        );\n        return ds.erc721_allTokens[index];\n    }\n\n    /**\n     * @dev Hook that is called before any token transfer. This includes minting\n     * and burning.\n     *\n     * Calling conditions:\n     *\n     * - When `from` and `to` are both non-zero, ``from``'s `tokenId` will be\n     * transferred to `to`.\n     * - When `from` is zero, `tokenId` will be minted for `to`.\n     * - When `to` is zero, ``from``'s `tokenId` will be burned.\n     * - `from` cannot be the zero address.\n     * - `to` cannot be the zero address.\n     *\n     * To learn more about hooks, head to xref:ROOT:extending-contracts.adoc#using-hooks[Using Hooks].\n     */\n    function _beforeTokenTransfer(\n        address from,\n        address to,\n        uint256 tokenId\n    ) internal virtual {\n        if (from == address(0)) {\n            _addTokenToAllTokensEnumeration(tokenId);\n        } else if (from != to) {\n            _removeTokenFromOwnerEnumeration(from, tokenId);\n        }\n        if (to == address(0)) {\n            _removeTokenFromAllTokensEnumeration(tokenId);\n        } else if (to != from) {\n            _addTokenToOwnerEnumeration(to, tokenId);\n        }\n    }\n\n    /**\n     * @dev Private function to add a token to this extension's ownership-tracking data structures.\n     * @param to address representing the new owner of the given token ID\n     * @param tokenId uint256 ID of the token to be added to the tokens list of the given address\n     */\n    function _addTokenToOwnerEnumeration(address to, uint256 tokenId) private {\n        LibDiamond.DiamondStorage storage ds = LibDiamond.diamondStorage();\n        uint256 length = balanceOf(to);\n        ds.erc721_ownedTokens[to][length] = tokenId;\n        ds.erc721_ownedTokensIndex[tokenId] = length;\n    }\n\n    /**\n     * @dev Private function to remove a token from this extension's ownership-tracking data structures. Note that\n     * while the token is not assigned a new owner, the `_ownedTokensIndex` mapping is _not_ updated: this allows for\n     * gas optimizations e.g. when performing a transfer operation (avoiding double writes).\n     * This has O(1) time complexity, but alters the order of the _ownedTokens array.\n     * @param from address representing the previous owner of the given token ID\n     * @param tokenId uint256 ID of the token to be removed from the tokens list of the given address\n     */\n    function _removeTokenFromOwnerEnumeration(address from, uint256 tokenId)\n        private\n    {\n        LibDiamond.DiamondStorage storage ds = LibDiamond.diamondStorage();\n\n        // To prevent a gap in from's tokens array, we store the last token in the index of the token to delete, and\n        // then delete the last slot (swap and pop).\n        uint256 lastTokenIndex = balanceOf(from) - 1;\n        uint256 tokenIndex = ds.erc721_ownedTokensIndex[tokenId];\n\n        // When the token to delete is the last token, the swap operation is unnecessary\n        if (tokenIndex != lastTokenIndex) {\n            uint256 lastTokenId = ds.erc721_ownedTokens[from][lastTokenIndex];\n\n            ds.erc721_ownedTokens[from][tokenIndex] = lastTokenId; // Move the last token to the slot of the to-delete token\n            ds.erc721_ownedTokensIndex[lastTokenId] = tokenIndex; // Update the moved token's index\n        }\n\n        // This also deletes the contents at the last position of the array\n        delete ds.erc721_ownedTokensIndex[tokenId];\n        delete ds.erc721_ownedTokens[from][lastTokenIndex];\n    }\n\n    /**\n     * @dev Private function to add a token to this extension's token tracking data structures.\n     * @param tokenId uint256 ID of the token to be added to the tokens list\n     */\n    function _addTokenToAllTokensEnumeration(uint256 tokenId) private {\n        LibDiamond.DiamondStorage storage ds = LibDiamond.diamondStorage();\n\n        ds.erc721_allTokensIndex[tokenId] = ds.erc721_allTokens.length;\n        ds.erc721_allTokens.push(tokenId);\n    }\n\n    /**\n     * @dev Private function to remove a token from this extension's token tracking data structures.\n     * This has O(1) time complexity, but alters the order of the _allTokens array.\n     * @param tokenId uint256 ID of the token to be removed from the tokens list\n     */\n    function _removeTokenFromAllTokensEnumeration(uint256 tokenId) private {\n        LibDiamond.DiamondStorage storage ds = LibDiamond.diamondStorage();\n\n        // To prevent a gap in the tokens array, we store the last token in the index of the token to delete, and\n        // then delete the last slot (swap and pop).\n\n        uint256 lastTokenIndex = ds.erc721_allTokens.length - 1;\n        uint256 tokenIndex = ds.erc721_allTokensIndex[tokenId];\n\n        // When the token to delete is the last token, the swap operation is unnecessary. However, since this occurs so\n        // rarely (when the last minted token is burnt) that we still do the swap here to avoid the gas cost of adding\n        // an 'if' statement (like in _removeTokenFromOwnerEnumeration)\n        uint256 lastTokenId = ds.erc721_allTokens[lastTokenIndex];\n\n        ds.erc721_allTokens[tokenIndex] = lastTokenId; // Move the last token to the slot of the to-delete token\n        ds.erc721_allTokensIndex[lastTokenId] = tokenIndex; // Update the moved token's index\n\n        // This also deletes the contents at the last position of the array\n        delete ds.erc721_allTokensIndex[tokenId];\n        ds.erc721_allTokens.pop();\n    }\n\n    /**\n     * Unicorn DNA methods\n     */\n    function getDNA(uint256 _tokenId) external view returns (uint256) {\n        return LibUnicornDNA._getDNA(_tokenId);\n    }\n\n    function _setDNAForGenesisToken(uint256 _tokenId, uint8 _class)\n        internal\n        returns (uint256)\n    {\n        require(\n            _tokenId <= LibDiamond.ERC721_GENESIS_TOKENS,\n            \"ERC721WithDiamondStorage: Can only set DNA for genesis tokens\"\n        );\n        uint256 dna = 0;\n        dna = LibUnicornDNA._setVersion(dna, LibUnicornDNA._targetDNAVersion());\n        dna = LibUnicornDNA._setOrigin(dna, true);\n        dna = LibUnicornDNA._setGameLocked(dna, false);\n        dna = LibUnicornDNA._setLimitedEdition(dna, false);\n        dna = LibUnicornDNA._setLifecycleStage(\n            dna,\n            LibUnicornDNA.LIFECYCLE_EGG\n        );\n        dna = LibUnicornDNA._setBreedingPoints(dna, 0);\n        dna = LibUnicornDNA._setClass(dna, _class);\n        return LibUnicornDNA._setDNA(_tokenId, dna);\n    }\n\n    function setDNAForGenesisTokens(uint256[] calldata _tokenIds, uint8 _class)\n        external\n    {\n        LibDiamond.enforceIsContractOwner();\n        for (uint256 i = 0; i < _tokenIds.length; i++) {\n            _setDNAForGenesisToken(_tokenIds[i], _class);\n        }\n    }\n}\n",
  "sourcePath": "contracts/facets/erc721/ERC721WithDiamondStorage.sol",
  "type": "contract"
}