{
  "abi": [
    {
      "inputs": [
        {
          "internalType": "uint256",
          "name": "_tokenId",
          "type": "uint256"
        }
      ],
      "name": "getDNA",
      "outputs": [
        {
          "internalType": "uint256",
          "name": "",
          "type": "uint256"
        }
      ],
      "stateMutability": "view",
      "type": "function"
    },
    {
      "inputs": [
        {
          "internalType": "uint256",
          "name": "_tokenId",
          "type": "uint256"
        }
      ],
      "name": "getIdempotentState",
      "outputs": [
        {
          "internalType": "uint256",
          "name": "",
          "type": "uint256"
        }
      ],
      "stateMutability": "view",
      "type": "function"
    },
    {
      "inputs": [
        {
          "internalType": "uint256",
          "name": "_tokenId",
          "type": "uint256"
        }
      ],
      "name": "getUnicornName",
      "outputs": [
        {
          "internalType": "string",
          "name": "",
          "type": "string"
        }
      ],
      "stateMutability": "view",
      "type": "function"
    },
    {
      "inputs": [
        {
          "internalType": "address",
          "name": "_owner",
          "type": "address"
        },
        {
          "internalType": "uint32",
          "name": "_pageNumber",
          "type": "uint32"
        }
      ],
      "name": "getUnicornsByOwner",
      "outputs": [
        {
          "internalType": "uint256[]",
          "name": "tokenIds",
          "type": "uint256[]"
        },
        {
          "internalType": "uint16[]",
          "name": "classes",
          "type": "uint16[]"
        },
        {
          "internalType": "string[]",
          "name": "names",
          "type": "string[]"
        },
        {
          "internalType": "bool[]",
          "name": "gameLocked",
          "type": "bool[]"
        },
        {
          "internalType": "bool",
          "name": "moreEntriesExist",
          "type": "bool"
        }
      ],
      "stateMutability": "view",
      "type": "function"
    }
  ],
  "bytecode": "608060405234801561001057600080fd5b50611cf0806100206000396000f3fe608060405234801561001057600080fd5b506004361061004c5760003560e01c80633449c8071461005157806353bab131146100775780635bb209a5146100975780638fb037bb146100aa575b600080fd5b61006461005f3660046118b8565b6100ce565b6040519081526020015b60405180910390f35b61008a6100853660046118b8565b610103565b60405161006e919061191e565b6100646100a53660046118b8565b610122565b6100bd6100b8366004611931565b61012d565b60405161006e959493929190611a14565b60008181527fc8fcad8db84d3cc18b4c41d551ea0ee66dd599cde068d998e57d5e09332c133560205260408120545b92915050565b60606000610110836103e9565b905061011b81610426565b9392505050565b60006100fd826103e9565b6001600160a01b03821660009081527fc8fcad8db84d3cc18b4c41d551ea0ee66dd599cde068d998e57d5e09332c13236020526040812054606091829182918291600080516020611c9b833981519152908261018a89600c611ae1565b63ffffffff169050600061019e8284611b0d565b9050600c8111156101b1575060019350600c5b8067ffffffffffffffff8111156101ca576101ca611b24565b6040519080825280602002602001820160405280156101f3578160200160208202803683370190505b5098508067ffffffffffffffff81111561020f5761020f611b24565b604051908082528060200260200182016040528015610238578160200160208202803683370190505b5097508067ffffffffffffffff81111561025457610254611b24565b60405190808252806020026020018201604052801561028757816020015b60608152602001906001900390816102725790505b5096508067ffffffffffffffff8111156102a3576102a3611b24565b6040519080825280602002602001820160405280156102cc578160200160208202803683370190505b50955060005b818110156103da5760006102e68285611b3a565b6001600160a01b038e16600090815260088801602090815260408083208484529091529020548c519192509081908d908590811061032657610326611b52565b602002602001018181525050600061033d826103e9565b905061034881610581565b60ff168c858151811061035d5761035d611b52565b602002602001019061ffff16908161ffff168152505061037c81610426565b8b858151811061038e5761038e611b52565b60200260200101819052506103a281610590565b8a85815181106103b4576103b4611b52565b602002602001019015159081151581525050505050806103d390611b68565b90506102d2565b50505050509295509295909350565b60006103f48261059e565b15610402576100fd826106a2565b600080516020611c9b8339815191525b600092835260180160205250604090205490565b6060610431826110df565b600080516020611c9b83398151915261044983611165565b600114156104ff5780603e01600061046085611176565b8152602001908152602001600020805461047990611b83565b80601f01602080910402602001604051908101604052809291908181526020018280546104a590611b83565b80156104f25780601f106104c7576101008083540402835291602001916104f2565b820191906000526020600020905b8154815290600101906020018083116104d557829003601f168201915b5050505050915050919050565b61050883611176565b6001141561051f5780603d01600061046085611165565b80603d01600061052e85611165565b815260200190815260200160002081603e01600061054b86611176565b815260200190815260200160002060405160200161056a929190611c58565b604051602081830303815290604052915050919050565b60006100fd82621e0000611183565b6000610200821615156100fd565b60006105a98261119c565b80156105bb57506105b9826111d5565b155b1561069a5760008281527ffdccebc9c7798f16c9158af32c6bb14bb2526bcd260561cab5771cff2fa8ad9660209081526040808320548084527ffdccebc9c7798f16c9158af32c6bb14bb2526bcd260561cab5771cff2fa8ad908352818420548085527ffdccebc9c7798f16c9158af32c6bb14bb2526bcd260561cab5771cff2fa8ad949093529220547ffdccebc9c7798f16c9158af32c6bb14bb2526bcd260561cab5771cff2fa8ad8e929190158015906106865750600081815260068401602052604090205443115b1561069657506001949350505050565b5050505b506000919050565b60006106ad826111d5565b156106ff5760405162461bcd60e51b815260206004820152601a60248201527f4c69624861746368696e673a20524e47206e6f7420726561647900000000000060448201526064015b60405180910390fd5b6107088261119c565b6107545760405162461bcd60e51b815260206004820181905260248201527f4c69624861746368696e673a2057616974696e6720666f72205652462054544c60448201526064016106f6565b60008281527ffdccebc9c7798f16c9158af32c6bb14bb2526bcd260561cab5771cff2fa8ad96602090815260408083205483527ffdccebc9c7798f16c9158af32c6bb14bb2526bcd260561cab5771cff2fa8ad908252808320548084527ffdccebc9c7798f16c9158af32c6bb14bb2526bcd260561cab5771cff2fa8ad94909252909120547ffdccebc9c7798f16c9158af32c6bb14bb2526bcd260561cab5771cff2fa8ad8e91906108485760405162461bcd60e51b815260206004820152601760248201527f4c69624861746368696e673a204e6f20524e472073657400000000000000000060448201526064016106f6565b600081815260068301602052604090205443116108c35760405162461bcd60e51b815260206004820152603360248201527f4c69624861746368696e673a2050726564696374696f6e206d61736b656420646044820152727572696e6720524e472073657420626c6f636b60681b60648201526084016106f6565b60006108ce8561120e565b905060006108db82611224565b1461093c5760405162461bcd60e51b815260206004820152602b60248201527f4c69624861746368696e673a20444e412068617320616c72656164792062656560448201526a1b881c195c9cda5cdd195960aa1b60648201526084016106f6565b600061094782610581565b60008781527fc8fcad8db84d3cc18b4c41d551ea0ee66dd599cde068d998e57d5e09332c13566020526040812060ff929092169250600080516020611c9b8339815191529161099990825b01546103e9565b6000898152603a840160205260408120919250906109b79082610992565b905060006109c483610581565b60ff168514905060006109d683610581565b60ff1686149050600082806109e85750815b90506109f5886001611232565b60008a815260048c01602090815260408083205460058f01909252822054929a509190838015610a31575082610a2f61271084600b611241565b105b15610acd57858015610a405750845b15610a6857610a52600283600c611241565b600114610a5f5786610a61565b875b9050610a78565b85610a735786610a75565b875b90505b610a8a8b610a858361128b565b61129b565b9a50610a9e8b610a99836112ac565b6112bd565b9a50610ab28b610aad836112cf565b6112e1565b9a50610ac68b610ac1836112f4565b611307565b9a50610b36565b610afa8b8a6026016000610ae68d8f600189600d61131b565b81526020019081526020016000205461129b565b9a50610b0d8b610a998b8d86600e6114be565b9a50610b208b610aad8b8d86600f6114be565b9a50610b338b610ac18b8d8660106114be565b9a505b838015610b4f575082610b4d612710846015611241565b105b15610beb57858015610b5e5750845b15610b8657610b706002836016611241565b600114610b7d5786610b7f565b875b9050610b96565b85610b915786610b93565b875b90505b610ba88b610ba3836115d0565b6115e0565b9a50610bbc8b610bb7836115f1565b611601565b9a50610bd08b610bcb83611612565b611622565b9a50610be48b610bdf83611633565b611643565b9a50610c54565b610c188b8a6026016000610c048d8f600289601761131b565b8152602001908152602001600020546115e0565b9a50610c2b8b610bb78b8d8660186114be565b9a50610c3e8b610bcb8b8d8660196114be565b9a50610c518b610bdf8b8d86601a6114be565b9a505b838015610c6d575082610c6b61271084601f611241565b105b15610d0957858015610c7c5750845b15610ca457610c8e6002836020611241565b600114610c9b5786610c9d565b875b9050610cb4565b85610caf5786610cb1565b875b90505b610cc68b610cc183611654565b611664565b9a50610cda8b610cd583611675565b611685565b9a50610cee8b610ce983611696565b6116a6565b9a50610d028b610cfd836116b7565b6116c7565b9a50610d72565b610d368b8a6026016000610d228d8f600389602161131b565b815260200190815260200160002054611664565b9a50610d498b610cd58b8d8660226114be565b9a50610d5c8b610ce98b8d8660236114be565b9a50610d6f8b610cfd8b8d8660246114be565b9a505b838015610d8b575082610d89612710846029611241565b105b15610e2757858015610d9a5750845b15610dc257610dac600283602a611241565b600114610db95786610dbb565b875b9050610dd2565b85610dcd5786610dcf565b875b90505b610de48b610ddf836116d8565b6116e8565b9a50610df88b610df3836116f9565b611709565b9a50610e0c8b610e078361171a565b61172a565b9a50610e208b610e1b8361173b565b61174b565b9a50610e90565b610e548b8a6026016000610e408d8f600489602b61131b565b8152602001908152602001600020546116e8565b9a50610e678b610df38b8d86602c6114be565b9a50610e7a8b610e078b8d86602d6114be565b9a50610e8d8b610e1b8b8d86602e6114be565b9a505b838015610ea9575082610ea7612710846033611241565b105b15610f4557858015610eb85750845b15610ee057610eca6002836034611241565b600114610ed75786610ed9565b875b9050610ef0565b85610eeb5786610eed565b875b90505b610f028b610efd8361175c565b61176c565b9a50610f168b610f118361177d565b61178d565b9a50610f2a8b610f258361179e565b6117ae565b9a50610f3e8b610f39836117bf565b6117cf565b9a50610fae565b610f728b8a6026016000610f5e8d8f600589603561131b565b81526020019081526020016000205461176c565b9a50610f858b610f118b8d8660366114be565b9a50610f988b610f258b8d8660376114be565b9a50610fab8b610f398b8d8660386114be565b9a505b838015610fc7575082610fc561271084603d611241565b105b1561106357858015610fd65750845b15610ffe57610fe8600283603e611241565b600114610ff55786610ff7565b875b905061100e565b85611009578661100b565b875b90505b6110208b61101b836117e0565b6117f0565b9a506110348b61102f83611801565b611811565b9a506110488b61104383611822565b611832565b9a5061105c8b61105783611843565b611853565b9a506110cc565b6110908b8a602601600061107c8d8f600689603f61131b565b8152602001908152602001600020546117f0565b9a506110a38b61102f8b8d8660406114be565b9a506110b68b6110438b8d8660416114be565b9a506110c98b6110578b8d8660426114be565b9a505b50989d9c50505050505050505050505050565b7fc8fcad8db84d3cc18b4c41d551ea0ee66dd599cde068d998e57d5e09332c135d5461110a82611864565b146111625760405162461bcd60e51b815260206004820152602260248201527f4c6962556e69636f726e444e413a20496e76616c696420444e4120766572736960448201526137b760f11b60648201526084016106f6565b50565b60006100fd826103ff60d51b611183565b60006100fd826103ff60df1b5b60008061118f83611871565b9290931690911c92915050565b60008181527fc8fcad8db84d3cc18b4c41d551ea0ee66dd599cde068d998e57d5e09332c1335602052604081205460808116151561011b565b60008181527fc8fcad8db84d3cc18b4c41d551ea0ee66dd599cde068d998e57d5e09332c1335602052604081205460408116151561011b565b6000600080516020611c9b833981519152610412565b60006100fd82611800611183565b600061011b8383611800611894565b6000838383604051602001611260929190918252602082015260400190565b6040516020818303038152906040528051906020012060001c6112839190611c78565b949350505050565b60006100fd82631fe00000611183565b600061011b8383631fe00000611894565b60006100fd82641fe0000000611183565b600061011b8383641fe0000000611894565b60006100fd82651fe000000000611183565b600061011b8383651fe000000000611894565b60006100fd82661fe00000000000611183565b600061011b8383661fe00000000000611894565b6000848152602986016020908152604080832086845290915281205481805b828110156113af57600088815260298a01602090815260408083208a845290915281208054602b8c019291908490811061137657611376611b52565b90600052602060002001548152602001908152602001600020548261139b9190611b3a565b9150806113a781611b68565b91505061133a565b5060006113bd828787611241565b6113c8906001611b3a565b90506000805b848110156114585760008a815260298c01602090815260408083208c8452909152812080548390811061140357611403611b52565b6000918252602080832090910154808352602b8f0190915260409091205490915061142e8185611b3a565b9350838511611445575095506114b5945050505050565b50508061145190611b68565b90506113ce565b5060405162461bcd60e51b815260206004820152602b60248201527f4861746368696e6746616365743a204661696c65642067657474696e6720524e60448201526a4720626f6479706172747360a81b60648201526084016106f6565b95945050505050565b60008381526021850160209081526040808320546022880190925282205482906114e9908686611241565b6114f4906001611b3a565b90506000805b8381101561157857600088815260218a016020526040812080548390811061152457611524611b52565b9060005260206000200154905089602301600082815260200190815260200160002054836115529190611b3a565b92508284116115675794506112839350505050565b5061157181611b68565b90506114fa565b5060405162461bcd60e51b815260206004820152602660248201527f4861746368696e6746616365743a204661696c65642067657474696e6720524e604482015265472067656e6560d01b60648201526084016106f6565b60006100fd8260ff60351b611183565b600061011b838360ff60351b611894565b60006100fd8260ff603d1b611183565b600061011b838360ff603d1b611894565b60006100fd8260ff60451b611183565b600061011b838360ff60451b611894565b60006100fd8260ff604d1b611183565b600061011b838360ff604d1b611894565b60006100fd8260ff60551b611183565b600061011b838360ff60551b611894565b60006100fd8260ff605d1b611183565b600061011b838360ff605d1b611894565b60006100fd8260ff60651b611183565b600061011b838360ff60651b611894565b60006100fd8260ff606d1b611183565b600061011b838360ff606d1b611894565b60006100fd8260ff60751b611183565b600061011b838360ff60751b611894565b60006100fd8260ff607d1b611183565b600061011b838360ff607d1b611894565b60006100fd8260ff60851b611183565b600061011b838360ff60851b611894565b60006100fd8260ff608d1b611183565b600061011b838360ff608d1b611894565b60006100fd8260ff60951b611183565b600061011b838360ff60951b611894565b60006100fd8260ff609d1b611183565b600061011b838360ff609d1b611894565b60006100fd8260ff60a51b611183565b600061011b838360ff60a51b611894565b60006100fd8260ff60ad1b611183565b600061011b838360ff60ad1b611894565b60006100fd8260ff60b51b611183565b600061011b838360ff60b51b611894565b60006100fd8260ff60bd1b611183565b600061011b838360ff60bd1b611894565b60006100fd8260ff60c51b611183565b600061011b838360ff60c51b611894565b60006100fd8260ff60cd1b611183565b600061011b838360ff60cd1b611894565b60006100fd8260ff611183565b6000805b600183166100fd5760019290921c9161188d81611b68565b9050611875565b6000806118a083611871565b600019841886169085901b8416179150509392505050565b6000602082840312156118ca57600080fd5b5035919050565b6000815180845260005b818110156118f7576020818501810151868301820152016118db565b81811115611909576000602083870101525b50601f01601f19169290920160200192915050565b60208152600061011b60208301846118d1565b6000806040838503121561194457600080fd5b82356001600160a01b038116811461195b57600080fd5b9150602083013563ffffffff8116811461197457600080fd5b809150509250929050565b600082825180855260208086019550808260051b84010181860160005b848110156119ca57601f198684030189526119b88383516118d1565b9884019892509083019060010161199c565b5090979650505050505050565b600081518084526020808501945080840160005b83811015611a095781511515875295820195908201906001016119eb565b509495945050505050565b60a0808252865190820181905260009060209060c0840190828a01845b82811015611a4d57815184529284019290840190600101611a31565b5050508381038285015287518082528883019183019060005b81811015611a8657835161ffff1683529284019291840191600101611a66565b50508481036040860152611a9a818961197f565b925050508281036060840152611ab081866119d7565b915050611ac1608083018415159052565b9695505050505050565b634e487b7160e01b600052601160045260246000fd5b600063ffffffff80831681851681830481118215151615611b0457611b04611acb565b02949350505050565b600082821015611b1f57611b1f611acb565b500390565b634e487b7160e01b600052604160045260246000fd5b60008219821115611b4d57611b4d611acb565b500190565b634e487b7160e01b600052603260045260246000fd5b6000600019821415611b7c57611b7c611acb565b5060010190565b600181811c90821680611b9757607f821691505b60208210811415611bb857634e487b7160e01b600052602260045260246000fd5b50919050565b8054600090600181811c9080831680611bd857607f831692505b6020808410821415611bfa57634e487b7160e01b600052602260045260246000fd5b818015611c0e5760018114611c1f57611c4c565b60ff19861689528489019650611c4c565b60008881526020902060005b86811015611c445781548b820152908501908301611c2b565b505084890196505b50505050505092915050565b6000611c648285611bbe565b600160fd1b81526114b56001820185611bbe565b600082611c9557634e487b7160e01b600052601260045260246000fd5b50069056fec8fcad8db84d3cc18b4c41d551ea0ee66dd599cde068d998e57d5e09332c131ca2646970667358221220d1df1831dd3d02ba4edbdb09e5e6b155a031bc61aca1038d412d2d95f380e2da64736f6c63430008090033",
  "bytecodeSha1": "309378d0b78ccf2bb7c79a56d08267b6741cbe00",
  "compiler": {
    "evm_version": "istanbul",
    "optimizer": {
      "enabled": true,
      "runs": 200
    },
    "version": "0.8.9+commit.e5eed63a"
  },
  "contractName": "MetadataFacet",
  "language": "Solidity",
  "natspec": {
    "kind": "dev",
    "methods": {},
    "version": 1
  },
  "opcodes": "PUSH1 0x80 PUSH1 0x40 MSTORE CALLVALUE DUP1 ISZERO PUSH2 0x10 JUMPI PUSH1 0x0 DUP1 REVERT JUMPDEST POP PUSH1 0x4 CALLDATASIZE LT PUSH2 0x4C JUMPI PUSH1 0x0 CALLDATALOAD PUSH1 0xE0 SHR DUP1 PUSH4 0x3449C807 EQ PUSH2 0x51 JUMPI DUP1 PUSH4 0x53BAB131 EQ PUSH2 0x77 JUMPI DUP1 PUSH4 0x5BB209A5 EQ PUSH2 0x97 JUMPI DUP1 PUSH4 0x8FB037BB EQ PUSH2 0xAA JUMPI JUMPDEST PUSH1 0x0 DUP1 REVERT JUMPDEST PUSH2 0x64 PUSH2 0x5F CALLDATASIZE PUSH1 0x4 PUSH2 0x18B8 JUMP JUMPDEST PUSH2 0xCE JUMP JUMPDEST PUSH1 0x40 MLOAD SWAP1 DUP2 MSTORE PUSH1 0x20 ADD JUMPDEST PUSH1 0x40 MLOAD DUP1 SWAP2 SUB SWAP1 RETURN JUMPDEST PUSH2 0x8A PUSH2 0x85 CALLDATASIZE PUSH1 0x4 PUSH2 0x18B8 JUMP JUMPDEST PUSH2 0x103 JUMP JUMPDEST PUSH1 0x40 MLOAD PUSH2 0x6E SWAP2 SWAP1 PUSH2 0x191E JUMP JUMPDEST PUSH2 0x64 PUSH2 0xA5 CALLDATASIZE PUSH1 0x4 PUSH2 0x18B8 JUMP JUMPDEST PUSH2 0x122 JUMP JUMPDEST PUSH2 0xBD PUSH2 0xB8 CALLDATASIZE PUSH1 0x4 PUSH2 0x1931 JUMP JUMPDEST PUSH2 0x12D JUMP JUMPDEST PUSH1 0x40 MLOAD PUSH2 0x6E SWAP6 SWAP5 SWAP4 SWAP3 SWAP2 SWAP1 PUSH2 0x1A14 JUMP JUMPDEST PUSH1 0x0 DUP2 DUP2 MSTORE PUSH32 0xC8FCAD8DB84D3CC18B4C41D551EA0EE66DD599CDE068D998E57D5E09332C1335 PUSH1 0x20 MSTORE PUSH1 0x40 DUP2 KECCAK256 SLOAD JUMPDEST SWAP3 SWAP2 POP POP JUMP JUMPDEST PUSH1 0x60 PUSH1 0x0 PUSH2 0x110 DUP4 PUSH2 0x3E9 JUMP JUMPDEST SWAP1 POP PUSH2 0x11B DUP2 PUSH2 0x426 JUMP JUMPDEST SWAP4 SWAP3 POP POP POP JUMP JUMPDEST PUSH1 0x0 PUSH2 0xFD DUP3 PUSH2 0x3E9 JUMP JUMPDEST PUSH1 0x1 PUSH1 0x1 PUSH1 0xA0 SHL SUB DUP3 AND PUSH1 0x0 SWAP1 DUP2 MSTORE PUSH32 0xC8FCAD8DB84D3CC18B4C41D551EA0EE66DD599CDE068D998E57D5E09332C1323 PUSH1 0x20 MSTORE PUSH1 0x40 DUP2 KECCAK256 SLOAD PUSH1 0x60 SWAP2 DUP3 SWAP2 DUP3 SWAP2 DUP3 SWAP2 PUSH1 0x0 DUP1 MLOAD PUSH1 0x20 PUSH2 0x1C9B DUP4 CODECOPY DUP2 MLOAD SWAP2 MSTORE SWAP1 DUP3 PUSH2 0x18A DUP10 PUSH1 0xC PUSH2 0x1AE1 JUMP JUMPDEST PUSH4 0xFFFFFFFF AND SWAP1 POP PUSH1 0x0 PUSH2 0x19E DUP3 DUP5 PUSH2 0x1B0D JUMP JUMPDEST SWAP1 POP PUSH1 0xC DUP2 GT ISZERO PUSH2 0x1B1 JUMPI POP PUSH1 0x1 SWAP4 POP PUSH1 0xC JUMPDEST DUP1 PUSH8 0xFFFFFFFFFFFFFFFF DUP2 GT ISZERO PUSH2 0x1CA JUMPI PUSH2 0x1CA PUSH2 0x1B24 JUMP JUMPDEST PUSH1 0x40 MLOAD SWAP1 DUP1 DUP3 MSTORE DUP1 PUSH1 0x20 MUL PUSH1 0x20 ADD DUP3 ADD PUSH1 0x40 MSTORE DUP1 ISZERO PUSH2 0x1F3 JUMPI DUP2 PUSH1 0x20 ADD PUSH1 0x20 DUP3 MUL DUP1 CALLDATASIZE DUP4 CALLDATACOPY ADD SWAP1 POP JUMPDEST POP SWAP9 POP DUP1 PUSH8 0xFFFFFFFFFFFFFFFF DUP2 GT ISZERO PUSH2 0x20F JUMPI PUSH2 0x20F PUSH2 0x1B24 JUMP JUMPDEST PUSH1 0x40 MLOAD SWAP1 DUP1 DUP3 MSTORE DUP1 PUSH1 0x20 MUL PUSH1 0x20 ADD DUP3 ADD PUSH1 0x40 MSTORE DUP1 ISZERO PUSH2 0x238 JUMPI DUP2 PUSH1 0x20 ADD PUSH1 0x20 DUP3 MUL DUP1 CALLDATASIZE DUP4 CALLDATACOPY ADD SWAP1 POP JUMPDEST POP SWAP8 POP DUP1 PUSH8 0xFFFFFFFFFFFFFFFF DUP2 GT ISZERO PUSH2 0x254 JUMPI PUSH2 0x254 PUSH2 0x1B24 JUMP JUMPDEST PUSH1 0x40 MLOAD SWAP1 DUP1 DUP3 MSTORE DUP1 PUSH1 0x20 MUL PUSH1 0x20 ADD DUP3 ADD PUSH1 0x40 MSTORE DUP1 ISZERO PUSH2 0x287 JUMPI DUP2 PUSH1 0x20 ADD JUMPDEST PUSH1 0x60 DUP2 MSTORE PUSH1 0x20 ADD SWAP1 PUSH1 0x1 SWAP1 SUB SWAP1 DUP2 PUSH2 0x272 JUMPI SWAP1 POP JUMPDEST POP SWAP7 POP DUP1 PUSH8 0xFFFFFFFFFFFFFFFF DUP2 GT ISZERO PUSH2 0x2A3 JUMPI PUSH2 0x2A3 PUSH2 0x1B24 JUMP JUMPDEST PUSH1 0x40 MLOAD SWAP1 DUP1 DUP3 MSTORE DUP1 PUSH1 0x20 MUL PUSH1 0x20 ADD DUP3 ADD PUSH1 0x40 MSTORE DUP1 ISZERO PUSH2 0x2CC JUMPI DUP2 PUSH1 0x20 ADD PUSH1 0x20 DUP3 MUL DUP1 CALLDATASIZE DUP4 CALLDATACOPY ADD SWAP1 POP JUMPDEST POP SWAP6 POP PUSH1 0x0 JUMPDEST DUP2 DUP2 LT ISZERO PUSH2 0x3DA JUMPI PUSH1 0x0 PUSH2 0x2E6 DUP3 DUP6 PUSH2 0x1B3A JUMP JUMPDEST PUSH1 0x1 PUSH1 0x1 PUSH1 0xA0 SHL SUB DUP15 AND PUSH1 0x0 SWAP1 DUP2 MSTORE PUSH1 0x8 DUP9 ADD PUSH1 0x20 SWAP1 DUP2 MSTORE PUSH1 0x40 DUP1 DUP4 KECCAK256 DUP5 DUP5 MSTORE SWAP1 SWAP2 MSTORE SWAP1 KECCAK256 SLOAD DUP13 MLOAD SWAP2 SWAP3 POP SWAP1 DUP2 SWAP1 DUP14 SWAP1 DUP6 SWAP1 DUP2 LT PUSH2 0x326 JUMPI PUSH2 0x326 PUSH2 0x1B52 JUMP JUMPDEST PUSH1 0x20 MUL PUSH1 0x20 ADD ADD DUP2 DUP2 MSTORE POP POP PUSH1 0x0 PUSH2 0x33D DUP3 PUSH2 0x3E9 JUMP JUMPDEST SWAP1 POP PUSH2 0x348 DUP2 PUSH2 0x581 JUMP JUMPDEST PUSH1 0xFF AND DUP13 DUP6 DUP2 MLOAD DUP2 LT PUSH2 0x35D JUMPI PUSH2 0x35D PUSH2 0x1B52 JUMP JUMPDEST PUSH1 0x20 MUL PUSH1 0x20 ADD ADD SWAP1 PUSH2 0xFFFF AND SWAP1 DUP2 PUSH2 0xFFFF AND DUP2 MSTORE POP POP PUSH2 0x37C DUP2 PUSH2 0x426 JUMP JUMPDEST DUP12 DUP6 DUP2 MLOAD DUP2 LT PUSH2 0x38E JUMPI PUSH2 0x38E PUSH2 0x1B52 JUMP JUMPDEST PUSH1 0x20 MUL PUSH1 0x20 ADD ADD DUP2 SWAP1 MSTORE POP PUSH2 0x3A2 DUP2 PUSH2 0x590 JUMP JUMPDEST DUP11 DUP6 DUP2 MLOAD DUP2 LT PUSH2 0x3B4 JUMPI PUSH2 0x3B4 PUSH2 0x1B52 JUMP JUMPDEST PUSH1 0x20 MUL PUSH1 0x20 ADD ADD SWAP1 ISZERO ISZERO SWAP1 DUP2 ISZERO ISZERO DUP2 MSTORE POP POP POP POP POP DUP1 PUSH2 0x3D3 SWAP1 PUSH2 0x1B68 JUMP JUMPDEST SWAP1 POP PUSH2 0x2D2 JUMP JUMPDEST POP POP POP POP POP SWAP3 SWAP6 POP SWAP3 SWAP6 SWAP1 SWAP4 POP JUMP JUMPDEST PUSH1 0x0 PUSH2 0x3F4 DUP3 PUSH2 0x59E JUMP JUMPDEST ISZERO PUSH2 0x402 JUMPI PUSH2 0xFD DUP3 PUSH2 0x6A2 JUMP JUMPDEST PUSH1 0x0 DUP1 MLOAD PUSH1 0x20 PUSH2 0x1C9B DUP4 CODECOPY DUP2 MLOAD SWAP2 MSTORE JUMPDEST PUSH1 0x0 SWAP3 DUP4 MSTORE PUSH1 0x18 ADD PUSH1 0x20 MSTORE POP PUSH1 0x40 SWAP1 KECCAK256 SLOAD SWAP1 JUMP JUMPDEST PUSH1 0x60 PUSH2 0x431 DUP3 PUSH2 0x10DF JUMP JUMPDEST PUSH1 0x0 DUP1 MLOAD PUSH1 0x20 PUSH2 0x1C9B DUP4 CODECOPY DUP2 MLOAD SWAP2 MSTORE PUSH2 0x449 DUP4 PUSH2 0x1165 JUMP JUMPDEST PUSH1 0x1 EQ ISZERO PUSH2 0x4FF JUMPI DUP1 PUSH1 0x3E ADD PUSH1 0x0 PUSH2 0x460 DUP6 PUSH2 0x1176 JUMP JUMPDEST DUP2 MSTORE PUSH1 0x20 ADD SWAP1 DUP2 MSTORE PUSH1 0x20 ADD PUSH1 0x0 KECCAK256 DUP1 SLOAD PUSH2 0x479 SWAP1 PUSH2 0x1B83 JUMP JUMPDEST DUP1 PUSH1 0x1F ADD PUSH1 0x20 DUP1 SWAP2 DIV MUL PUSH1 0x20 ADD PUSH1 0x40 MLOAD SWAP1 DUP2 ADD PUSH1 0x40 MSTORE DUP1 SWAP3 SWAP2 SWAP1 DUP2 DUP2 MSTORE PUSH1 0x20 ADD DUP3 DUP1 SLOAD PUSH2 0x4A5 SWAP1 PUSH2 0x1B83 JUMP JUMPDEST DUP1 ISZERO PUSH2 0x4F2 JUMPI DUP1 PUSH1 0x1F LT PUSH2 0x4C7 JUMPI PUSH2 0x100 DUP1 DUP4 SLOAD DIV MUL DUP4 MSTORE SWAP2 PUSH1 0x20 ADD SWAP2 PUSH2 0x4F2 JUMP JUMPDEST DUP3 ADD SWAP2 SWAP1 PUSH1 0x0 MSTORE PUSH1 0x20 PUSH1 0x0 KECCAK256 SWAP1 JUMPDEST DUP2 SLOAD DUP2 MSTORE SWAP1 PUSH1 0x1 ADD SWAP1 PUSH1 0x20 ADD DUP1 DUP4 GT PUSH2 0x4D5 JUMPI DUP3 SWAP1 SUB PUSH1 0x1F AND DUP3 ADD SWAP2 JUMPDEST POP POP POP POP POP SWAP2 POP POP SWAP2 SWAP1 POP JUMP JUMPDEST PUSH2 0x508 DUP4 PUSH2 0x1176 JUMP JUMPDEST PUSH1 0x1 EQ ISZERO PUSH2 0x51F JUMPI DUP1 PUSH1 0x3D ADD PUSH1 0x0 PUSH2 0x460 DUP6 PUSH2 0x1165 JUMP JUMPDEST DUP1 PUSH1 0x3D ADD PUSH1 0x0 PUSH2 0x52E DUP6 PUSH2 0x1165 JUMP JUMPDEST DUP2 MSTORE PUSH1 0x20 ADD SWAP1 DUP2 MSTORE PUSH1 0x20 ADD PUSH1 0x0 KECCAK256 DUP2 PUSH1 0x3E ADD PUSH1 0x0 PUSH2 0x54B DUP7 PUSH2 0x1176 JUMP JUMPDEST DUP2 MSTORE PUSH1 0x20 ADD SWAP1 DUP2 MSTORE PUSH1 0x20 ADD PUSH1 0x0 KECCAK256 PUSH1 0x40 MLOAD PUSH1 0x20 ADD PUSH2 0x56A SWAP3 SWAP2 SWAP1 PUSH2 0x1C58 JUMP JUMPDEST PUSH1 0x40 MLOAD PUSH1 0x20 DUP2 DUP4 SUB SUB DUP2 MSTORE SWAP1 PUSH1 0x40 MSTORE SWAP2 POP POP SWAP2 SWAP1 POP JUMP JUMPDEST PUSH1 0x0 PUSH2 0xFD DUP3 PUSH3 0x1E0000 PUSH2 0x1183 JUMP JUMPDEST PUSH1 0x0 PUSH2 0x200 DUP3 AND ISZERO ISZERO PUSH2 0xFD JUMP JUMPDEST PUSH1 0x0 PUSH2 0x5A9 DUP3 PUSH2 0x119C JUMP JUMPDEST DUP1 ISZERO PUSH2 0x5BB JUMPI POP PUSH2 0x5B9 DUP3 PUSH2 0x11D5 JUMP JUMPDEST ISZERO JUMPDEST ISZERO PUSH2 0x69A JUMPI PUSH1 0x0 DUP3 DUP2 MSTORE PUSH32 0xFDCCEBC9C7798F16C9158AF32C6BB14BB2526BCD260561CAB5771CFF2FA8AD96 PUSH1 0x20 SWAP1 DUP2 MSTORE PUSH1 0x40 DUP1 DUP4 KECCAK256 SLOAD DUP1 DUP5 MSTORE PUSH32 0xFDCCEBC9C7798F16C9158AF32C6BB14BB2526BCD260561CAB5771CFF2FA8AD90 DUP4 MSTORE DUP2 DUP5 KECCAK256 SLOAD DUP1 DUP6 MSTORE PUSH32 0xFDCCEBC9C7798F16C9158AF32C6BB14BB2526BCD260561CAB5771CFF2FA8AD94 SWAP1 SWAP4 MSTORE SWAP3 KECCAK256 SLOAD PUSH32 0xFDCCEBC9C7798F16C9158AF32C6BB14BB2526BCD260561CAB5771CFF2FA8AD8E SWAP3 SWAP2 SWAP1 ISZERO DUP1 ISZERO SWAP1 PUSH2 0x686 JUMPI POP PUSH1 0x0 DUP2 DUP2 MSTORE PUSH1 0x6 DUP5 ADD PUSH1 0x20 MSTORE PUSH1 0x40 SWAP1 KECCAK256 SLOAD NUMBER GT JUMPDEST ISZERO PUSH2 0x696 JUMPI POP PUSH1 0x1 SWAP5 SWAP4 POP POP POP POP JUMP JUMPDEST POP POP POP JUMPDEST POP PUSH1 0x0 SWAP2 SWAP1 POP JUMP JUMPDEST PUSH1 0x0 PUSH2 0x6AD DUP3 PUSH2 0x11D5 JUMP JUMPDEST ISZERO PUSH2 0x6FF JUMPI PUSH1 0x40 MLOAD PUSH3 0x461BCD PUSH1 0xE5 SHL DUP2 MSTORE PUSH1 0x20 PUSH1 0x4 DUP3 ADD MSTORE PUSH1 0x1A PUSH1 0x24 DUP3 ADD MSTORE PUSH32 0x4C69624861746368696E673A20524E47206E6F74207265616479000000000000 PUSH1 0x44 DUP3 ADD MSTORE PUSH1 0x64 ADD JUMPDEST PUSH1 0x40 MLOAD DUP1 SWAP2 SUB SWAP1 REVERT JUMPDEST PUSH2 0x708 DUP3 PUSH2 0x119C JUMP JUMPDEST PUSH2 0x754 JUMPI PUSH1 0x40 MLOAD PUSH3 0x461BCD PUSH1 0xE5 SHL DUP2 MSTORE PUSH1 0x20 PUSH1 0x4 DUP3 ADD DUP2 SWAP1 MSTORE PUSH1 0x24 DUP3 ADD MSTORE PUSH32 0x4C69624861746368696E673A2057616974696E6720666F72205652462054544C PUSH1 0x44 DUP3 ADD MSTORE PUSH1 0x64 ADD PUSH2 0x6F6 JUMP JUMPDEST PUSH1 0x0 DUP3 DUP2 MSTORE PUSH32 0xFDCCEBC9C7798F16C9158AF32C6BB14BB2526BCD260561CAB5771CFF2FA8AD96 PUSH1 0x20 SWAP1 DUP2 MSTORE PUSH1 0x40 DUP1 DUP4 KECCAK256 SLOAD DUP4 MSTORE PUSH32 0xFDCCEBC9C7798F16C9158AF32C6BB14BB2526BCD260561CAB5771CFF2FA8AD90 DUP3 MSTORE DUP1 DUP4 KECCAK256 SLOAD DUP1 DUP5 MSTORE PUSH32 0xFDCCEBC9C7798F16C9158AF32C6BB14BB2526BCD260561CAB5771CFF2FA8AD94 SWAP1 SWAP3 MSTORE SWAP1 SWAP2 KECCAK256 SLOAD PUSH32 0xFDCCEBC9C7798F16C9158AF32C6BB14BB2526BCD260561CAB5771CFF2FA8AD8E SWAP2 SWAP1 PUSH2 0x848 JUMPI PUSH1 0x40 MLOAD PUSH3 0x461BCD PUSH1 0xE5 SHL DUP2 MSTORE PUSH1 0x20 PUSH1 0x4 DUP3 ADD MSTORE PUSH1 0x17 PUSH1 0x24 DUP3 ADD MSTORE PUSH32 0x4C69624861746368696E673A204E6F20524E4720736574000000000000000000 PUSH1 0x44 DUP3 ADD MSTORE PUSH1 0x64 ADD PUSH2 0x6F6 JUMP JUMPDEST PUSH1 0x0 DUP2 DUP2 MSTORE PUSH1 0x6 DUP4 ADD PUSH1 0x20 MSTORE PUSH1 0x40 SWAP1 KECCAK256 SLOAD NUMBER GT PUSH2 0x8C3 JUMPI PUSH1 0x40 MLOAD PUSH3 0x461BCD PUSH1 0xE5 SHL DUP2 MSTORE PUSH1 0x20 PUSH1 0x4 DUP3 ADD MSTORE PUSH1 0x33 PUSH1 0x24 DUP3 ADD MSTORE PUSH32 0x4C69624861746368696E673A2050726564696374696F6E206D61736B65642064 PUSH1 0x44 DUP3 ADD MSTORE PUSH19 0x7572696E6720524E472073657420626C6F636B PUSH1 0x68 SHL PUSH1 0x64 DUP3 ADD MSTORE PUSH1 0x84 ADD PUSH2 0x6F6 JUMP JUMPDEST PUSH1 0x0 PUSH2 0x8CE DUP6 PUSH2 0x120E JUMP JUMPDEST SWAP1 POP PUSH1 0x0 PUSH2 0x8DB DUP3 PUSH2 0x1224 JUMP JUMPDEST EQ PUSH2 0x93C JUMPI PUSH1 0x40 MLOAD PUSH3 0x461BCD PUSH1 0xE5 SHL DUP2 MSTORE PUSH1 0x20 PUSH1 0x4 DUP3 ADD MSTORE PUSH1 0x2B PUSH1 0x24 DUP3 ADD MSTORE PUSH32 0x4C69624861746368696E673A20444E412068617320616C726561647920626565 PUSH1 0x44 DUP3 ADD MSTORE PUSH11 0x1B881C195C9CDA5CDD1959 PUSH1 0xAA SHL PUSH1 0x64 DUP3 ADD MSTORE PUSH1 0x84 ADD PUSH2 0x6F6 JUMP JUMPDEST PUSH1 0x0 PUSH2 0x947 DUP3 PUSH2 0x581 JUMP JUMPDEST PUSH1 0x0 DUP8 DUP2 MSTORE PUSH32 0xC8FCAD8DB84D3CC18B4C41D551EA0EE66DD599CDE068D998E57D5E09332C1356 PUSH1 0x20 MSTORE PUSH1 0x40 DUP2 KECCAK256 PUSH1 0xFF SWAP3 SWAP1 SWAP3 AND SWAP3 POP PUSH1 0x0 DUP1 MLOAD PUSH1 0x20 PUSH2 0x1C9B DUP4 CODECOPY DUP2 MLOAD SWAP2 MSTORE SWAP2 PUSH2 0x999 SWAP1 DUP3 JUMPDEST ADD SLOAD PUSH2 0x3E9 JUMP JUMPDEST PUSH1 0x0 DUP10 DUP2 MSTORE PUSH1 0x3A DUP5 ADD PUSH1 0x20 MSTORE PUSH1 0x40 DUP2 KECCAK256 SWAP2 SWAP3 POP SWAP1 PUSH2 0x9B7 SWAP1 DUP3 PUSH2 0x992 JUMP JUMPDEST SWAP1 POP PUSH1 0x0 PUSH2 0x9C4 DUP4 PUSH2 0x581 JUMP JUMPDEST PUSH1 0xFF AND DUP6 EQ SWAP1 POP PUSH1 0x0 PUSH2 0x9D6 DUP4 PUSH2 0x581 JUMP JUMPDEST PUSH1 0xFF AND DUP7 EQ SWAP1 POP PUSH1 0x0 DUP3 DUP1 PUSH2 0x9E8 JUMPI POP DUP2 JUMPDEST SWAP1 POP PUSH2 0x9F5 DUP9 PUSH1 0x1 PUSH2 0x1232 JUMP JUMPDEST PUSH1 0x0 DUP11 DUP2 MSTORE PUSH1 0x4 DUP13 ADD PUSH1 0x20 SWAP1 DUP2 MSTORE PUSH1 0x40 DUP1 DUP4 KECCAK256 SLOAD PUSH1 0x5 DUP16 ADD SWAP1 SWAP3 MSTORE DUP3 KECCAK256 SLOAD SWAP3 SWAP11 POP SWAP2 SWAP1 DUP4 DUP1 ISZERO PUSH2 0xA31 JUMPI POP DUP3 PUSH2 0xA2F PUSH2 0x2710 DUP5 PUSH1 0xB PUSH2 0x1241 JUMP JUMPDEST LT JUMPDEST ISZERO PUSH2 0xACD JUMPI DUP6 DUP1 ISZERO PUSH2 0xA40 JUMPI POP DUP5 JUMPDEST ISZERO PUSH2 0xA68 JUMPI PUSH2 0xA52 PUSH1 0x2 DUP4 PUSH1 0xC PUSH2 0x1241 JUMP JUMPDEST PUSH1 0x1 EQ PUSH2 0xA5F JUMPI DUP7 PUSH2 0xA61 JUMP JUMPDEST DUP8 JUMPDEST SWAP1 POP PUSH2 0xA78 JUMP JUMPDEST DUP6 PUSH2 0xA73 JUMPI DUP7 PUSH2 0xA75 JUMP JUMPDEST DUP8 JUMPDEST SWAP1 POP JUMPDEST PUSH2 0xA8A DUP12 PUSH2 0xA85 DUP4 PUSH2 0x128B JUMP JUMPDEST PUSH2 0x129B JUMP JUMPDEST SWAP11 POP PUSH2 0xA9E DUP12 PUSH2 0xA99 DUP4 PUSH2 0x12AC JUMP JUMPDEST PUSH2 0x12BD JUMP JUMPDEST SWAP11 POP PUSH2 0xAB2 DUP12 PUSH2 0xAAD DUP4 PUSH2 0x12CF JUMP JUMPDEST PUSH2 0x12E1 JUMP JUMPDEST SWAP11 POP PUSH2 0xAC6 DUP12 PUSH2 0xAC1 DUP4 PUSH2 0x12F4 JUMP JUMPDEST PUSH2 0x1307 JUMP JUMPDEST SWAP11 POP PUSH2 0xB36 JUMP JUMPDEST PUSH2 0xAFA DUP12 DUP11 PUSH1 0x26 ADD PUSH1 0x0 PUSH2 0xAE6 DUP14 DUP16 PUSH1 0x1 DUP10 PUSH1 0xD PUSH2 0x131B JUMP JUMPDEST DUP2 MSTORE PUSH1 0x20 ADD SWAP1 DUP2 MSTORE PUSH1 0x20 ADD PUSH1 0x0 KECCAK256 SLOAD PUSH2 0x129B JUMP JUMPDEST SWAP11 POP PUSH2 0xB0D DUP12 PUSH2 0xA99 DUP12 DUP14 DUP7 PUSH1 0xE PUSH2 0x14BE JUMP JUMPDEST SWAP11 POP PUSH2 0xB20 DUP12 PUSH2 0xAAD DUP12 DUP14 DUP7 PUSH1 0xF PUSH2 0x14BE JUMP JUMPDEST SWAP11 POP PUSH2 0xB33 DUP12 PUSH2 0xAC1 DUP12 DUP14 DUP7 PUSH1 0x10 PUSH2 0x14BE JUMP JUMPDEST SWAP11 POP JUMPDEST DUP4 DUP1 ISZERO PUSH2 0xB4F JUMPI POP DUP3 PUSH2 0xB4D PUSH2 0x2710 DUP5 PUSH1 0x15 PUSH2 0x1241 JUMP JUMPDEST LT JUMPDEST ISZERO PUSH2 0xBEB JUMPI DUP6 DUP1 ISZERO PUSH2 0xB5E JUMPI POP DUP5 JUMPDEST ISZERO PUSH2 0xB86 JUMPI PUSH2 0xB70 PUSH1 0x2 DUP4 PUSH1 0x16 PUSH2 0x1241 JUMP JUMPDEST PUSH1 0x1 EQ PUSH2 0xB7D JUMPI DUP7 PUSH2 0xB7F JUMP JUMPDEST DUP8 JUMPDEST SWAP1 POP PUSH2 0xB96 JUMP JUMPDEST DUP6 PUSH2 0xB91 JUMPI DUP7 PUSH2 0xB93 JUMP JUMPDEST DUP8 JUMPDEST SWAP1 POP JUMPDEST PUSH2 0xBA8 DUP12 PUSH2 0xBA3 DUP4 PUSH2 0x15D0 JUMP JUMPDEST PUSH2 0x15E0 JUMP JUMPDEST SWAP11 POP PUSH2 0xBBC DUP12 PUSH2 0xBB7 DUP4 PUSH2 0x15F1 JUMP JUMPDEST PUSH2 0x1601 JUMP JUMPDEST SWAP11 POP PUSH2 0xBD0 DUP12 PUSH2 0xBCB DUP4 PUSH2 0x1612 JUMP JUMPDEST PUSH2 0x1622 JUMP JUMPDEST SWAP11 POP PUSH2 0xBE4 DUP12 PUSH2 0xBDF DUP4 PUSH2 0x1633 JUMP JUMPDEST PUSH2 0x1643 JUMP JUMPDEST SWAP11 POP PUSH2 0xC54 JUMP JUMPDEST PUSH2 0xC18 DUP12 DUP11 PUSH1 0x26 ADD PUSH1 0x0 PUSH2 0xC04 DUP14 DUP16 PUSH1 0x2 DUP10 PUSH1 0x17 PUSH2 0x131B JUMP JUMPDEST DUP2 MSTORE PUSH1 0x20 ADD SWAP1 DUP2 MSTORE PUSH1 0x20 ADD PUSH1 0x0 KECCAK256 SLOAD PUSH2 0x15E0 JUMP JUMPDEST SWAP11 POP PUSH2 0xC2B DUP12 PUSH2 0xBB7 DUP12 DUP14 DUP7 PUSH1 0x18 PUSH2 0x14BE JUMP JUMPDEST SWAP11 POP PUSH2 0xC3E DUP12 PUSH2 0xBCB DUP12 DUP14 DUP7 PUSH1 0x19 PUSH2 0x14BE JUMP JUMPDEST SWAP11 POP PUSH2 0xC51 DUP12 PUSH2 0xBDF DUP12 DUP14 DUP7 PUSH1 0x1A PUSH2 0x14BE JUMP JUMPDEST SWAP11 POP JUMPDEST DUP4 DUP1 ISZERO PUSH2 0xC6D JUMPI POP DUP3 PUSH2 0xC6B PUSH2 0x2710 DUP5 PUSH1 0x1F PUSH2 0x1241 JUMP JUMPDEST LT JUMPDEST ISZERO PUSH2 0xD09 JUMPI DUP6 DUP1 ISZERO PUSH2 0xC7C JUMPI POP DUP5 JUMPDEST ISZERO PUSH2 0xCA4 JUMPI PUSH2 0xC8E PUSH1 0x2 DUP4 PUSH1 0x20 PUSH2 0x1241 JUMP JUMPDEST PUSH1 0x1 EQ PUSH2 0xC9B JUMPI DUP7 PUSH2 0xC9D JUMP JUMPDEST DUP8 JUMPDEST SWAP1 POP PUSH2 0xCB4 JUMP JUMPDEST DUP6 PUSH2 0xCAF JUMPI DUP7 PUSH2 0xCB1 JUMP JUMPDEST DUP8 JUMPDEST SWAP1 POP JUMPDEST PUSH2 0xCC6 DUP12 PUSH2 0xCC1 DUP4 PUSH2 0x1654 JUMP JUMPDEST PUSH2 0x1664 JUMP JUMPDEST SWAP11 POP PUSH2 0xCDA DUP12 PUSH2 0xCD5 DUP4 PUSH2 0x1675 JUMP JUMPDEST PUSH2 0x1685 JUMP JUMPDEST SWAP11 POP PUSH2 0xCEE DUP12 PUSH2 0xCE9 DUP4 PUSH2 0x1696 JUMP JUMPDEST PUSH2 0x16A6 JUMP JUMPDEST SWAP11 POP PUSH2 0xD02 DUP12 PUSH2 0xCFD DUP4 PUSH2 0x16B7 JUMP JUMPDEST PUSH2 0x16C7 JUMP JUMPDEST SWAP11 POP PUSH2 0xD72 JUMP JUMPDEST PUSH2 0xD36 DUP12 DUP11 PUSH1 0x26 ADD PUSH1 0x0 PUSH2 0xD22 DUP14 DUP16 PUSH1 0x3 DUP10 PUSH1 0x21 PUSH2 0x131B JUMP JUMPDEST DUP2 MSTORE PUSH1 0x20 ADD SWAP1 DUP2 MSTORE PUSH1 0x20 ADD PUSH1 0x0 KECCAK256 SLOAD PUSH2 0x1664 JUMP JUMPDEST SWAP11 POP PUSH2 0xD49 DUP12 PUSH2 0xCD5 DUP12 DUP14 DUP7 PUSH1 0x22 PUSH2 0x14BE JUMP JUMPDEST SWAP11 POP PUSH2 0xD5C DUP12 PUSH2 0xCE9 DUP12 DUP14 DUP7 PUSH1 0x23 PUSH2 0x14BE JUMP JUMPDEST SWAP11 POP PUSH2 0xD6F DUP12 PUSH2 0xCFD DUP12 DUP14 DUP7 PUSH1 0x24 PUSH2 0x14BE JUMP JUMPDEST SWAP11 POP JUMPDEST DUP4 DUP1 ISZERO PUSH2 0xD8B JUMPI POP DUP3 PUSH2 0xD89 PUSH2 0x2710 DUP5 PUSH1 0x29 PUSH2 0x1241 JUMP JUMPDEST LT JUMPDEST ISZERO PUSH2 0xE27 JUMPI DUP6 DUP1 ISZERO PUSH2 0xD9A JUMPI POP DUP5 JUMPDEST ISZERO PUSH2 0xDC2 JUMPI PUSH2 0xDAC PUSH1 0x2 DUP4 PUSH1 0x2A PUSH2 0x1241 JUMP JUMPDEST PUSH1 0x1 EQ PUSH2 0xDB9 JUMPI DUP7 PUSH2 0xDBB JUMP JUMPDEST DUP8 JUMPDEST SWAP1 POP PUSH2 0xDD2 JUMP JUMPDEST DUP6 PUSH2 0xDCD JUMPI DUP7 PUSH2 0xDCF JUMP JUMPDEST DUP8 JUMPDEST SWAP1 POP JUMPDEST PUSH2 0xDE4 DUP12 PUSH2 0xDDF DUP4 PUSH2 0x16D8 JUMP JUMPDEST PUSH2 0x16E8 JUMP JUMPDEST SWAP11 POP PUSH2 0xDF8 DUP12 PUSH2 0xDF3 DUP4 PUSH2 0x16F9 JUMP JUMPDEST PUSH2 0x1709 JUMP JUMPDEST SWAP11 POP PUSH2 0xE0C DUP12 PUSH2 0xE07 DUP4 PUSH2 0x171A JUMP JUMPDEST PUSH2 0x172A JUMP JUMPDEST SWAP11 POP PUSH2 0xE20 DUP12 PUSH2 0xE1B DUP4 PUSH2 0x173B JUMP JUMPDEST PUSH2 0x174B JUMP JUMPDEST SWAP11 POP PUSH2 0xE90 JUMP JUMPDEST PUSH2 0xE54 DUP12 DUP11 PUSH1 0x26 ADD PUSH1 0x0 PUSH2 0xE40 DUP14 DUP16 PUSH1 0x4 DUP10 PUSH1 0x2B PUSH2 0x131B JUMP JUMPDEST DUP2 MSTORE PUSH1 0x20 ADD SWAP1 DUP2 MSTORE PUSH1 0x20 ADD PUSH1 0x0 KECCAK256 SLOAD PUSH2 0x16E8 JUMP JUMPDEST SWAP11 POP PUSH2 0xE67 DUP12 PUSH2 0xDF3 DUP12 DUP14 DUP7 PUSH1 0x2C PUSH2 0x14BE JUMP JUMPDEST SWAP11 POP PUSH2 0xE7A DUP12 PUSH2 0xE07 DUP12 DUP14 DUP7 PUSH1 0x2D PUSH2 0x14BE JUMP JUMPDEST SWAP11 POP PUSH2 0xE8D DUP12 PUSH2 0xE1B DUP12 DUP14 DUP7 PUSH1 0x2E PUSH2 0x14BE JUMP JUMPDEST SWAP11 POP JUMPDEST DUP4 DUP1 ISZERO PUSH2 0xEA9 JUMPI POP DUP3 PUSH2 0xEA7 PUSH2 0x2710 DUP5 PUSH1 0x33 PUSH2 0x1241 JUMP JUMPDEST LT JUMPDEST ISZERO PUSH2 0xF45 JUMPI DUP6 DUP1 ISZERO PUSH2 0xEB8 JUMPI POP DUP5 JUMPDEST ISZERO PUSH2 0xEE0 JUMPI PUSH2 0xECA PUSH1 0x2 DUP4 PUSH1 0x34 PUSH2 0x1241 JUMP JUMPDEST PUSH1 0x1 EQ PUSH2 0xED7 JUMPI DUP7 PUSH2 0xED9 JUMP JUMPDEST DUP8 JUMPDEST SWAP1 POP PUSH2 0xEF0 JUMP JUMPDEST DUP6 PUSH2 0xEEB JUMPI DUP7 PUSH2 0xEED JUMP JUMPDEST DUP8 JUMPDEST SWAP1 POP JUMPDEST PUSH2 0xF02 DUP12 PUSH2 0xEFD DUP4 PUSH2 0x175C JUMP JUMPDEST PUSH2 0x176C JUMP JUMPDEST SWAP11 POP PUSH2 0xF16 DUP12 PUSH2 0xF11 DUP4 PUSH2 0x177D JUMP JUMPDEST PUSH2 0x178D JUMP JUMPDEST SWAP11 POP PUSH2 0xF2A DUP12 PUSH2 0xF25 DUP4 PUSH2 0x179E JUMP JUMPDEST PUSH2 0x17AE JUMP JUMPDEST SWAP11 POP PUSH2 0xF3E DUP12 PUSH2 0xF39 DUP4 PUSH2 0x17BF JUMP JUMPDEST PUSH2 0x17CF JUMP JUMPDEST SWAP11 POP PUSH2 0xFAE JUMP JUMPDEST PUSH2 0xF72 DUP12 DUP11 PUSH1 0x26 ADD PUSH1 0x0 PUSH2 0xF5E DUP14 DUP16 PUSH1 0x5 DUP10 PUSH1 0x35 PUSH2 0x131B JUMP JUMPDEST DUP2 MSTORE PUSH1 0x20 ADD SWAP1 DUP2 MSTORE PUSH1 0x20 ADD PUSH1 0x0 KECCAK256 SLOAD PUSH2 0x176C JUMP JUMPDEST SWAP11 POP PUSH2 0xF85 DUP12 PUSH2 0xF11 DUP12 DUP14 DUP7 PUSH1 0x36 PUSH2 0x14BE JUMP JUMPDEST SWAP11 POP PUSH2 0xF98 DUP12 PUSH2 0xF25 DUP12 DUP14 DUP7 PUSH1 0x37 PUSH2 0x14BE JUMP JUMPDEST SWAP11 POP PUSH2 0xFAB DUP12 PUSH2 0xF39 DUP12 DUP14 DUP7 PUSH1 0x38 PUSH2 0x14BE JUMP JUMPDEST SWAP11 POP JUMPDEST DUP4 DUP1 ISZERO PUSH2 0xFC7 JUMPI POP DUP3 PUSH2 0xFC5 PUSH2 0x2710 DUP5 PUSH1 0x3D PUSH2 0x1241 JUMP JUMPDEST LT JUMPDEST ISZERO PUSH2 0x1063 JUMPI DUP6 DUP1 ISZERO PUSH2 0xFD6 JUMPI POP DUP5 JUMPDEST ISZERO PUSH2 0xFFE JUMPI PUSH2 0xFE8 PUSH1 0x2 DUP4 PUSH1 0x3E PUSH2 0x1241 JUMP JUMPDEST PUSH1 0x1 EQ PUSH2 0xFF5 JUMPI DUP7 PUSH2 0xFF7 JUMP JUMPDEST DUP8 JUMPDEST SWAP1 POP PUSH2 0x100E JUMP JUMPDEST DUP6 PUSH2 0x1009 JUMPI DUP7 PUSH2 0x100B JUMP JUMPDEST DUP8 JUMPDEST SWAP1 POP JUMPDEST PUSH2 0x1020 DUP12 PUSH2 0x101B DUP4 PUSH2 0x17E0 JUMP JUMPDEST PUSH2 0x17F0 JUMP JUMPDEST SWAP11 POP PUSH2 0x1034 DUP12 PUSH2 0x102F DUP4 PUSH2 0x1801 JUMP JUMPDEST PUSH2 0x1811 JUMP JUMPDEST SWAP11 POP PUSH2 0x1048 DUP12 PUSH2 0x1043 DUP4 PUSH2 0x1822 JUMP JUMPDEST PUSH2 0x1832 JUMP JUMPDEST SWAP11 POP PUSH2 0x105C DUP12 PUSH2 0x1057 DUP4 PUSH2 0x1843 JUMP JUMPDEST PUSH2 0x1853 JUMP JUMPDEST SWAP11 POP PUSH2 0x10CC JUMP JUMPDEST PUSH2 0x1090 DUP12 DUP11 PUSH1 0x26 ADD PUSH1 0x0 PUSH2 0x107C DUP14 DUP16 PUSH1 0x6 DUP10 PUSH1 0x3F PUSH2 0x131B JUMP JUMPDEST DUP2 MSTORE PUSH1 0x20 ADD SWAP1 DUP2 MSTORE PUSH1 0x20 ADD PUSH1 0x0 KECCAK256 SLOAD PUSH2 0x17F0 JUMP JUMPDEST SWAP11 POP PUSH2 0x10A3 DUP12 PUSH2 0x102F DUP12 DUP14 DUP7 PUSH1 0x40 PUSH2 0x14BE JUMP JUMPDEST SWAP11 POP PUSH2 0x10B6 DUP12 PUSH2 0x1043 DUP12 DUP14 DUP7 PUSH1 0x41 PUSH2 0x14BE JUMP JUMPDEST SWAP11 POP PUSH2 0x10C9 DUP12 PUSH2 0x1057 DUP12 DUP14 DUP7 PUSH1 0x42 PUSH2 0x14BE JUMP JUMPDEST SWAP11 POP JUMPDEST POP SWAP9 SWAP14 SWAP13 POP POP POP POP POP POP POP POP POP POP POP POP POP JUMP JUMPDEST PUSH32 0xC8FCAD8DB84D3CC18B4C41D551EA0EE66DD599CDE068D998E57D5E09332C135D SLOAD PUSH2 0x110A DUP3 PUSH2 0x1864 JUMP JUMPDEST EQ PUSH2 0x1162 JUMPI PUSH1 0x40 MLOAD PUSH3 0x461BCD PUSH1 0xE5 SHL DUP2 MSTORE PUSH1 0x20 PUSH1 0x4 DUP3 ADD MSTORE PUSH1 0x22 PUSH1 0x24 DUP3 ADD MSTORE PUSH32 0x4C6962556E69636F726E444E413A20496E76616C696420444E41207665727369 PUSH1 0x44 DUP3 ADD MSTORE PUSH2 0x37B7 PUSH1 0xF1 SHL PUSH1 0x64 DUP3 ADD MSTORE PUSH1 0x84 ADD PUSH2 0x6F6 JUMP JUMPDEST POP JUMP JUMPDEST PUSH1 0x0 PUSH2 0xFD DUP3 PUSH2 0x3FF PUSH1 0xD5 SHL PUSH2 0x1183 JUMP JUMPDEST PUSH1 0x0 PUSH2 0xFD DUP3 PUSH2 0x3FF PUSH1 0xDF SHL JUMPDEST PUSH1 0x0 DUP1 PUSH2 0x118F DUP4 PUSH2 0x1871 JUMP JUMPDEST SWAP3 SWAP1 SWAP4 AND SWAP1 SWAP2 SHR SWAP3 SWAP2 POP POP JUMP JUMPDEST PUSH1 0x0 DUP2 DUP2 MSTORE PUSH32 0xC8FCAD8DB84D3CC18B4C41D551EA0EE66DD599CDE068D998E57D5E09332C1335 PUSH1 0x20 MSTORE PUSH1 0x40 DUP2 KECCAK256 SLOAD PUSH1 0x80 DUP2 AND ISZERO ISZERO PUSH2 0x11B JUMP JUMPDEST PUSH1 0x0 DUP2 DUP2 MSTORE PUSH32 0xC8FCAD8DB84D3CC18B4C41D551EA0EE66DD599CDE068D998E57D5E09332C1335 PUSH1 0x20 MSTORE PUSH1 0x40 DUP2 KECCAK256 SLOAD PUSH1 0x40 DUP2 AND ISZERO ISZERO PUSH2 0x11B JUMP JUMPDEST PUSH1 0x0 PUSH1 0x0 DUP1 MLOAD PUSH1 0x20 PUSH2 0x1C9B DUP4 CODECOPY DUP2 MLOAD SWAP2 MSTORE PUSH2 0x412 JUMP JUMPDEST PUSH1 0x0 PUSH2 0xFD DUP3 PUSH2 0x1800 PUSH2 0x1183 JUMP JUMPDEST PUSH1 0x0 PUSH2 0x11B DUP4 DUP4 PUSH2 0x1800 PUSH2 0x1894 JUMP JUMPDEST PUSH1 0x0 DUP4 DUP4 DUP4 PUSH1 0x40 MLOAD PUSH1 0x20 ADD PUSH2 0x1260 SWAP3 SWAP2 SWAP1 SWAP2 DUP3 MSTORE PUSH1 0x20 DUP3 ADD MSTORE PUSH1 0x40 ADD SWAP1 JUMP JUMPDEST PUSH1 0x40 MLOAD PUSH1 0x20 DUP2 DUP4 SUB SUB DUP2 MSTORE SWAP1 PUSH1 0x40 MSTORE DUP1 MLOAD SWAP1 PUSH1 0x20 ADD KECCAK256 PUSH1 0x0 SHR PUSH2 0x1283 SWAP2 SWAP1 PUSH2 0x1C78 JUMP JUMPDEST SWAP5 SWAP4 POP POP POP POP JUMP JUMPDEST PUSH1 0x0 PUSH2 0xFD DUP3 PUSH4 0x1FE00000 PUSH2 0x1183 JUMP JUMPDEST PUSH1 0x0 PUSH2 0x11B DUP4 DUP4 PUSH4 0x1FE00000 PUSH2 0x1894 JUMP JUMPDEST PUSH1 0x0 PUSH2 0xFD DUP3 PUSH5 0x1FE0000000 PUSH2 0x1183 JUMP JUMPDEST PUSH1 0x0 PUSH2 0x11B DUP4 DUP4 PUSH5 0x1FE0000000 PUSH2 0x1894 JUMP JUMPDEST PUSH1 0x0 PUSH2 0xFD DUP3 PUSH6 0x1FE000000000 PUSH2 0x1183 JUMP JUMPDEST PUSH1 0x0 PUSH2 0x11B DUP4 DUP4 PUSH6 0x1FE000000000 PUSH2 0x1894 JUMP JUMPDEST PUSH1 0x0 PUSH2 0xFD DUP3 PUSH7 0x1FE00000000000 PUSH2 0x1183 JUMP JUMPDEST PUSH1 0x0 PUSH2 0x11B DUP4 DUP4 PUSH7 0x1FE00000000000 PUSH2 0x1894 JUMP JUMPDEST PUSH1 0x0 DUP5 DUP2 MSTORE PUSH1 0x29 DUP7 ADD PUSH1 0x20 SWAP1 DUP2 MSTORE PUSH1 0x40 DUP1 DUP4 KECCAK256 DUP7 DUP5 MSTORE SWAP1 SWAP2 MSTORE DUP2 KECCAK256 SLOAD DUP2 DUP1 JUMPDEST DUP3 DUP2 LT ISZERO PUSH2 0x13AF JUMPI PUSH1 0x0 DUP9 DUP2 MSTORE PUSH1 0x29 DUP11 ADD PUSH1 0x20 SWAP1 DUP2 MSTORE PUSH1 0x40 DUP1 DUP4 KECCAK256 DUP11 DUP5 MSTORE SWAP1 SWAP2 MSTORE DUP2 KECCAK256 DUP1 SLOAD PUSH1 0x2B DUP13 ADD SWAP3 SWAP2 SWAP1 DUP5 SWAP1 DUP2 LT PUSH2 0x1376 JUMPI PUSH2 0x1376 PUSH2 0x1B52 JUMP JUMPDEST SWAP1 PUSH1 0x0 MSTORE PUSH1 0x20 PUSH1 0x0 KECCAK256 ADD SLOAD DUP2 MSTORE PUSH1 0x20 ADD SWAP1 DUP2 MSTORE PUSH1 0x20 ADD PUSH1 0x0 KECCAK256 SLOAD DUP3 PUSH2 0x139B SWAP2 SWAP1 PUSH2 0x1B3A JUMP JUMPDEST SWAP2 POP DUP1 PUSH2 0x13A7 DUP2 PUSH2 0x1B68 JUMP JUMPDEST SWAP2 POP POP PUSH2 0x133A JUMP JUMPDEST POP PUSH1 0x0 PUSH2 0x13BD DUP3 DUP8 DUP8 PUSH2 0x1241 JUMP JUMPDEST PUSH2 0x13C8 SWAP1 PUSH1 0x1 PUSH2 0x1B3A JUMP JUMPDEST SWAP1 POP PUSH1 0x0 DUP1 JUMPDEST DUP5 DUP2 LT ISZERO PUSH2 0x1458 JUMPI PUSH1 0x0 DUP11 DUP2 MSTORE PUSH1 0x29 DUP13 ADD PUSH1 0x20 SWAP1 DUP2 MSTORE PUSH1 0x40 DUP1 DUP4 KECCAK256 DUP13 DUP5 MSTORE SWAP1 SWAP2 MSTORE DUP2 KECCAK256 DUP1 SLOAD DUP4 SWAP1 DUP2 LT PUSH2 0x1403 JUMPI PUSH2 0x1403 PUSH2 0x1B52 JUMP JUMPDEST PUSH1 0x0 SWAP2 DUP3 MSTORE PUSH1 0x20 DUP1 DUP4 KECCAK256 SWAP1 SWAP2 ADD SLOAD DUP1 DUP4 MSTORE PUSH1 0x2B DUP16 ADD SWAP1 SWAP2 MSTORE PUSH1 0x40 SWAP1 SWAP2 KECCAK256 SLOAD SWAP1 SWAP2 POP PUSH2 0x142E DUP2 DUP6 PUSH2 0x1B3A JUMP JUMPDEST SWAP4 POP DUP4 DUP6 GT PUSH2 0x1445 JUMPI POP SWAP6 POP PUSH2 0x14B5 SWAP5 POP POP POP POP POP JUMP JUMPDEST POP POP DUP1 PUSH2 0x1451 SWAP1 PUSH2 0x1B68 JUMP JUMPDEST SWAP1 POP PUSH2 0x13CE JUMP JUMPDEST POP PUSH1 0x40 MLOAD PUSH3 0x461BCD PUSH1 0xE5 SHL DUP2 MSTORE PUSH1 0x20 PUSH1 0x4 DUP3 ADD MSTORE PUSH1 0x2B PUSH1 0x24 DUP3 ADD MSTORE PUSH32 0x4861746368696E6746616365743A204661696C65642067657474696E6720524E PUSH1 0x44 DUP3 ADD MSTORE PUSH11 0x4720626F64797061727473 PUSH1 0xA8 SHL PUSH1 0x64 DUP3 ADD MSTORE PUSH1 0x84 ADD PUSH2 0x6F6 JUMP JUMPDEST SWAP6 SWAP5 POP POP POP POP POP JUMP JUMPDEST PUSH1 0x0 DUP4 DUP2 MSTORE PUSH1 0x21 DUP6 ADD PUSH1 0x20 SWAP1 DUP2 MSTORE PUSH1 0x40 DUP1 DUP4 KECCAK256 SLOAD PUSH1 0x22 DUP9 ADD SWAP1 SWAP3 MSTORE DUP3 KECCAK256 SLOAD DUP3 SWAP1 PUSH2 0x14E9 SWAP1 DUP7 DUP7 PUSH2 0x1241 JUMP JUMPDEST PUSH2 0x14F4 SWAP1 PUSH1 0x1 PUSH2 0x1B3A JUMP JUMPDEST SWAP1 POP PUSH1 0x0 DUP1 JUMPDEST DUP4 DUP2 LT ISZERO PUSH2 0x1578 JUMPI PUSH1 0x0 DUP9 DUP2 MSTORE PUSH1 0x21 DUP11 ADD PUSH1 0x20 MSTORE PUSH1 0x40 DUP2 KECCAK256 DUP1 SLOAD DUP4 SWAP1 DUP2 LT PUSH2 0x1524 JUMPI PUSH2 0x1524 PUSH2 0x1B52 JUMP JUMPDEST SWAP1 PUSH1 0x0 MSTORE PUSH1 0x20 PUSH1 0x0 KECCAK256 ADD SLOAD SWAP1 POP DUP10 PUSH1 0x23 ADD PUSH1 0x0 DUP3 DUP2 MSTORE PUSH1 0x20 ADD SWAP1 DUP2 MSTORE PUSH1 0x20 ADD PUSH1 0x0 KECCAK256 SLOAD DUP4 PUSH2 0x1552 SWAP2 SWAP1 PUSH2 0x1B3A JUMP JUMPDEST SWAP3 POP DUP3 DUP5 GT PUSH2 0x1567 JUMPI SWAP5 POP PUSH2 0x1283 SWAP4 POP POP POP POP JUMP JUMPDEST POP PUSH2 0x1571 DUP2 PUSH2 0x1B68 JUMP JUMPDEST SWAP1 POP PUSH2 0x14FA JUMP JUMPDEST POP PUSH1 0x40 MLOAD PUSH3 0x461BCD PUSH1 0xE5 SHL DUP2 MSTORE PUSH1 0x20 PUSH1 0x4 DUP3 ADD MSTORE PUSH1 0x26 PUSH1 0x24 DUP3 ADD MSTORE PUSH32 0x4861746368696E6746616365743A204661696C65642067657474696E6720524E PUSH1 0x44 DUP3 ADD MSTORE PUSH6 0x472067656E65 PUSH1 0xD0 SHL PUSH1 0x64 DUP3 ADD MSTORE PUSH1 0x84 ADD PUSH2 0x6F6 JUMP JUMPDEST PUSH1 0x0 PUSH2 0xFD DUP3 PUSH1 0xFF PUSH1 0x35 SHL PUSH2 0x1183 JUMP JUMPDEST PUSH1 0x0 PUSH2 0x11B DUP4 DUP4 PUSH1 0xFF PUSH1 0x35 SHL PUSH2 0x1894 JUMP JUMPDEST PUSH1 0x0 PUSH2 0xFD DUP3 PUSH1 0xFF PUSH1 0x3D SHL PUSH2 0x1183 JUMP JUMPDEST PUSH1 0x0 PUSH2 0x11B DUP4 DUP4 PUSH1 0xFF PUSH1 0x3D SHL PUSH2 0x1894 JUMP JUMPDEST PUSH1 0x0 PUSH2 0xFD DUP3 PUSH1 0xFF PUSH1 0x45 SHL PUSH2 0x1183 JUMP JUMPDEST PUSH1 0x0 PUSH2 0x11B DUP4 DUP4 PUSH1 0xFF PUSH1 0x45 SHL PUSH2 0x1894 JUMP JUMPDEST PUSH1 0x0 PUSH2 0xFD DUP3 PUSH1 0xFF PUSH1 0x4D SHL PUSH2 0x1183 JUMP JUMPDEST PUSH1 0x0 PUSH2 0x11B DUP4 DUP4 PUSH1 0xFF PUSH1 0x4D SHL PUSH2 0x1894 JUMP JUMPDEST PUSH1 0x0 PUSH2 0xFD DUP3 PUSH1 0xFF PUSH1 0x55 SHL PUSH2 0x1183 JUMP JUMPDEST PUSH1 0x0 PUSH2 0x11B DUP4 DUP4 PUSH1 0xFF PUSH1 0x55 SHL PUSH2 0x1894 JUMP JUMPDEST PUSH1 0x0 PUSH2 0xFD DUP3 PUSH1 0xFF PUSH1 0x5D SHL PUSH2 0x1183 JUMP JUMPDEST PUSH1 0x0 PUSH2 0x11B DUP4 DUP4 PUSH1 0xFF PUSH1 0x5D SHL PUSH2 0x1894 JUMP JUMPDEST PUSH1 0x0 PUSH2 0xFD DUP3 PUSH1 0xFF PUSH1 0x65 SHL PUSH2 0x1183 JUMP JUMPDEST PUSH1 0x0 PUSH2 0x11B DUP4 DUP4 PUSH1 0xFF PUSH1 0x65 SHL PUSH2 0x1894 JUMP JUMPDEST PUSH1 0x0 PUSH2 0xFD DUP3 PUSH1 0xFF PUSH1 0x6D SHL PUSH2 0x1183 JUMP JUMPDEST PUSH1 0x0 PUSH2 0x11B DUP4 DUP4 PUSH1 0xFF PUSH1 0x6D SHL PUSH2 0x1894 JUMP JUMPDEST PUSH1 0x0 PUSH2 0xFD DUP3 PUSH1 0xFF PUSH1 0x75 SHL PUSH2 0x1183 JUMP JUMPDEST PUSH1 0x0 PUSH2 0x11B DUP4 DUP4 PUSH1 0xFF PUSH1 0x75 SHL PUSH2 0x1894 JUMP JUMPDEST PUSH1 0x0 PUSH2 0xFD DUP3 PUSH1 0xFF PUSH1 0x7D SHL PUSH2 0x1183 JUMP JUMPDEST PUSH1 0x0 PUSH2 0x11B DUP4 DUP4 PUSH1 0xFF PUSH1 0x7D SHL PUSH2 0x1894 JUMP JUMPDEST PUSH1 0x0 PUSH2 0xFD DUP3 PUSH1 0xFF PUSH1 0x85 SHL PUSH2 0x1183 JUMP JUMPDEST PUSH1 0x0 PUSH2 0x11B DUP4 DUP4 PUSH1 0xFF PUSH1 0x85 SHL PUSH2 0x1894 JUMP JUMPDEST PUSH1 0x0 PUSH2 0xFD DUP3 PUSH1 0xFF PUSH1 0x8D SHL PUSH2 0x1183 JUMP JUMPDEST PUSH1 0x0 PUSH2 0x11B DUP4 DUP4 PUSH1 0xFF PUSH1 0x8D SHL PUSH2 0x1894 JUMP JUMPDEST PUSH1 0x0 PUSH2 0xFD DUP3 PUSH1 0xFF PUSH1 0x95 SHL PUSH2 0x1183 JUMP JUMPDEST PUSH1 0x0 PUSH2 0x11B DUP4 DUP4 PUSH1 0xFF PUSH1 0x95 SHL PUSH2 0x1894 JUMP JUMPDEST PUSH1 0x0 PUSH2 0xFD DUP3 PUSH1 0xFF PUSH1 0x9D SHL PUSH2 0x1183 JUMP JUMPDEST PUSH1 0x0 PUSH2 0x11B DUP4 DUP4 PUSH1 0xFF PUSH1 0x9D SHL PUSH2 0x1894 JUMP JUMPDEST PUSH1 0x0 PUSH2 0xFD DUP3 PUSH1 0xFF PUSH1 0xA5 SHL PUSH2 0x1183 JUMP JUMPDEST PUSH1 0x0 PUSH2 0x11B DUP4 DUP4 PUSH1 0xFF PUSH1 0xA5 SHL PUSH2 0x1894 JUMP JUMPDEST PUSH1 0x0 PUSH2 0xFD DUP3 PUSH1 0xFF PUSH1 0xAD SHL PUSH2 0x1183 JUMP JUMPDEST PUSH1 0x0 PUSH2 0x11B DUP4 DUP4 PUSH1 0xFF PUSH1 0xAD SHL PUSH2 0x1894 JUMP JUMPDEST PUSH1 0x0 PUSH2 0xFD DUP3 PUSH1 0xFF PUSH1 0xB5 SHL PUSH2 0x1183 JUMP JUMPDEST PUSH1 0x0 PUSH2 0x11B DUP4 DUP4 PUSH1 0xFF PUSH1 0xB5 SHL PUSH2 0x1894 JUMP JUMPDEST PUSH1 0x0 PUSH2 0xFD DUP3 PUSH1 0xFF PUSH1 0xBD SHL PUSH2 0x1183 JUMP JUMPDEST PUSH1 0x0 PUSH2 0x11B DUP4 DUP4 PUSH1 0xFF PUSH1 0xBD SHL PUSH2 0x1894 JUMP JUMPDEST PUSH1 0x0 PUSH2 0xFD DUP3 PUSH1 0xFF PUSH1 0xC5 SHL PUSH2 0x1183 JUMP JUMPDEST PUSH1 0x0 PUSH2 0x11B DUP4 DUP4 PUSH1 0xFF PUSH1 0xC5 SHL PUSH2 0x1894 JUMP JUMPDEST PUSH1 0x0 PUSH2 0xFD DUP3 PUSH1 0xFF PUSH1 0xCD SHL PUSH2 0x1183 JUMP JUMPDEST PUSH1 0x0 PUSH2 0x11B DUP4 DUP4 PUSH1 0xFF PUSH1 0xCD SHL PUSH2 0x1894 JUMP JUMPDEST PUSH1 0x0 PUSH2 0xFD DUP3 PUSH1 0xFF PUSH2 0x1183 JUMP JUMPDEST PUSH1 0x0 DUP1 JUMPDEST PUSH1 0x1 DUP4 AND PUSH2 0xFD JUMPI PUSH1 0x1 SWAP3 SWAP1 SWAP3 SHR SWAP2 PUSH2 0x188D DUP2 PUSH2 0x1B68 JUMP JUMPDEST SWAP1 POP PUSH2 0x1875 JUMP JUMPDEST PUSH1 0x0 DUP1 PUSH2 0x18A0 DUP4 PUSH2 0x1871 JUMP JUMPDEST PUSH1 0x0 NOT DUP5 XOR DUP7 AND SWAP1 DUP6 SWAP1 SHL DUP5 AND OR SWAP2 POP POP SWAP4 SWAP3 POP POP POP JUMP JUMPDEST PUSH1 0x0 PUSH1 0x20 DUP3 DUP5 SUB SLT ISZERO PUSH2 0x18CA JUMPI PUSH1 0x0 DUP1 REVERT JUMPDEST POP CALLDATALOAD SWAP2 SWAP1 POP JUMP JUMPDEST PUSH1 0x0 DUP2 MLOAD DUP1 DUP5 MSTORE PUSH1 0x0 JUMPDEST DUP2 DUP2 LT ISZERO PUSH2 0x18F7 JUMPI PUSH1 0x20 DUP2 DUP6 ADD DUP2 ADD MLOAD DUP7 DUP4 ADD DUP3 ADD MSTORE ADD PUSH2 0x18DB JUMP JUMPDEST DUP2 DUP2 GT ISZERO PUSH2 0x1909 JUMPI PUSH1 0x0 PUSH1 0x20 DUP4 DUP8 ADD ADD MSTORE JUMPDEST POP PUSH1 0x1F ADD PUSH1 0x1F NOT AND SWAP3 SWAP1 SWAP3 ADD PUSH1 0x20 ADD SWAP3 SWAP2 POP POP JUMP JUMPDEST PUSH1 0x20 DUP2 MSTORE PUSH1 0x0 PUSH2 0x11B PUSH1 0x20 DUP4 ADD DUP5 PUSH2 0x18D1 JUMP JUMPDEST PUSH1 0x0 DUP1 PUSH1 0x40 DUP4 DUP6 SUB SLT ISZERO PUSH2 0x1944 JUMPI PUSH1 0x0 DUP1 REVERT JUMPDEST DUP3 CALLDATALOAD PUSH1 0x1 PUSH1 0x1 PUSH1 0xA0 SHL SUB DUP2 AND DUP2 EQ PUSH2 0x195B JUMPI PUSH1 0x0 DUP1 REVERT JUMPDEST SWAP2 POP PUSH1 0x20 DUP4 ADD CALLDATALOAD PUSH4 0xFFFFFFFF DUP2 AND DUP2 EQ PUSH2 0x1974 JUMPI PUSH1 0x0 DUP1 REVERT JUMPDEST DUP1 SWAP2 POP POP SWAP3 POP SWAP3 SWAP1 POP JUMP JUMPDEST PUSH1 0x0 DUP3 DUP3 MLOAD DUP1 DUP6 MSTORE PUSH1 0x20 DUP1 DUP7 ADD SWAP6 POP DUP1 DUP3 PUSH1 0x5 SHL DUP5 ADD ADD DUP2 DUP7 ADD PUSH1 0x0 JUMPDEST DUP5 DUP2 LT ISZERO PUSH2 0x19CA JUMPI PUSH1 0x1F NOT DUP7 DUP5 SUB ADD DUP10 MSTORE PUSH2 0x19B8 DUP4 DUP4 MLOAD PUSH2 0x18D1 JUMP JUMPDEST SWAP9 DUP5 ADD SWAP9 SWAP3 POP SWAP1 DUP4 ADD SWAP1 PUSH1 0x1 ADD PUSH2 0x199C JUMP JUMPDEST POP SWAP1 SWAP8 SWAP7 POP POP POP POP POP POP POP JUMP JUMPDEST PUSH1 0x0 DUP2 MLOAD DUP1 DUP5 MSTORE PUSH1 0x20 DUP1 DUP6 ADD SWAP5 POP DUP1 DUP5 ADD PUSH1 0x0 JUMPDEST DUP4 DUP2 LT ISZERO PUSH2 0x1A09 JUMPI DUP2 MLOAD ISZERO ISZERO DUP8 MSTORE SWAP6 DUP3 ADD SWAP6 SWAP1 DUP3 ADD SWAP1 PUSH1 0x1 ADD PUSH2 0x19EB JUMP JUMPDEST POP SWAP5 SWAP6 SWAP5 POP POP POP POP POP JUMP JUMPDEST PUSH1 0xA0 DUP1 DUP3 MSTORE DUP7 MLOAD SWAP1 DUP3 ADD DUP2 SWAP1 MSTORE PUSH1 0x0 SWAP1 PUSH1 0x20 SWAP1 PUSH1 0xC0 DUP5 ADD SWAP1 DUP3 DUP11 ADD DUP5 JUMPDEST DUP3 DUP2 LT ISZERO PUSH2 0x1A4D JUMPI DUP2 MLOAD DUP5 MSTORE SWAP3 DUP5 ADD SWAP3 SWAP1 DUP5 ADD SWAP1 PUSH1 0x1 ADD PUSH2 0x1A31 JUMP JUMPDEST POP POP POP DUP4 DUP2 SUB DUP3 DUP6 ADD MSTORE DUP8 MLOAD DUP1 DUP3 MSTORE DUP9 DUP4 ADD SWAP2 DUP4 ADD SWAP1 PUSH1 0x0 JUMPDEST DUP2 DUP2 LT ISZERO PUSH2 0x1A86 JUMPI DUP4 MLOAD PUSH2 0xFFFF AND DUP4 MSTORE SWAP3 DUP5 ADD SWAP3 SWAP2 DUP5 ADD SWAP2 PUSH1 0x1 ADD PUSH2 0x1A66 JUMP JUMPDEST POP POP DUP5 DUP2 SUB PUSH1 0x40 DUP7 ADD MSTORE PUSH2 0x1A9A DUP2 DUP10 PUSH2 0x197F JUMP JUMPDEST SWAP3 POP POP POP DUP3 DUP2 SUB PUSH1 0x60 DUP5 ADD MSTORE PUSH2 0x1AB0 DUP2 DUP7 PUSH2 0x19D7 JUMP JUMPDEST SWAP2 POP POP PUSH2 0x1AC1 PUSH1 0x80 DUP4 ADD DUP5 ISZERO ISZERO SWAP1 MSTORE JUMP JUMPDEST SWAP7 SWAP6 POP POP POP POP POP POP JUMP JUMPDEST PUSH4 0x4E487B71 PUSH1 0xE0 SHL PUSH1 0x0 MSTORE PUSH1 0x11 PUSH1 0x4 MSTORE PUSH1 0x24 PUSH1 0x0 REVERT JUMPDEST PUSH1 0x0 PUSH4 0xFFFFFFFF DUP1 DUP4 AND DUP2 DUP6 AND DUP2 DUP4 DIV DUP2 GT DUP3 ISZERO ISZERO AND ISZERO PUSH2 0x1B04 JUMPI PUSH2 0x1B04 PUSH2 0x1ACB JUMP JUMPDEST MUL SWAP5 SWAP4 POP POP POP POP JUMP JUMPDEST PUSH1 0x0 DUP3 DUP3 LT ISZERO PUSH2 0x1B1F JUMPI PUSH2 0x1B1F PUSH2 0x1ACB JUMP JUMPDEST POP SUB SWAP1 JUMP JUMPDEST PUSH4 0x4E487B71 PUSH1 0xE0 SHL PUSH1 0x0 MSTORE PUSH1 0x41 PUSH1 0x4 MSTORE PUSH1 0x24 PUSH1 0x0 REVERT JUMPDEST PUSH1 0x0 DUP3 NOT DUP3 GT ISZERO PUSH2 0x1B4D JUMPI PUSH2 0x1B4D PUSH2 0x1ACB JUMP JUMPDEST POP ADD SWAP1 JUMP JUMPDEST PUSH4 0x4E487B71 PUSH1 0xE0 SHL PUSH1 0x0 MSTORE PUSH1 0x32 PUSH1 0x4 MSTORE PUSH1 0x24 PUSH1 0x0 REVERT JUMPDEST PUSH1 0x0 PUSH1 0x0 NOT DUP3 EQ ISZERO PUSH2 0x1B7C JUMPI PUSH2 0x1B7C PUSH2 0x1ACB JUMP JUMPDEST POP PUSH1 0x1 ADD SWAP1 JUMP JUMPDEST PUSH1 0x1 DUP2 DUP2 SHR SWAP1 DUP3 AND DUP1 PUSH2 0x1B97 JUMPI PUSH1 0x7F DUP3 AND SWAP2 POP JUMPDEST PUSH1 0x20 DUP3 LT DUP2 EQ ISZERO PUSH2 0x1BB8 JUMPI PUSH4 0x4E487B71 PUSH1 0xE0 SHL PUSH1 0x0 MSTORE PUSH1 0x22 PUSH1 0x4 MSTORE PUSH1 0x24 PUSH1 0x0 REVERT JUMPDEST POP SWAP2 SWAP1 POP JUMP JUMPDEST DUP1 SLOAD PUSH1 0x0 SWAP1 PUSH1 0x1 DUP2 DUP2 SHR SWAP1 DUP1 DUP4 AND DUP1 PUSH2 0x1BD8 JUMPI PUSH1 0x7F DUP4 AND SWAP3 POP JUMPDEST PUSH1 0x20 DUP1 DUP5 LT DUP3 EQ ISZERO PUSH2 0x1BFA JUMPI PUSH4 0x4E487B71 PUSH1 0xE0 SHL PUSH1 0x0 MSTORE PUSH1 0x22 PUSH1 0x4 MSTORE PUSH1 0x24 PUSH1 0x0 REVERT JUMPDEST DUP2 DUP1 ISZERO PUSH2 0x1C0E JUMPI PUSH1 0x1 DUP2 EQ PUSH2 0x1C1F JUMPI PUSH2 0x1C4C JUMP JUMPDEST PUSH1 0xFF NOT DUP7 AND DUP10 MSTORE DUP5 DUP10 ADD SWAP7 POP PUSH2 0x1C4C JUMP JUMPDEST PUSH1 0x0 DUP9 DUP2 MSTORE PUSH1 0x20 SWAP1 KECCAK256 PUSH1 0x0 JUMPDEST DUP7 DUP2 LT ISZERO PUSH2 0x1C44 JUMPI DUP2 SLOAD DUP12 DUP3 ADD MSTORE SWAP1 DUP6 ADD SWAP1 DUP4 ADD PUSH2 0x1C2B JUMP JUMPDEST POP POP DUP5 DUP10 ADD SWAP7 POP JUMPDEST POP POP POP POP POP POP SWAP3 SWAP2 POP POP JUMP JUMPDEST PUSH1 0x0 PUSH2 0x1C64 DUP3 DUP6 PUSH2 0x1BBE JUMP JUMPDEST PUSH1 0x1 PUSH1 0xFD SHL DUP2 MSTORE PUSH2 0x14B5 PUSH1 0x1 DUP3 ADD DUP6 PUSH2 0x1BBE JUMP JUMPDEST PUSH1 0x0 DUP3 PUSH2 0x1C95 JUMPI PUSH4 0x4E487B71 PUSH1 0xE0 SHL PUSH1 0x0 MSTORE PUSH1 0x12 PUSH1 0x4 MSTORE PUSH1 0x24 PUSH1 0x0 REVERT JUMPDEST POP MOD SWAP1 JUMP INVALID 0xC8 0xFC 0xAD DUP14 0xB8 0x4D EXTCODECOPY 0xC1 DUP12 0x4C COINBASE 0xD5 MLOAD 0xEA 0xE 0xE6 PUSH14 0xD599CDE068D998E57D5E09332C13 SHR LOG2 PUSH5 0x6970667358 0x22 SLT KECCAK256 0xD1 0xDF XOR BALANCE 0xDD RETURNDATASIZE MUL 0xBA 0x4E 0xDB 0xDB MULMOD 0xE5 0xE6 0xB1 SSTORE LOG0 BALANCE 0xBC PUSH2 0xACA1 SUB DUP14 COINBASE 0x2D 0x2D SWAP6 RETURN DUP1 0xE2 0xDA PUSH5 0x736F6C6343 STOP ADDMOD MULMOD STOP CALLER ",
  "sha1": "260ca1763b7d0a565338fcb962541accab6962c4",
  "source": "// SPDX-License-Identifier: UNLICENSED\npragma solidity ^0.8.0;\n\nimport {LibDiamond} from \"../libraries/LibDiamond.sol\";\nimport {LibUnicornDNA} from \"../libraries/LibUnicornDNA.sol\";\nimport {LibUnicornNames} from \"../libraries/LibUnicornNames.sol\";\nimport {LibIdempotence} from \"../libraries/LibIdempotence.sol\";\n\ncontract MetadataFacet {\n\n    function getUnicornName(uint256 _tokenId) external view returns (string memory) {\n        uint256 dna = LibUnicornDNA._getDNA(_tokenId);\n        return LibUnicornNames._getFullNameFromDNA(dna);\n    }\n\n    function getTargetDNAVersion() internal view returns (uint256) {\n        return LibUnicornDNA._targetDNAVersion();\n    }\n\n    function getDNA(uint256 _tokenId) external view returns (uint256) {\n        return LibUnicornDNA._getDNA(_tokenId);\n    }\n\n    //  Returns paginated metadata of a player's tokens. Max page size is 12,\n    //  smaller arrays are returned on the final page to fit the player's\n    //  inventory. The `moreEntriesExist` flag is TRUE when additional pages\n    //  are available past the current call.\n    function getUnicornsByOwner(address _owner, uint32 _pageNumber) external view returns (\n        uint256[] memory tokenIds,\n        uint16[] memory classes,\n        string[] memory names,\n        bool[] memory gameLocked,\n        bool moreEntriesExist\n    ) {\n        LibDiamond.DiamondStorage storage ds = LibDiamond.diamondStorage();\n        uint256 balance = ds.erc721_balances[_owner];\n        uint start = _pageNumber * 12;\n        uint count = balance - start;\n        if(count > 12) {\n            count = 12;\n            moreEntriesExist = true;\n        }\n\n        tokenIds = new uint256[](count);\n        classes = new uint16[](count);\n        names = new string[](count);\n        gameLocked = new bool[](count);\n\n        for(uint i = 0; i < count; ++i) {\n            uint256 indx = start + i;\n            uint256 tokenId = ds.erc721_ownedTokens[_owner][indx];\n            tokenIds[i] = tokenId;\n            uint256 dna = LibUnicornDNA._getDNA(tokenId);\n            classes[i] = LibUnicornDNA._getClass(dna);\n            names[i] = LibUnicornNames._getFullNameFromDNA(dna);\n            gameLocked[i] = LibUnicornDNA._getGameLocked(dna);\n        }\n    }\n\n    function getIdempotentState(uint256 _tokenId) external view returns (uint256) {\n        return LibIdempotence._getIdempotenceState(_tokenId);\n    }\n}\n",
  "sourcePath": "contracts/facets/MetadataFacet.sol",
  "type": "contract"
}