{
  "abi": [
    {
      "inputs": [
        {
          "internalType": "uint256",
          "name": "_dna",
          "type": "uint256"
        }
      ],
      "name": "getAccuracy",
      "outputs": [
        {
          "internalType": "uint256",
          "name": "",
          "type": "uint256"
        }
      ],
      "stateMutability": "view",
      "type": "function"
    },
    {
      "inputs": [
        {
          "internalType": "uint256",
          "name": "_dna",
          "type": "uint256"
        }
      ],
      "name": "getAttack",
      "outputs": [
        {
          "internalType": "uint256",
          "name": "",
          "type": "uint256"
        }
      ],
      "stateMutability": "view",
      "type": "function"
    },
    {
      "inputs": [
        {
          "internalType": "uint256",
          "name": "_dna",
          "type": "uint256"
        }
      ],
      "name": "getAttackSpeed",
      "outputs": [
        {
          "internalType": "uint256",
          "name": "",
          "type": "uint256"
        }
      ],
      "stateMutability": "view",
      "type": "function"
    },
    {
      "inputs": [
        {
          "internalType": "uint256",
          "name": "_dna",
          "type": "uint256"
        }
      ],
      "name": "getDefense",
      "outputs": [
        {
          "internalType": "uint256",
          "name": "",
          "type": "uint256"
        }
      ],
      "stateMutability": "view",
      "type": "function"
    },
    {
      "inputs": [
        {
          "internalType": "uint256",
          "name": "tokenId",
          "type": "uint256"
        }
      ],
      "name": "getEnduranceScore",
      "outputs": [
        {
          "internalType": "uint256",
          "name": "",
          "type": "uint256"
        }
      ],
      "stateMutability": "view",
      "type": "function"
    },
    {
      "inputs": [
        {
          "internalType": "uint256",
          "name": "tokenId",
          "type": "uint256"
        }
      ],
      "name": "getIntelligenceScore",
      "outputs": [
        {
          "internalType": "uint256",
          "name": "",
          "type": "uint256"
        }
      ],
      "stateMutability": "view",
      "type": "function"
    },
    {
      "inputs": [
        {
          "internalType": "uint256",
          "name": "_dna",
          "type": "uint256"
        }
      ],
      "name": "getMagic",
      "outputs": [
        {
          "internalType": "uint256",
          "name": "",
          "type": "uint256"
        }
      ],
      "stateMutability": "view",
      "type": "function"
    },
    {
      "inputs": [
        {
          "internalType": "uint256",
          "name": "_dna",
          "type": "uint256"
        }
      ],
      "name": "getMovementSpeed",
      "outputs": [
        {
          "internalType": "uint256",
          "name": "",
          "type": "uint256"
        }
      ],
      "stateMutability": "view",
      "type": "function"
    },
    {
      "inputs": [
        {
          "internalType": "uint256",
          "name": "tokenId",
          "type": "uint256"
        }
      ],
      "name": "getPowerScore",
      "outputs": [
        {
          "internalType": "uint256",
          "name": "",
          "type": "uint256"
        }
      ],
      "stateMutability": "view",
      "type": "function"
    },
    {
      "inputs": [
        {
          "internalType": "uint256",
          "name": "_dna",
          "type": "uint256"
        }
      ],
      "name": "getResistance",
      "outputs": [
        {
          "internalType": "uint256",
          "name": "",
          "type": "uint256"
        }
      ],
      "stateMutability": "view",
      "type": "function"
    },
    {
      "inputs": [
        {
          "internalType": "uint256",
          "name": "tokenId",
          "type": "uint256"
        }
      ],
      "name": "getSpeedScore",
      "outputs": [
        {
          "internalType": "uint256",
          "name": "",
          "type": "uint256"
        }
      ],
      "stateMutability": "view",
      "type": "function"
    },
    {
      "inputs": [
        {
          "internalType": "uint256",
          "name": "_dna",
          "type": "uint256"
        }
      ],
      "name": "getStats",
      "outputs": [
        {
          "internalType": "uint256",
          "name": "attack",
          "type": "uint256"
        },
        {
          "internalType": "uint256",
          "name": "accuracy",
          "type": "uint256"
        },
        {
          "internalType": "uint256",
          "name": "movementSpeed",
          "type": "uint256"
        },
        {
          "internalType": "uint256",
          "name": "attackSpeed",
          "type": "uint256"
        },
        {
          "internalType": "uint256",
          "name": "defense",
          "type": "uint256"
        },
        {
          "internalType": "uint256",
          "name": "vitality",
          "type": "uint256"
        },
        {
          "internalType": "uint256",
          "name": "resistance",
          "type": "uint256"
        },
        {
          "internalType": "uint256",
          "name": "magic",
          "type": "uint256"
        }
      ],
      "stateMutability": "view",
      "type": "function"
    },
    {
      "inputs": [
        {
          "internalType": "uint256",
          "name": "_dna",
          "type": "uint256"
        }
      ],
      "name": "getUnicornBodyParts",
      "outputs": [
        {
          "internalType": "uint256",
          "name": "bodyPartId",
          "type": "uint256"
        },
        {
          "internalType": "uint256",
          "name": "facePartId",
          "type": "uint256"
        },
        {
          "internalType": "uint256",
          "name": "hornPartId",
          "type": "uint256"
        },
        {
          "internalType": "uint256",
          "name": "hoovesPartId",
          "type": "uint256"
        },
        {
          "internalType": "uint256",
          "name": "manePartId",
          "type": "uint256"
        },
        {
          "internalType": "uint256",
          "name": "tailPartId",
          "type": "uint256"
        },
        {
          "internalType": "uint8",
          "name": "mythicCount",
          "type": "uint8"
        }
      ],
      "stateMutability": "view",
      "type": "function"
    },
    {
      "inputs": [
        {
          "internalType": "uint256",
          "name": "_dna",
          "type": "uint256"
        }
      ],
      "name": "getUnicornBodyPartsLocal",
      "outputs": [
        {
          "internalType": "uint256",
          "name": "bodyPartLocalId",
          "type": "uint256"
        },
        {
          "internalType": "uint256",
          "name": "facePartLocalId",
          "type": "uint256"
        },
        {
          "internalType": "uint256",
          "name": "hornPartLocalId",
          "type": "uint256"
        },
        {
          "internalType": "uint256",
          "name": "hoovesPartLocalId",
          "type": "uint256"
        },
        {
          "internalType": "uint256",
          "name": "manePartLocalId",
          "type": "uint256"
        },
        {
          "internalType": "uint256",
          "name": "tailPartLocalId",
          "type": "uint256"
        }
      ],
      "stateMutability": "view",
      "type": "function"
    },
    {
      "inputs": [
        {
          "internalType": "uint256",
          "name": "_tokenId",
          "type": "uint256"
        }
      ],
      "name": "getUnicornMetadata",
      "outputs": [
        {
          "internalType": "bool",
          "name": "origin",
          "type": "bool"
        },
        {
          "internalType": "bool",
          "name": "gameLocked",
          "type": "bool"
        },
        {
          "internalType": "bool",
          "name": "limitedEdition",
          "type": "bool"
        },
        {
          "internalType": "uint256",
          "name": "lifecycleStage",
          "type": "uint256"
        },
        {
          "internalType": "uint256",
          "name": "breedingPoints",
          "type": "uint256"
        },
        {
          "internalType": "uint256",
          "name": "unicornClass",
          "type": "uint256"
        },
        {
          "internalType": "uint256",
          "name": "hatchBirthday",
          "type": "uint256"
        }
      ],
      "stateMutability": "view",
      "type": "function"
    },
    {
      "inputs": [
        {
          "internalType": "uint256",
          "name": "_dna",
          "type": "uint256"
        }
      ],
      "name": "getVitality",
      "outputs": [
        {
          "internalType": "uint256",
          "name": "",
          "type": "uint256"
        }
      ],
      "stateMutability": "view",
      "type": "function"
    }
  ],
  "bytecode": "608060405234801561001057600080fd5b50612528806100206000396000f3fe608060405234801561001057600080fd5b50600436106100ff5760003560e01c806369d1cc9211610097578063a28eaae911610066578063a28eaae91461029b578063cff840f0146102eb578063e53b5bef146102fe578063eb22daa31461031157600080fd5b806369d1cc92146101dc5780637419a276146101ef5780637b303965146102025780638d4954f41461025057600080fd5b806333947812116100d3578063339478121461019057806350b03dd0146101a35780635bc0a623146101b65780636500aee0146101c957600080fd5b806246658f1461010457806306b7935c1461012a5780631c292b7c1461013d5780632831ebd914610150575b600080fd5b6101176101123660046123dd565b610324565b6040519081526020015b60405180910390f35b6101176101383660046123dd565b61035f565b61011761014b3660046123dd565b610391565b61016361015e3660046123dd565b6103a4565b604080519687526020870195909552938501929092526060840152608083015260a082015260c001610121565b61011761019e3660046123dd565b610401565b6101176101b13660046123dd565b61040e565b6101176101c43660046123dd565b610440565b6101176101d73660046123dd565b61044d565b6101176101ea3660046123dd565b61045a565b6101176101fd3660046123dd565b610467565b6102156102103660046123dd565b610499565b604080519889526020890197909752958701949094526060860192909252608085015260a084015260c083015260e082015261010001610121565b61026361025e3660046123dd565b610508565b604080519788526020880196909652948601939093526060850191909152608084015260a083015260ff1660c082015260e001610121565b6102ae6102a93660046123dd565b610788565b6040805197151588529515156020880152931515948601949094526060850191909152608084015260a083019190915260c082015260e001610121565b6101176102f93660046123dd565b61081c565b61011761030c3660046123dd565b610829565b61011761031f3660046123dd565b610836565b60008061033083610843565b9050600061033d8261081c565b9050600061034a8361044d565b90506103568282610880565b95945050505050565b60008061036b83610843565b9050600061037882610829565b9050600061038583610391565b9050610356828261093b565b600061039e8260046109c1565b92915050565b6000806000806000806103b687610f9c565b6103bf87611022565b95506103ca87611032565b94506103d587611042565b92506103e087611052565b93506103eb87611062565b91506103f687611072565b905091939550919395565b600061039e8260076109c1565b60008061041a83610843565b9050600061042782610440565b9050600061043483610401565b90506103568282611082565b600061039e8260086109c1565b600061039e8260026109c1565b600061039e8260066109c1565b60008061047383610843565b905060006104808261045a565b9050600061048d83610836565b90506103568282611108565b6000806000806000806000806104ae8961081c565b97506104b98961044d565b96506104c489610829565b95506104cf89610391565b94506104da89610836565b93506104e58961045a565b92506104f089610401565b91506104fb89610440565b9050919395975091939597565b600080600080600080600061051c88610f9c565b6000805160206124d383398151915260006105368a61118e565b60ff81166000908152602a8401602090815260408083206001845290915281209192506105628c611022565b8152602080820192909252604090810160009081205460ff85168252602a8601845282822060028352909352908120919a5061059d8c611032565b8152602080820192909252604090810160009081205460ff85168252602a86018452828220600483529093529081209199506105d88c611042565b8152602080820192909252604090810160009081205460ff85168252602a86018452828220600383529093529081209197506106138c611052565b8152602080820192909252604090810160009081205460ff85168252602a860184528282206005835290935290812091985061064e8c611062565b8152602080820192909252604090810160009081205460ff85168252602a86018452828220600683529093529081209196506106898c611072565b815260208082019290925260409081016000908120548c825260278601909352205490945060ff16156106c2576106bf8361240c565b92505b600088815260278301602052604090205460ff16156106e7576106e48361240c565b92505b600086815260278301602052604090205460ff161561070c576107098361240c565b92505b600087815260278301602052604090205460ff16156107315761072e8361240c565b92505b600085815260278301602052604090205460ff1615610756576107538361240c565b92505b600084815260278301602052604090205460ff161561077b576107788361240c565b92505b5050919395979092949650565b60008080808080806000805160206124d3833981519152816107a98a610843565b90506107b481610f9c565b6107bd8161119d565b98506107c8816111ab565b97506107d3816111b9565b96506107de816111c7565b95506107e9816111d5565b94506107f48161118e565b60009a8b52601a909201602052506040909820549698959794969395929460ff169392915050565b600061039e8260016109c1565b600061039e8260036109c1565b600061039e8260056109c1565b600061084e826111e4565b1561085c5761039e826112e8565b6000805160206124d38339815191525b600092835260180160205250604090205490565b7fc8fcad8db84d3cc18b4c41d551ea0ee66dd599cde068d998e57d5e09332c1360547fc8fcad8db84d3cc18b4c41d551ea0ee66dd599cde068d998e57d5e09332c1361547fc8fcad8db84d3cc18b4c41d551ea0ee66dd599cde068d998e57d5e09332c135f546000926000805160206124d383398151915292909184610906848961242c565b90506000610914848961242c565b9050600083610923838561244b565b61092d919061242c565b9a9950505050505050505050565b7fc8fcad8db84d3cc18b4c41d551ea0ee66dd599cde068d998e57d5e09332c1363547fc8fcad8db84d3cc18b4c41d551ea0ee66dd599cde068d998e57d5e09332c1364547fc8fcad8db84d3cc18b4c41d551ea0ee66dd599cde068d998e57d5e09332c1362546000926000805160206124d383398151915292909184610906848961242c565b60006109cc83610f9c565b60026109d7846111c7565b14806109eb575060016109e9846111c7565b145b610a625760405162461bcd60e51b815260206004820152603c60248201527f4c696253746174733a20496e76616c696420444e41204c6966656379636c652060448201527f53746167652c206d7573742062652062616279206f72206164756c740000000060648201526084015b60405180910390fd5b6000805160206124d38339815191526000610a7c8561118e565b60ff166000818152602c8401602090815260408083208884529091529020549091506002610aa9876111c7565b1415610ac757610aba600582612479565b610ac4908261244b565b90505b60408051601280825261026082019092526000916020820161024080368337019050509050610af587611d20565b81600081518110610b0857610b0861248d565b602002602001018181525050610b1d87611d31565b81600181518110610b3057610b3061248d565b602002602001018181525050610b4587611d43565b81600281518110610b5857610b5861248d565b602002602001018181525050610b6d87611d56565b81600381518110610b8057610b8061248d565b602002602001018181525050610b9587611d66565b81600481518110610ba857610ba861248d565b602002602001018181525050610bbd87611d76565b81600581518110610bd057610bd061248d565b602002602001018181525050610be587611d86565b81600681518110610bf857610bf861248d565b602002602001018181525050610c0d87611d96565b81600781518110610c2057610c2061248d565b602002602001018181525050610c3587611da6565b81600881518110610c4857610c4861248d565b602002602001018181525050610c5d87611db6565b81600981518110610c7057610c7061248d565b602002602001018181525050610c8587611dc6565b81600a81518110610c9857610c9861248d565b602002602001018181525050610cad87611dd6565b81600b81518110610cc057610cc061248d565b602002602001018181525050610cd587611de6565b81600c81518110610ce857610ce861248d565b602002602001018181525050610cfd87611df6565b81600d81518110610d1057610d1061248d565b602002602001018181525050610d2587611e06565b81600e81518110610d3857610d3861248d565b602002602001018181525050610d4d87611e16565b81600f81518110610d6057610d6061248d565b602002602001018181525050610d7587611e26565b81601081518110610d8857610d8861248d565b602002602001018181525050610d9d87611e36565b81601181518110610db057610db061248d565b60200260200101818152505060008060005b6012811015610f4c5760015b60038111610f3b5789886024016000878581518110610def57610def61248d565b602002602001015181526020019081526020016000206000838152602001908152602001600020541415610f2b57876020016000868481518110610e3557610e3561248d565b602002602001015181526020019081526020016000205460011415610ea657876025016000868481518110610e6c57610e6c61248d565b6020026020010151815260200190815260200160002060008281526020019081526020016000205483610e9f919061244b565b9250610f2b565b876020016000868481518110610ebe57610ebe61248d565b602002602001015181526020019081526020016000205460021415610f2b57876025016000868481518110610ef557610ef561248d565b6020026020010151815260200190815260200160002060008281526020019081526020016000205484610f28919061244b565b93505b610f34816124a3565b9050610dce565b50610f45816124a3565b9050610dc2565b506000610f59838661244b565b90506064610f67838361242c565b610f719190612479565b610f7b908261244b565b90506103e8811115610f8f576103e861092d565b9998505050505050505050565b7fc8fcad8db84d3cc18b4c41d551ea0ee66dd599cde068d998e57d5e09332c135d54610fc782611e46565b1461101f5760405162461bcd60e51b815260206004820152602260248201527f4c6962556e69636f726e444e413a20496e76616c696420444e4120766572736960448201526137b760f11b6064820152608401610a59565b50565b600061039e82631fe00000611e4f565b600061039e8260ff60351b611e4f565b600061039e8260ff60751b611e4f565b600061039e8260ff60551b611e4f565b600061039e8260ff60951b611e4f565b600061039e8260ff60b51b611e4f565b7fc8fcad8db84d3cc18b4c41d551ea0ee66dd599cde068d998e57d5e09332c1369547fc8fcad8db84d3cc18b4c41d551ea0ee66dd599cde068d998e57d5e09332c136a547fc8fcad8db84d3cc18b4c41d551ea0ee66dd599cde068d998e57d5e09332c1368546000926000805160206124d383398151915292909184610906848961242c565b7fc8fcad8db84d3cc18b4c41d551ea0ee66dd599cde068d998e57d5e09332c1366547fc8fcad8db84d3cc18b4c41d551ea0ee66dd599cde068d998e57d5e09332c1367547fc8fcad8db84d3cc18b4c41d551ea0ee66dd599cde068d998e57d5e09332c1365546000926000805160206124d383398151915292909184610906848961242c565b600061039e82621e0000611e4f565b60006101008216151561039e565b60006102008216151561039e565b60006104008216151561039e565b600061039e82611800611e4f565b600061039e826201e000611e4f565b60006111ef82611e68565b801561120157506111ff82611ea4565b155b156112e05760008281527ffdccebc9c7798f16c9158af32c6bb14bb2526bcd260561cab5771cff2fa8ad9660209081526040808320548084527ffdccebc9c7798f16c9158af32c6bb14bb2526bcd260561cab5771cff2fa8ad908352818420548085527ffdccebc9c7798f16c9158af32c6bb14bb2526bcd260561cab5771cff2fa8ad949093529220547ffdccebc9c7798f16c9158af32c6bb14bb2526bcd260561cab5771cff2fa8ad8e929190158015906112cc5750600081815260068401602052604090205443115b156112dc57506001949350505050565b5050505b506000919050565b60006112f382611ea4565b156113405760405162461bcd60e51b815260206004820152601a60248201527f4c69624861746368696e673a20524e47206e6f742072656164790000000000006044820152606401610a59565b61134982611e68565b6113955760405162461bcd60e51b815260206004820181905260248201527f4c69624861746368696e673a2057616974696e6720666f72205652462054544c6044820152606401610a59565b60008281527ffdccebc9c7798f16c9158af32c6bb14bb2526bcd260561cab5771cff2fa8ad96602090815260408083205483527ffdccebc9c7798f16c9158af32c6bb14bb2526bcd260561cab5771cff2fa8ad908252808320548084527ffdccebc9c7798f16c9158af32c6bb14bb2526bcd260561cab5771cff2fa8ad94909252909120547ffdccebc9c7798f16c9158af32c6bb14bb2526bcd260561cab5771cff2fa8ad8e91906114895760405162461bcd60e51b815260206004820152601760248201527f4c69624861746368696e673a204e6f20524e47207365740000000000000000006044820152606401610a59565b600081815260068301602052604090205443116115045760405162461bcd60e51b815260206004820152603360248201527f4c69624861746368696e673a2050726564696374696f6e206d61736b656420646044820152727572696e6720524e472073657420626c6f636b60681b6064820152608401610a59565b600061150f85611edd565b9050600061151c826111c7565b1461157d5760405162461bcd60e51b815260206004820152602b60248201527f4c69624861746368696e673a20444e412068617320616c72656164792062656560448201526a1b881c195c9cda5cdd195960aa1b6064820152608401610a59565b60006115888261118e565b60008781527fc8fcad8db84d3cc18b4c41d551ea0ee66dd599cde068d998e57d5e09332c13566020526040812060ff9290921692506000805160206124d3833981519152916115da90825b0154610843565b6000898152603a840160205260408120919250906115f890826115d3565b905060006116058361118e565b60ff168514905060006116178361118e565b60ff1686149050600082806116295750815b9050611636886001611ef3565b60008a815260048c01602090815260408083205460058f01909252822054929a50919083801561167257508261167061271084600b611f02565b105b1561170e578580156116815750845b156116a957611693600283600c611f02565b6001146116a057866116a2565b875b90506116b9565b856116b457866116b6565b875b90505b6116cb8b6116c683611022565b611f4c565b9a506116df8b6116da83611d20565b611f5d565b9a506116f38b6116ee83611d31565b611f6f565b9a506117078b61170283611d43565b611f82565b9a50611777565b61173b8b8a60260160006117278d8f600189600d611f96565b815260200190815260200160002054611f4c565b9a5061174e8b6116da8b8d86600e612130565b9a506117618b6116ee8b8d86600f612130565b9a506117748b6117028b8d866010612130565b9a505b83801561179057508261178e612710846015611f02565b105b1561182c5785801561179f5750845b156117c7576117b16002836016611f02565b6001146117be57866117c0565b875b90506117d7565b856117d257866117d4565b875b90505b6117e98b6117e483611032565b612242565b9a506117fd8b6117f883611d56565b612253565b9a506118118b61180c83611d66565b612264565b9a506118258b61182083611d76565b612275565b9a50611895565b6118598b8a60260160006118458d8f6002896017611f96565b815260200190815260200160002054612242565b9a5061186c8b6117f88b8d866018612130565b9a5061187f8b61180c8b8d866019612130565b9a506118928b6118208b8d86601a612130565b9a505b8380156118ae5750826118ac61271084601f611f02565b105b1561194a578580156118bd5750845b156118e5576118cf6002836020611f02565b6001146118dc57866118de565b875b90506118f5565b856118f057866118f2565b875b90505b6119078b61190283611052565b612286565b9a5061191b8b61191683611db6565b612297565b9a5061192f8b61192a83611dc6565b6122a8565b9a506119438b61193e83611dd6565b6122b9565b9a506119b3565b6119778b8a60260160006119638d8f6003896021611f96565b815260200190815260200160002054612286565b9a5061198a8b6119168b8d866022612130565b9a5061199d8b61192a8b8d866023612130565b9a506119b08b61193e8b8d866024612130565b9a505b8380156119cc5750826119ca612710846029611f02565b105b15611a68578580156119db5750845b15611a03576119ed600283602a611f02565b6001146119fa57866119fc565b875b9050611a13565b85611a0e5786611a10565b875b90505b611a258b611a2083611042565b6122ca565b9a50611a398b611a3483611d86565b6122db565b9a50611a4d8b611a4883611d96565b6122ec565b9a50611a618b611a5c83611da6565b6122fd565b9a50611ad1565b611a958b8a6026016000611a818d8f600489602b611f96565b8152602001908152602001600020546122ca565b9a50611aa88b611a348b8d86602c612130565b9a50611abb8b611a488b8d86602d612130565b9a50611ace8b611a5c8b8d86602e612130565b9a505b838015611aea575082611ae8612710846033611f02565b105b15611b8657858015611af95750845b15611b2157611b0b6002836034611f02565b600114611b185786611b1a565b875b9050611b31565b85611b2c5786611b2e565b875b90505b611b438b611b3e83611062565b61230e565b9a50611b578b611b5283611de6565b61231f565b9a50611b6b8b611b6683611df6565b612330565b9a50611b7f8b611b7a83611e06565b612341565b9a50611bef565b611bb38b8a6026016000611b9f8d8f6005896035611f96565b81526020019081526020016000205461230e565b9a50611bc68b611b528b8d866036612130565b9a50611bd98b611b668b8d866037612130565b9a50611bec8b611b7a8b8d866038612130565b9a505b838015611c08575082611c0661271084603d611f02565b105b15611ca457858015611c175750845b15611c3f57611c29600283603e611f02565b600114611c365786611c38565b875b9050611c4f565b85611c4a5786611c4c565b875b90505b611c618b611c5c83611072565b612352565b9a50611c758b611c7083611e16565b612363565b9a50611c898b611c8483611e26565b612374565b9a50611c9d8b611c9883611e36565b612385565b9a50611d0d565b611cd18b8a6026016000611cbd8d8f600689603f611f96565b815260200190815260200160002054612352565b9a50611ce48b611c708b8d866040612130565b9a50611cf78b611c848b8d866041612130565b9a50611d0a8b611c988b8d866042612130565b9a505b50989d9c50505050505050505050505050565b600061039e82641fe0000000611e4f565b600061039e82651fe000000000611e4f565b600061039e82661fe00000000000611e4f565b600061039e8260ff603d1b611e4f565b600061039e8260ff60451b611e4f565b600061039e8260ff604d1b611e4f565b600061039e8260ff607d1b611e4f565b600061039e8260ff60851b611e4f565b600061039e8260ff608d1b611e4f565b600061039e8260ff605d1b611e4f565b600061039e8260ff60651b611e4f565b600061039e8260ff606d1b611e4f565b600061039e8260ff609d1b611e4f565b600061039e8260ff60a51b611e4f565b600061039e8260ff60ad1b611e4f565b600061039e8260ff60bd1b611e4f565b600061039e8260ff60c51b611e4f565b600061039e8260ff60cd1b611e4f565b600061039e8260ff5b600080611e5b83612396565b9290931690911c92915050565b60008181527fc8fcad8db84d3cc18b4c41d551ea0ee66dd599cde068d998e57d5e09332c133560205260408120546080811615155b9392505050565b60008181527fc8fcad8db84d3cc18b4c41d551ea0ee66dd599cde068d998e57d5e09332c13356020526040812054604081161515611e9d565b60006000805160206124d383398151915261086c565b6000611e9d83836118006123b9565b6000838383604051602001611f21929190918252602082015260400190565b6040516020818303038152906040528051906020012060001c611f4491906124be565b949350505050565b6000611e9d8383631fe000006123b9565b6000611e9d8383641fe00000006123b9565b6000611e9d8383651fe0000000006123b9565b6000611e9d8383661fe000000000006123b9565b6000848152602986016020908152604080832086845290915281205481805b8281101561202a57600088815260298a01602090815260408083208a845290915281208054602b8c0192919084908110611ff157611ff161248d565b906000526020600020015481526020019081526020016000205482612016919061244b565b915080612022816124a3565b915050611fb5565b506000612038828787611f02565b61204390600161244b565b90506000805b848110156120d35760008a815260298c01602090815260408083208c8452909152812080548390811061207e5761207e61248d565b6000918252602080832090910154808352602b8f019091526040909120549091506120a9818561244b565b93508385116120c057509550610356945050505050565b5050806120cc906124a3565b9050612049565b5060405162461bcd60e51b815260206004820152602b60248201527f4861746368696e6746616365743a204661696c65642067657474696e6720524e60448201526a4720626f6479706172747360a81b6064820152608401610a59565b600083815260218501602090815260408083205460228801909252822054829061215b908686611f02565b61216690600161244b565b90506000805b838110156121ea57600088815260218a01602052604081208054839081106121965761219661248d565b9060005260206000200154905089602301600082815260200190815260200160002054836121c4919061244b565b92508284116121d9579450611f449350505050565b506121e3816124a3565b905061216c565b5060405162461bcd60e51b815260206004820152602660248201527f4861746368696e6746616365743a204661696c65642067657474696e6720524e604482015265472067656e6560d01b6064820152608401610a59565b6000611e9d838360ff60351b6123b9565b6000611e9d838360ff603d1b6123b9565b6000611e9d838360ff60451b6123b9565b6000611e9d838360ff604d1b6123b9565b6000611e9d838360ff60551b6123b9565b6000611e9d838360ff605d1b6123b9565b6000611e9d838360ff60651b6123b9565b6000611e9d838360ff606d1b6123b9565b6000611e9d838360ff60751b6123b9565b6000611e9d838360ff607d1b6123b9565b6000611e9d838360ff60851b6123b9565b6000611e9d838360ff608d1b6123b9565b6000611e9d838360ff60951b6123b9565b6000611e9d838360ff609d1b6123b9565b6000611e9d838360ff60a51b6123b9565b6000611e9d838360ff60ad1b6123b9565b6000611e9d838360ff60b51b6123b9565b6000611e9d838360ff60bd1b6123b9565b6000611e9d838360ff60c51b6123b9565b6000611e9d838360ff60cd1b6123b9565b6000805b6001831661039e5760019290921c916123b2816124a3565b905061239a565b6000806123c583612396565b600019841886169085901b8416179150509392505050565b6000602082840312156123ef57600080fd5b5035919050565b634e487b7160e01b600052601160045260246000fd5b600060ff821660ff811415612423576124236123f6565b60010192915050565b6000816000190483118215151615612446576124466123f6565b500290565b6000821982111561245e5761245e6123f6565b500190565b634e487b7160e01b600052601260045260246000fd5b60008261248857612488612463565b500490565b634e487b7160e01b600052603260045260246000fd5b60006000198214156124b7576124b76123f6565b5060010190565b6000826124cd576124cd612463565b50069056fec8fcad8db84d3cc18b4c41d551ea0ee66dd599cde068d998e57d5e09332c131ca2646970667358221220b99cb0759bb355aff46109a1699614e48ae76118d79d8116de8ad20762956dd064736f6c63430008090033",
  "bytecodeSha1": "51896040dd63b36e2c999aeebda033af4b62108d",
  "compiler": {
    "evm_version": "istanbul",
    "optimizer": {
      "enabled": true,
      "runs": 200
    },
    "version": "0.8.9+commit.e5eed63a"
  },
  "contractName": "StatsFacet",
  "language": "Solidity",
  "natspec": {
    "kind": "dev",
    "methods": {},
    "version": 1
  },
  "opcodes": "PUSH1 0x80 PUSH1 0x40 MSTORE CALLVALUE DUP1 ISZERO PUSH2 0x10 JUMPI PUSH1 0x0 DUP1 REVERT JUMPDEST POP PUSH1 0x4 CALLDATASIZE LT PUSH2 0xFF JUMPI PUSH1 0x0 CALLDATALOAD PUSH1 0xE0 SHR DUP1 PUSH4 0x69D1CC92 GT PUSH2 0x97 JUMPI DUP1 PUSH4 0xA28EAAE9 GT PUSH2 0x66 JUMPI DUP1 PUSH4 0xA28EAAE9 EQ PUSH2 0x29B JUMPI DUP1 PUSH4 0xCFF840F0 EQ PUSH2 0x2EB JUMPI DUP1 PUSH4 0xE53B5BEF EQ PUSH2 0x2FE JUMPI DUP1 PUSH4 0xEB22DAA3 EQ PUSH2 0x311 JUMPI PUSH1 0x0 DUP1 REVERT JUMPDEST DUP1 PUSH4 0x69D1CC92 EQ PUSH2 0x1DC JUMPI DUP1 PUSH4 0x7419A276 EQ PUSH2 0x1EF JUMPI DUP1 PUSH4 0x7B303965 EQ PUSH2 0x202 JUMPI DUP1 PUSH4 0x8D4954F4 EQ PUSH2 0x250 JUMPI PUSH1 0x0 DUP1 REVERT JUMPDEST DUP1 PUSH4 0x33947812 GT PUSH2 0xD3 JUMPI DUP1 PUSH4 0x33947812 EQ PUSH2 0x190 JUMPI DUP1 PUSH4 0x50B03DD0 EQ PUSH2 0x1A3 JUMPI DUP1 PUSH4 0x5BC0A623 EQ PUSH2 0x1B6 JUMPI DUP1 PUSH4 0x6500AEE0 EQ PUSH2 0x1C9 JUMPI PUSH1 0x0 DUP1 REVERT JUMPDEST DUP1 PUSH3 0x46658F EQ PUSH2 0x104 JUMPI DUP1 PUSH4 0x6B7935C EQ PUSH2 0x12A JUMPI DUP1 PUSH4 0x1C292B7C EQ PUSH2 0x13D JUMPI DUP1 PUSH4 0x2831EBD9 EQ PUSH2 0x150 JUMPI JUMPDEST PUSH1 0x0 DUP1 REVERT JUMPDEST PUSH2 0x117 PUSH2 0x112 CALLDATASIZE PUSH1 0x4 PUSH2 0x23DD JUMP JUMPDEST PUSH2 0x324 JUMP JUMPDEST PUSH1 0x40 MLOAD SWAP1 DUP2 MSTORE PUSH1 0x20 ADD JUMPDEST PUSH1 0x40 MLOAD DUP1 SWAP2 SUB SWAP1 RETURN JUMPDEST PUSH2 0x117 PUSH2 0x138 CALLDATASIZE PUSH1 0x4 PUSH2 0x23DD JUMP JUMPDEST PUSH2 0x35F JUMP JUMPDEST PUSH2 0x117 PUSH2 0x14B CALLDATASIZE PUSH1 0x4 PUSH2 0x23DD JUMP JUMPDEST PUSH2 0x391 JUMP JUMPDEST PUSH2 0x163 PUSH2 0x15E CALLDATASIZE PUSH1 0x4 PUSH2 0x23DD JUMP JUMPDEST PUSH2 0x3A4 JUMP JUMPDEST PUSH1 0x40 DUP1 MLOAD SWAP7 DUP8 MSTORE PUSH1 0x20 DUP8 ADD SWAP6 SWAP1 SWAP6 MSTORE SWAP4 DUP6 ADD SWAP3 SWAP1 SWAP3 MSTORE PUSH1 0x60 DUP5 ADD MSTORE PUSH1 0x80 DUP4 ADD MSTORE PUSH1 0xA0 DUP3 ADD MSTORE PUSH1 0xC0 ADD PUSH2 0x121 JUMP JUMPDEST PUSH2 0x117 PUSH2 0x19E CALLDATASIZE PUSH1 0x4 PUSH2 0x23DD JUMP JUMPDEST PUSH2 0x401 JUMP JUMPDEST PUSH2 0x117 PUSH2 0x1B1 CALLDATASIZE PUSH1 0x4 PUSH2 0x23DD JUMP JUMPDEST PUSH2 0x40E JUMP JUMPDEST PUSH2 0x117 PUSH2 0x1C4 CALLDATASIZE PUSH1 0x4 PUSH2 0x23DD JUMP JUMPDEST PUSH2 0x440 JUMP JUMPDEST PUSH2 0x117 PUSH2 0x1D7 CALLDATASIZE PUSH1 0x4 PUSH2 0x23DD JUMP JUMPDEST PUSH2 0x44D JUMP JUMPDEST PUSH2 0x117 PUSH2 0x1EA CALLDATASIZE PUSH1 0x4 PUSH2 0x23DD JUMP JUMPDEST PUSH2 0x45A JUMP JUMPDEST PUSH2 0x117 PUSH2 0x1FD CALLDATASIZE PUSH1 0x4 PUSH2 0x23DD JUMP JUMPDEST PUSH2 0x467 JUMP JUMPDEST PUSH2 0x215 PUSH2 0x210 CALLDATASIZE PUSH1 0x4 PUSH2 0x23DD JUMP JUMPDEST PUSH2 0x499 JUMP JUMPDEST PUSH1 0x40 DUP1 MLOAD SWAP9 DUP10 MSTORE PUSH1 0x20 DUP10 ADD SWAP8 SWAP1 SWAP8 MSTORE SWAP6 DUP8 ADD SWAP5 SWAP1 SWAP5 MSTORE PUSH1 0x60 DUP7 ADD SWAP3 SWAP1 SWAP3 MSTORE PUSH1 0x80 DUP6 ADD MSTORE PUSH1 0xA0 DUP5 ADD MSTORE PUSH1 0xC0 DUP4 ADD MSTORE PUSH1 0xE0 DUP3 ADD MSTORE PUSH2 0x100 ADD PUSH2 0x121 JUMP JUMPDEST PUSH2 0x263 PUSH2 0x25E CALLDATASIZE PUSH1 0x4 PUSH2 0x23DD JUMP JUMPDEST PUSH2 0x508 JUMP JUMPDEST PUSH1 0x40 DUP1 MLOAD SWAP8 DUP9 MSTORE PUSH1 0x20 DUP9 ADD SWAP7 SWAP1 SWAP7 MSTORE SWAP5 DUP7 ADD SWAP4 SWAP1 SWAP4 MSTORE PUSH1 0x60 DUP6 ADD SWAP2 SWAP1 SWAP2 MSTORE PUSH1 0x80 DUP5 ADD MSTORE PUSH1 0xA0 DUP4 ADD MSTORE PUSH1 0xFF AND PUSH1 0xC0 DUP3 ADD MSTORE PUSH1 0xE0 ADD PUSH2 0x121 JUMP JUMPDEST PUSH2 0x2AE PUSH2 0x2A9 CALLDATASIZE PUSH1 0x4 PUSH2 0x23DD JUMP JUMPDEST PUSH2 0x788 JUMP JUMPDEST PUSH1 0x40 DUP1 MLOAD SWAP8 ISZERO ISZERO DUP9 MSTORE SWAP6 ISZERO ISZERO PUSH1 0x20 DUP9 ADD MSTORE SWAP4 ISZERO ISZERO SWAP5 DUP7 ADD SWAP5 SWAP1 SWAP5 MSTORE PUSH1 0x60 DUP6 ADD SWAP2 SWAP1 SWAP2 MSTORE PUSH1 0x80 DUP5 ADD MSTORE PUSH1 0xA0 DUP4 ADD SWAP2 SWAP1 SWAP2 MSTORE PUSH1 0xC0 DUP3 ADD MSTORE PUSH1 0xE0 ADD PUSH2 0x121 JUMP JUMPDEST PUSH2 0x117 PUSH2 0x2F9 CALLDATASIZE PUSH1 0x4 PUSH2 0x23DD JUMP JUMPDEST PUSH2 0x81C JUMP JUMPDEST PUSH2 0x117 PUSH2 0x30C CALLDATASIZE PUSH1 0x4 PUSH2 0x23DD JUMP JUMPDEST PUSH2 0x829 JUMP JUMPDEST PUSH2 0x117 PUSH2 0x31F CALLDATASIZE PUSH1 0x4 PUSH2 0x23DD JUMP JUMPDEST PUSH2 0x836 JUMP JUMPDEST PUSH1 0x0 DUP1 PUSH2 0x330 DUP4 PUSH2 0x843 JUMP JUMPDEST SWAP1 POP PUSH1 0x0 PUSH2 0x33D DUP3 PUSH2 0x81C JUMP JUMPDEST SWAP1 POP PUSH1 0x0 PUSH2 0x34A DUP4 PUSH2 0x44D JUMP JUMPDEST SWAP1 POP PUSH2 0x356 DUP3 DUP3 PUSH2 0x880 JUMP JUMPDEST SWAP6 SWAP5 POP POP POP POP POP JUMP JUMPDEST PUSH1 0x0 DUP1 PUSH2 0x36B DUP4 PUSH2 0x843 JUMP JUMPDEST SWAP1 POP PUSH1 0x0 PUSH2 0x378 DUP3 PUSH2 0x829 JUMP JUMPDEST SWAP1 POP PUSH1 0x0 PUSH2 0x385 DUP4 PUSH2 0x391 JUMP JUMPDEST SWAP1 POP PUSH2 0x356 DUP3 DUP3 PUSH2 0x93B JUMP JUMPDEST PUSH1 0x0 PUSH2 0x39E DUP3 PUSH1 0x4 PUSH2 0x9C1 JUMP JUMPDEST SWAP3 SWAP2 POP POP JUMP JUMPDEST PUSH1 0x0 DUP1 PUSH1 0x0 DUP1 PUSH1 0x0 DUP1 PUSH2 0x3B6 DUP8 PUSH2 0xF9C JUMP JUMPDEST PUSH2 0x3BF DUP8 PUSH2 0x1022 JUMP JUMPDEST SWAP6 POP PUSH2 0x3CA DUP8 PUSH2 0x1032 JUMP JUMPDEST SWAP5 POP PUSH2 0x3D5 DUP8 PUSH2 0x1042 JUMP JUMPDEST SWAP3 POP PUSH2 0x3E0 DUP8 PUSH2 0x1052 JUMP JUMPDEST SWAP4 POP PUSH2 0x3EB DUP8 PUSH2 0x1062 JUMP JUMPDEST SWAP2 POP PUSH2 0x3F6 DUP8 PUSH2 0x1072 JUMP JUMPDEST SWAP1 POP SWAP2 SWAP4 SWAP6 POP SWAP2 SWAP4 SWAP6 JUMP JUMPDEST PUSH1 0x0 PUSH2 0x39E DUP3 PUSH1 0x7 PUSH2 0x9C1 JUMP JUMPDEST PUSH1 0x0 DUP1 PUSH2 0x41A DUP4 PUSH2 0x843 JUMP JUMPDEST SWAP1 POP PUSH1 0x0 PUSH2 0x427 DUP3 PUSH2 0x440 JUMP JUMPDEST SWAP1 POP PUSH1 0x0 PUSH2 0x434 DUP4 PUSH2 0x401 JUMP JUMPDEST SWAP1 POP PUSH2 0x356 DUP3 DUP3 PUSH2 0x1082 JUMP JUMPDEST PUSH1 0x0 PUSH2 0x39E DUP3 PUSH1 0x8 PUSH2 0x9C1 JUMP JUMPDEST PUSH1 0x0 PUSH2 0x39E DUP3 PUSH1 0x2 PUSH2 0x9C1 JUMP JUMPDEST PUSH1 0x0 PUSH2 0x39E DUP3 PUSH1 0x6 PUSH2 0x9C1 JUMP JUMPDEST PUSH1 0x0 DUP1 PUSH2 0x473 DUP4 PUSH2 0x843 JUMP JUMPDEST SWAP1 POP PUSH1 0x0 PUSH2 0x480 DUP3 PUSH2 0x45A JUMP JUMPDEST SWAP1 POP PUSH1 0x0 PUSH2 0x48D DUP4 PUSH2 0x836 JUMP JUMPDEST SWAP1 POP PUSH2 0x356 DUP3 DUP3 PUSH2 0x1108 JUMP JUMPDEST PUSH1 0x0 DUP1 PUSH1 0x0 DUP1 PUSH1 0x0 DUP1 PUSH1 0x0 DUP1 PUSH2 0x4AE DUP10 PUSH2 0x81C JUMP JUMPDEST SWAP8 POP PUSH2 0x4B9 DUP10 PUSH2 0x44D JUMP JUMPDEST SWAP7 POP PUSH2 0x4C4 DUP10 PUSH2 0x829 JUMP JUMPDEST SWAP6 POP PUSH2 0x4CF DUP10 PUSH2 0x391 JUMP JUMPDEST SWAP5 POP PUSH2 0x4DA DUP10 PUSH2 0x836 JUMP JUMPDEST SWAP4 POP PUSH2 0x4E5 DUP10 PUSH2 0x45A JUMP JUMPDEST SWAP3 POP PUSH2 0x4F0 DUP10 PUSH2 0x401 JUMP JUMPDEST SWAP2 POP PUSH2 0x4FB DUP10 PUSH2 0x440 JUMP JUMPDEST SWAP1 POP SWAP2 SWAP4 SWAP6 SWAP8 POP SWAP2 SWAP4 SWAP6 SWAP8 JUMP JUMPDEST PUSH1 0x0 DUP1 PUSH1 0x0 DUP1 PUSH1 0x0 DUP1 PUSH1 0x0 PUSH2 0x51C DUP9 PUSH2 0xF9C JUMP JUMPDEST PUSH1 0x0 DUP1 MLOAD PUSH1 0x20 PUSH2 0x24D3 DUP4 CODECOPY DUP2 MLOAD SWAP2 MSTORE PUSH1 0x0 PUSH2 0x536 DUP11 PUSH2 0x118E JUMP JUMPDEST PUSH1 0xFF DUP2 AND PUSH1 0x0 SWAP1 DUP2 MSTORE PUSH1 0x2A DUP5 ADD PUSH1 0x20 SWAP1 DUP2 MSTORE PUSH1 0x40 DUP1 DUP4 KECCAK256 PUSH1 0x1 DUP5 MSTORE SWAP1 SWAP2 MSTORE DUP2 KECCAK256 SWAP2 SWAP3 POP PUSH2 0x562 DUP13 PUSH2 0x1022 JUMP JUMPDEST DUP2 MSTORE PUSH1 0x20 DUP1 DUP3 ADD SWAP3 SWAP1 SWAP3 MSTORE PUSH1 0x40 SWAP1 DUP2 ADD PUSH1 0x0 SWAP1 DUP2 KECCAK256 SLOAD PUSH1 0xFF DUP6 AND DUP3 MSTORE PUSH1 0x2A DUP7 ADD DUP5 MSTORE DUP3 DUP3 KECCAK256 PUSH1 0x2 DUP4 MSTORE SWAP1 SWAP4 MSTORE SWAP1 DUP2 KECCAK256 SWAP2 SWAP11 POP PUSH2 0x59D DUP13 PUSH2 0x1032 JUMP JUMPDEST DUP2 MSTORE PUSH1 0x20 DUP1 DUP3 ADD SWAP3 SWAP1 SWAP3 MSTORE PUSH1 0x40 SWAP1 DUP2 ADD PUSH1 0x0 SWAP1 DUP2 KECCAK256 SLOAD PUSH1 0xFF DUP6 AND DUP3 MSTORE PUSH1 0x2A DUP7 ADD DUP5 MSTORE DUP3 DUP3 KECCAK256 PUSH1 0x4 DUP4 MSTORE SWAP1 SWAP4 MSTORE SWAP1 DUP2 KECCAK256 SWAP2 SWAP10 POP PUSH2 0x5D8 DUP13 PUSH2 0x1042 JUMP JUMPDEST DUP2 MSTORE PUSH1 0x20 DUP1 DUP3 ADD SWAP3 SWAP1 SWAP3 MSTORE PUSH1 0x40 SWAP1 DUP2 ADD PUSH1 0x0 SWAP1 DUP2 KECCAK256 SLOAD PUSH1 0xFF DUP6 AND DUP3 MSTORE PUSH1 0x2A DUP7 ADD DUP5 MSTORE DUP3 DUP3 KECCAK256 PUSH1 0x3 DUP4 MSTORE SWAP1 SWAP4 MSTORE SWAP1 DUP2 KECCAK256 SWAP2 SWAP8 POP PUSH2 0x613 DUP13 PUSH2 0x1052 JUMP JUMPDEST DUP2 MSTORE PUSH1 0x20 DUP1 DUP3 ADD SWAP3 SWAP1 SWAP3 MSTORE PUSH1 0x40 SWAP1 DUP2 ADD PUSH1 0x0 SWAP1 DUP2 KECCAK256 SLOAD PUSH1 0xFF DUP6 AND DUP3 MSTORE PUSH1 0x2A DUP7 ADD DUP5 MSTORE DUP3 DUP3 KECCAK256 PUSH1 0x5 DUP4 MSTORE SWAP1 SWAP4 MSTORE SWAP1 DUP2 KECCAK256 SWAP2 SWAP9 POP PUSH2 0x64E DUP13 PUSH2 0x1062 JUMP JUMPDEST DUP2 MSTORE PUSH1 0x20 DUP1 DUP3 ADD SWAP3 SWAP1 SWAP3 MSTORE PUSH1 0x40 SWAP1 DUP2 ADD PUSH1 0x0 SWAP1 DUP2 KECCAK256 SLOAD PUSH1 0xFF DUP6 AND DUP3 MSTORE PUSH1 0x2A DUP7 ADD DUP5 MSTORE DUP3 DUP3 KECCAK256 PUSH1 0x6 DUP4 MSTORE SWAP1 SWAP4 MSTORE SWAP1 DUP2 KECCAK256 SWAP2 SWAP7 POP PUSH2 0x689 DUP13 PUSH2 0x1072 JUMP JUMPDEST DUP2 MSTORE PUSH1 0x20 DUP1 DUP3 ADD SWAP3 SWAP1 SWAP3 MSTORE PUSH1 0x40 SWAP1 DUP2 ADD PUSH1 0x0 SWAP1 DUP2 KECCAK256 SLOAD DUP13 DUP3 MSTORE PUSH1 0x27 DUP7 ADD SWAP1 SWAP4 MSTORE KECCAK256 SLOAD SWAP1 SWAP5 POP PUSH1 0xFF AND ISZERO PUSH2 0x6C2 JUMPI PUSH2 0x6BF DUP4 PUSH2 0x240C JUMP JUMPDEST SWAP3 POP JUMPDEST PUSH1 0x0 DUP9 DUP2 MSTORE PUSH1 0x27 DUP4 ADD PUSH1 0x20 MSTORE PUSH1 0x40 SWAP1 KECCAK256 SLOAD PUSH1 0xFF AND ISZERO PUSH2 0x6E7 JUMPI PUSH2 0x6E4 DUP4 PUSH2 0x240C JUMP JUMPDEST SWAP3 POP JUMPDEST PUSH1 0x0 DUP7 DUP2 MSTORE PUSH1 0x27 DUP4 ADD PUSH1 0x20 MSTORE PUSH1 0x40 SWAP1 KECCAK256 SLOAD PUSH1 0xFF AND ISZERO PUSH2 0x70C JUMPI PUSH2 0x709 DUP4 PUSH2 0x240C JUMP JUMPDEST SWAP3 POP JUMPDEST PUSH1 0x0 DUP8 DUP2 MSTORE PUSH1 0x27 DUP4 ADD PUSH1 0x20 MSTORE PUSH1 0x40 SWAP1 KECCAK256 SLOAD PUSH1 0xFF AND ISZERO PUSH2 0x731 JUMPI PUSH2 0x72E DUP4 PUSH2 0x240C JUMP JUMPDEST SWAP3 POP JUMPDEST PUSH1 0x0 DUP6 DUP2 MSTORE PUSH1 0x27 DUP4 ADD PUSH1 0x20 MSTORE PUSH1 0x40 SWAP1 KECCAK256 SLOAD PUSH1 0xFF AND ISZERO PUSH2 0x756 JUMPI PUSH2 0x753 DUP4 PUSH2 0x240C JUMP JUMPDEST SWAP3 POP JUMPDEST PUSH1 0x0 DUP5 DUP2 MSTORE PUSH1 0x27 DUP4 ADD PUSH1 0x20 MSTORE PUSH1 0x40 SWAP1 KECCAK256 SLOAD PUSH1 0xFF AND ISZERO PUSH2 0x77B JUMPI PUSH2 0x778 DUP4 PUSH2 0x240C JUMP JUMPDEST SWAP3 POP JUMPDEST POP POP SWAP2 SWAP4 SWAP6 SWAP8 SWAP1 SWAP3 SWAP5 SWAP7 POP JUMP JUMPDEST PUSH1 0x0 DUP1 DUP1 DUP1 DUP1 DUP1 DUP1 PUSH1 0x0 DUP1 MLOAD PUSH1 0x20 PUSH2 0x24D3 DUP4 CODECOPY DUP2 MLOAD SWAP2 MSTORE DUP2 PUSH2 0x7A9 DUP11 PUSH2 0x843 JUMP JUMPDEST SWAP1 POP PUSH2 0x7B4 DUP2 PUSH2 0xF9C JUMP JUMPDEST PUSH2 0x7BD DUP2 PUSH2 0x119D JUMP JUMPDEST SWAP9 POP PUSH2 0x7C8 DUP2 PUSH2 0x11AB JUMP JUMPDEST SWAP8 POP PUSH2 0x7D3 DUP2 PUSH2 0x11B9 JUMP JUMPDEST SWAP7 POP PUSH2 0x7DE DUP2 PUSH2 0x11C7 JUMP JUMPDEST SWAP6 POP PUSH2 0x7E9 DUP2 PUSH2 0x11D5 JUMP JUMPDEST SWAP5 POP PUSH2 0x7F4 DUP2 PUSH2 0x118E JUMP JUMPDEST PUSH1 0x0 SWAP11 DUP12 MSTORE PUSH1 0x1A SWAP1 SWAP3 ADD PUSH1 0x20 MSTORE POP PUSH1 0x40 SWAP1 SWAP9 KECCAK256 SLOAD SWAP7 SWAP9 SWAP6 SWAP8 SWAP5 SWAP7 SWAP4 SWAP6 SWAP3 SWAP5 PUSH1 0xFF AND SWAP4 SWAP3 SWAP2 POP POP JUMP JUMPDEST PUSH1 0x0 PUSH2 0x39E DUP3 PUSH1 0x1 PUSH2 0x9C1 JUMP JUMPDEST PUSH1 0x0 PUSH2 0x39E DUP3 PUSH1 0x3 PUSH2 0x9C1 JUMP JUMPDEST PUSH1 0x0 PUSH2 0x39E DUP3 PUSH1 0x5 PUSH2 0x9C1 JUMP JUMPDEST PUSH1 0x0 PUSH2 0x84E DUP3 PUSH2 0x11E4 JUMP JUMPDEST ISZERO PUSH2 0x85C JUMPI PUSH2 0x39E DUP3 PUSH2 0x12E8 JUMP JUMPDEST PUSH1 0x0 DUP1 MLOAD PUSH1 0x20 PUSH2 0x24D3 DUP4 CODECOPY DUP2 MLOAD SWAP2 MSTORE JUMPDEST PUSH1 0x0 SWAP3 DUP4 MSTORE PUSH1 0x18 ADD PUSH1 0x20 MSTORE POP PUSH1 0x40 SWAP1 KECCAK256 SLOAD SWAP1 JUMP JUMPDEST PUSH32 0xC8FCAD8DB84D3CC18B4C41D551EA0EE66DD599CDE068D998E57D5E09332C1360 SLOAD PUSH32 0xC8FCAD8DB84D3CC18B4C41D551EA0EE66DD599CDE068D998E57D5E09332C1361 SLOAD PUSH32 0xC8FCAD8DB84D3CC18B4C41D551EA0EE66DD599CDE068D998E57D5E09332C135F SLOAD PUSH1 0x0 SWAP3 PUSH1 0x0 DUP1 MLOAD PUSH1 0x20 PUSH2 0x24D3 DUP4 CODECOPY DUP2 MLOAD SWAP2 MSTORE SWAP3 SWAP1 SWAP2 DUP5 PUSH2 0x906 DUP5 DUP10 PUSH2 0x242C JUMP JUMPDEST SWAP1 POP PUSH1 0x0 PUSH2 0x914 DUP5 DUP10 PUSH2 0x242C JUMP JUMPDEST SWAP1 POP PUSH1 0x0 DUP4 PUSH2 0x923 DUP4 DUP6 PUSH2 0x244B JUMP JUMPDEST PUSH2 0x92D SWAP2 SWAP1 PUSH2 0x242C JUMP JUMPDEST SWAP11 SWAP10 POP POP POP POP POP POP POP POP POP POP JUMP JUMPDEST PUSH32 0xC8FCAD8DB84D3CC18B4C41D551EA0EE66DD599CDE068D998E57D5E09332C1363 SLOAD PUSH32 0xC8FCAD8DB84D3CC18B4C41D551EA0EE66DD599CDE068D998E57D5E09332C1364 SLOAD PUSH32 0xC8FCAD8DB84D3CC18B4C41D551EA0EE66DD599CDE068D998E57D5E09332C1362 SLOAD PUSH1 0x0 SWAP3 PUSH1 0x0 DUP1 MLOAD PUSH1 0x20 PUSH2 0x24D3 DUP4 CODECOPY DUP2 MLOAD SWAP2 MSTORE SWAP3 SWAP1 SWAP2 DUP5 PUSH2 0x906 DUP5 DUP10 PUSH2 0x242C JUMP JUMPDEST PUSH1 0x0 PUSH2 0x9CC DUP4 PUSH2 0xF9C JUMP JUMPDEST PUSH1 0x2 PUSH2 0x9D7 DUP5 PUSH2 0x11C7 JUMP JUMPDEST EQ DUP1 PUSH2 0x9EB JUMPI POP PUSH1 0x1 PUSH2 0x9E9 DUP5 PUSH2 0x11C7 JUMP JUMPDEST EQ JUMPDEST PUSH2 0xA62 JUMPI PUSH1 0x40 MLOAD PUSH3 0x461BCD PUSH1 0xE5 SHL DUP2 MSTORE PUSH1 0x20 PUSH1 0x4 DUP3 ADD MSTORE PUSH1 0x3C PUSH1 0x24 DUP3 ADD MSTORE PUSH32 0x4C696253746174733A20496E76616C696420444E41204C6966656379636C6520 PUSH1 0x44 DUP3 ADD MSTORE PUSH32 0x53746167652C206D7573742062652062616279206F72206164756C7400000000 PUSH1 0x64 DUP3 ADD MSTORE PUSH1 0x84 ADD JUMPDEST PUSH1 0x40 MLOAD DUP1 SWAP2 SUB SWAP1 REVERT JUMPDEST PUSH1 0x0 DUP1 MLOAD PUSH1 0x20 PUSH2 0x24D3 DUP4 CODECOPY DUP2 MLOAD SWAP2 MSTORE PUSH1 0x0 PUSH2 0xA7C DUP6 PUSH2 0x118E JUMP JUMPDEST PUSH1 0xFF AND PUSH1 0x0 DUP2 DUP2 MSTORE PUSH1 0x2C DUP5 ADD PUSH1 0x20 SWAP1 DUP2 MSTORE PUSH1 0x40 DUP1 DUP4 KECCAK256 DUP9 DUP5 MSTORE SWAP1 SWAP2 MSTORE SWAP1 KECCAK256 SLOAD SWAP1 SWAP2 POP PUSH1 0x2 PUSH2 0xAA9 DUP8 PUSH2 0x11C7 JUMP JUMPDEST EQ ISZERO PUSH2 0xAC7 JUMPI PUSH2 0xABA PUSH1 0x5 DUP3 PUSH2 0x2479 JUMP JUMPDEST PUSH2 0xAC4 SWAP1 DUP3 PUSH2 0x244B JUMP JUMPDEST SWAP1 POP JUMPDEST PUSH1 0x40 DUP1 MLOAD PUSH1 0x12 DUP1 DUP3 MSTORE PUSH2 0x260 DUP3 ADD SWAP1 SWAP3 MSTORE PUSH1 0x0 SWAP2 PUSH1 0x20 DUP3 ADD PUSH2 0x240 DUP1 CALLDATASIZE DUP4 CALLDATACOPY ADD SWAP1 POP POP SWAP1 POP PUSH2 0xAF5 DUP8 PUSH2 0x1D20 JUMP JUMPDEST DUP2 PUSH1 0x0 DUP2 MLOAD DUP2 LT PUSH2 0xB08 JUMPI PUSH2 0xB08 PUSH2 0x248D JUMP JUMPDEST PUSH1 0x20 MUL PUSH1 0x20 ADD ADD DUP2 DUP2 MSTORE POP POP PUSH2 0xB1D DUP8 PUSH2 0x1D31 JUMP JUMPDEST DUP2 PUSH1 0x1 DUP2 MLOAD DUP2 LT PUSH2 0xB30 JUMPI PUSH2 0xB30 PUSH2 0x248D JUMP JUMPDEST PUSH1 0x20 MUL PUSH1 0x20 ADD ADD DUP2 DUP2 MSTORE POP POP PUSH2 0xB45 DUP8 PUSH2 0x1D43 JUMP JUMPDEST DUP2 PUSH1 0x2 DUP2 MLOAD DUP2 LT PUSH2 0xB58 JUMPI PUSH2 0xB58 PUSH2 0x248D JUMP JUMPDEST PUSH1 0x20 MUL PUSH1 0x20 ADD ADD DUP2 DUP2 MSTORE POP POP PUSH2 0xB6D DUP8 PUSH2 0x1D56 JUMP JUMPDEST DUP2 PUSH1 0x3 DUP2 MLOAD DUP2 LT PUSH2 0xB80 JUMPI PUSH2 0xB80 PUSH2 0x248D JUMP JUMPDEST PUSH1 0x20 MUL PUSH1 0x20 ADD ADD DUP2 DUP2 MSTORE POP POP PUSH2 0xB95 DUP8 PUSH2 0x1D66 JUMP JUMPDEST DUP2 PUSH1 0x4 DUP2 MLOAD DUP2 LT PUSH2 0xBA8 JUMPI PUSH2 0xBA8 PUSH2 0x248D JUMP JUMPDEST PUSH1 0x20 MUL PUSH1 0x20 ADD ADD DUP2 DUP2 MSTORE POP POP PUSH2 0xBBD DUP8 PUSH2 0x1D76 JUMP JUMPDEST DUP2 PUSH1 0x5 DUP2 MLOAD DUP2 LT PUSH2 0xBD0 JUMPI PUSH2 0xBD0 PUSH2 0x248D JUMP JUMPDEST PUSH1 0x20 MUL PUSH1 0x20 ADD ADD DUP2 DUP2 MSTORE POP POP PUSH2 0xBE5 DUP8 PUSH2 0x1D86 JUMP JUMPDEST DUP2 PUSH1 0x6 DUP2 MLOAD DUP2 LT PUSH2 0xBF8 JUMPI PUSH2 0xBF8 PUSH2 0x248D JUMP JUMPDEST PUSH1 0x20 MUL PUSH1 0x20 ADD ADD DUP2 DUP2 MSTORE POP POP PUSH2 0xC0D DUP8 PUSH2 0x1D96 JUMP JUMPDEST DUP2 PUSH1 0x7 DUP2 MLOAD DUP2 LT PUSH2 0xC20 JUMPI PUSH2 0xC20 PUSH2 0x248D JUMP JUMPDEST PUSH1 0x20 MUL PUSH1 0x20 ADD ADD DUP2 DUP2 MSTORE POP POP PUSH2 0xC35 DUP8 PUSH2 0x1DA6 JUMP JUMPDEST DUP2 PUSH1 0x8 DUP2 MLOAD DUP2 LT PUSH2 0xC48 JUMPI PUSH2 0xC48 PUSH2 0x248D JUMP JUMPDEST PUSH1 0x20 MUL PUSH1 0x20 ADD ADD DUP2 DUP2 MSTORE POP POP PUSH2 0xC5D DUP8 PUSH2 0x1DB6 JUMP JUMPDEST DUP2 PUSH1 0x9 DUP2 MLOAD DUP2 LT PUSH2 0xC70 JUMPI PUSH2 0xC70 PUSH2 0x248D JUMP JUMPDEST PUSH1 0x20 MUL PUSH1 0x20 ADD ADD DUP2 DUP2 MSTORE POP POP PUSH2 0xC85 DUP8 PUSH2 0x1DC6 JUMP JUMPDEST DUP2 PUSH1 0xA DUP2 MLOAD DUP2 LT PUSH2 0xC98 JUMPI PUSH2 0xC98 PUSH2 0x248D JUMP JUMPDEST PUSH1 0x20 MUL PUSH1 0x20 ADD ADD DUP2 DUP2 MSTORE POP POP PUSH2 0xCAD DUP8 PUSH2 0x1DD6 JUMP JUMPDEST DUP2 PUSH1 0xB DUP2 MLOAD DUP2 LT PUSH2 0xCC0 JUMPI PUSH2 0xCC0 PUSH2 0x248D JUMP JUMPDEST PUSH1 0x20 MUL PUSH1 0x20 ADD ADD DUP2 DUP2 MSTORE POP POP PUSH2 0xCD5 DUP8 PUSH2 0x1DE6 JUMP JUMPDEST DUP2 PUSH1 0xC DUP2 MLOAD DUP2 LT PUSH2 0xCE8 JUMPI PUSH2 0xCE8 PUSH2 0x248D JUMP JUMPDEST PUSH1 0x20 MUL PUSH1 0x20 ADD ADD DUP2 DUP2 MSTORE POP POP PUSH2 0xCFD DUP8 PUSH2 0x1DF6 JUMP JUMPDEST DUP2 PUSH1 0xD DUP2 MLOAD DUP2 LT PUSH2 0xD10 JUMPI PUSH2 0xD10 PUSH2 0x248D JUMP JUMPDEST PUSH1 0x20 MUL PUSH1 0x20 ADD ADD DUP2 DUP2 MSTORE POP POP PUSH2 0xD25 DUP8 PUSH2 0x1E06 JUMP JUMPDEST DUP2 PUSH1 0xE DUP2 MLOAD DUP2 LT PUSH2 0xD38 JUMPI PUSH2 0xD38 PUSH2 0x248D JUMP JUMPDEST PUSH1 0x20 MUL PUSH1 0x20 ADD ADD DUP2 DUP2 MSTORE POP POP PUSH2 0xD4D DUP8 PUSH2 0x1E16 JUMP JUMPDEST DUP2 PUSH1 0xF DUP2 MLOAD DUP2 LT PUSH2 0xD60 JUMPI PUSH2 0xD60 PUSH2 0x248D JUMP JUMPDEST PUSH1 0x20 MUL PUSH1 0x20 ADD ADD DUP2 DUP2 MSTORE POP POP PUSH2 0xD75 DUP8 PUSH2 0x1E26 JUMP JUMPDEST DUP2 PUSH1 0x10 DUP2 MLOAD DUP2 LT PUSH2 0xD88 JUMPI PUSH2 0xD88 PUSH2 0x248D JUMP JUMPDEST PUSH1 0x20 MUL PUSH1 0x20 ADD ADD DUP2 DUP2 MSTORE POP POP PUSH2 0xD9D DUP8 PUSH2 0x1E36 JUMP JUMPDEST DUP2 PUSH1 0x11 DUP2 MLOAD DUP2 LT PUSH2 0xDB0 JUMPI PUSH2 0xDB0 PUSH2 0x248D JUMP JUMPDEST PUSH1 0x20 MUL PUSH1 0x20 ADD ADD DUP2 DUP2 MSTORE POP POP PUSH1 0x0 DUP1 PUSH1 0x0 JUMPDEST PUSH1 0x12 DUP2 LT ISZERO PUSH2 0xF4C JUMPI PUSH1 0x1 JUMPDEST PUSH1 0x3 DUP2 GT PUSH2 0xF3B JUMPI DUP10 DUP9 PUSH1 0x24 ADD PUSH1 0x0 DUP8 DUP6 DUP2 MLOAD DUP2 LT PUSH2 0xDEF JUMPI PUSH2 0xDEF PUSH2 0x248D JUMP JUMPDEST PUSH1 0x20 MUL PUSH1 0x20 ADD ADD MLOAD DUP2 MSTORE PUSH1 0x20 ADD SWAP1 DUP2 MSTORE PUSH1 0x20 ADD PUSH1 0x0 KECCAK256 PUSH1 0x0 DUP4 DUP2 MSTORE PUSH1 0x20 ADD SWAP1 DUP2 MSTORE PUSH1 0x20 ADD PUSH1 0x0 KECCAK256 SLOAD EQ ISZERO PUSH2 0xF2B JUMPI DUP8 PUSH1 0x20 ADD PUSH1 0x0 DUP7 DUP5 DUP2 MLOAD DUP2 LT PUSH2 0xE35 JUMPI PUSH2 0xE35 PUSH2 0x248D JUMP JUMPDEST PUSH1 0x20 MUL PUSH1 0x20 ADD ADD MLOAD DUP2 MSTORE PUSH1 0x20 ADD SWAP1 DUP2 MSTORE PUSH1 0x20 ADD PUSH1 0x0 KECCAK256 SLOAD PUSH1 0x1 EQ ISZERO PUSH2 0xEA6 JUMPI DUP8 PUSH1 0x25 ADD PUSH1 0x0 DUP7 DUP5 DUP2 MLOAD DUP2 LT PUSH2 0xE6C JUMPI PUSH2 0xE6C PUSH2 0x248D JUMP JUMPDEST PUSH1 0x20 MUL PUSH1 0x20 ADD ADD MLOAD DUP2 MSTORE PUSH1 0x20 ADD SWAP1 DUP2 MSTORE PUSH1 0x20 ADD PUSH1 0x0 KECCAK256 PUSH1 0x0 DUP3 DUP2 MSTORE PUSH1 0x20 ADD SWAP1 DUP2 MSTORE PUSH1 0x20 ADD PUSH1 0x0 KECCAK256 SLOAD DUP4 PUSH2 0xE9F SWAP2 SWAP1 PUSH2 0x244B JUMP JUMPDEST SWAP3 POP PUSH2 0xF2B JUMP JUMPDEST DUP8 PUSH1 0x20 ADD PUSH1 0x0 DUP7 DUP5 DUP2 MLOAD DUP2 LT PUSH2 0xEBE JUMPI PUSH2 0xEBE PUSH2 0x248D JUMP JUMPDEST PUSH1 0x20 MUL PUSH1 0x20 ADD ADD MLOAD DUP2 MSTORE PUSH1 0x20 ADD SWAP1 DUP2 MSTORE PUSH1 0x20 ADD PUSH1 0x0 KECCAK256 SLOAD PUSH1 0x2 EQ ISZERO PUSH2 0xF2B JUMPI DUP8 PUSH1 0x25 ADD PUSH1 0x0 DUP7 DUP5 DUP2 MLOAD DUP2 LT PUSH2 0xEF5 JUMPI PUSH2 0xEF5 PUSH2 0x248D JUMP JUMPDEST PUSH1 0x20 MUL PUSH1 0x20 ADD ADD MLOAD DUP2 MSTORE PUSH1 0x20 ADD SWAP1 DUP2 MSTORE PUSH1 0x20 ADD PUSH1 0x0 KECCAK256 PUSH1 0x0 DUP3 DUP2 MSTORE PUSH1 0x20 ADD SWAP1 DUP2 MSTORE PUSH1 0x20 ADD PUSH1 0x0 KECCAK256 SLOAD DUP5 PUSH2 0xF28 SWAP2 SWAP1 PUSH2 0x244B JUMP JUMPDEST SWAP4 POP JUMPDEST PUSH2 0xF34 DUP2 PUSH2 0x24A3 JUMP JUMPDEST SWAP1 POP PUSH2 0xDCE JUMP JUMPDEST POP PUSH2 0xF45 DUP2 PUSH2 0x24A3 JUMP JUMPDEST SWAP1 POP PUSH2 0xDC2 JUMP JUMPDEST POP PUSH1 0x0 PUSH2 0xF59 DUP4 DUP7 PUSH2 0x244B JUMP JUMPDEST SWAP1 POP PUSH1 0x64 PUSH2 0xF67 DUP4 DUP4 PUSH2 0x242C JUMP JUMPDEST PUSH2 0xF71 SWAP2 SWAP1 PUSH2 0x2479 JUMP JUMPDEST PUSH2 0xF7B SWAP1 DUP3 PUSH2 0x244B JUMP JUMPDEST SWAP1 POP PUSH2 0x3E8 DUP2 GT ISZERO PUSH2 0xF8F JUMPI PUSH2 0x3E8 PUSH2 0x92D JUMP JUMPDEST SWAP10 SWAP9 POP POP POP POP POP POP POP POP POP JUMP JUMPDEST PUSH32 0xC8FCAD8DB84D3CC18B4C41D551EA0EE66DD599CDE068D998E57D5E09332C135D SLOAD PUSH2 0xFC7 DUP3 PUSH2 0x1E46 JUMP JUMPDEST EQ PUSH2 0x101F JUMPI PUSH1 0x40 MLOAD PUSH3 0x461BCD PUSH1 0xE5 SHL DUP2 MSTORE PUSH1 0x20 PUSH1 0x4 DUP3 ADD MSTORE PUSH1 0x22 PUSH1 0x24 DUP3 ADD MSTORE PUSH32 0x4C6962556E69636F726E444E413A20496E76616C696420444E41207665727369 PUSH1 0x44 DUP3 ADD MSTORE PUSH2 0x37B7 PUSH1 0xF1 SHL PUSH1 0x64 DUP3 ADD MSTORE PUSH1 0x84 ADD PUSH2 0xA59 JUMP JUMPDEST POP JUMP JUMPDEST PUSH1 0x0 PUSH2 0x39E DUP3 PUSH4 0x1FE00000 PUSH2 0x1E4F JUMP JUMPDEST PUSH1 0x0 PUSH2 0x39E DUP3 PUSH1 0xFF PUSH1 0x35 SHL PUSH2 0x1E4F JUMP JUMPDEST PUSH1 0x0 PUSH2 0x39E DUP3 PUSH1 0xFF PUSH1 0x75 SHL PUSH2 0x1E4F JUMP JUMPDEST PUSH1 0x0 PUSH2 0x39E DUP3 PUSH1 0xFF PUSH1 0x55 SHL PUSH2 0x1E4F JUMP JUMPDEST PUSH1 0x0 PUSH2 0x39E DUP3 PUSH1 0xFF PUSH1 0x95 SHL PUSH2 0x1E4F JUMP JUMPDEST PUSH1 0x0 PUSH2 0x39E DUP3 PUSH1 0xFF PUSH1 0xB5 SHL PUSH2 0x1E4F JUMP JUMPDEST PUSH32 0xC8FCAD8DB84D3CC18B4C41D551EA0EE66DD599CDE068D998E57D5E09332C1369 SLOAD PUSH32 0xC8FCAD8DB84D3CC18B4C41D551EA0EE66DD599CDE068D998E57D5E09332C136A SLOAD PUSH32 0xC8FCAD8DB84D3CC18B4C41D551EA0EE66DD599CDE068D998E57D5E09332C1368 SLOAD PUSH1 0x0 SWAP3 PUSH1 0x0 DUP1 MLOAD PUSH1 0x20 PUSH2 0x24D3 DUP4 CODECOPY DUP2 MLOAD SWAP2 MSTORE SWAP3 SWAP1 SWAP2 DUP5 PUSH2 0x906 DUP5 DUP10 PUSH2 0x242C JUMP JUMPDEST PUSH32 0xC8FCAD8DB84D3CC18B4C41D551EA0EE66DD599CDE068D998E57D5E09332C1366 SLOAD PUSH32 0xC8FCAD8DB84D3CC18B4C41D551EA0EE66DD599CDE068D998E57D5E09332C1367 SLOAD PUSH32 0xC8FCAD8DB84D3CC18B4C41D551EA0EE66DD599CDE068D998E57D5E09332C1365 SLOAD PUSH1 0x0 SWAP3 PUSH1 0x0 DUP1 MLOAD PUSH1 0x20 PUSH2 0x24D3 DUP4 CODECOPY DUP2 MLOAD SWAP2 MSTORE SWAP3 SWAP1 SWAP2 DUP5 PUSH2 0x906 DUP5 DUP10 PUSH2 0x242C JUMP JUMPDEST PUSH1 0x0 PUSH2 0x39E DUP3 PUSH3 0x1E0000 PUSH2 0x1E4F JUMP JUMPDEST PUSH1 0x0 PUSH2 0x100 DUP3 AND ISZERO ISZERO PUSH2 0x39E JUMP JUMPDEST PUSH1 0x0 PUSH2 0x200 DUP3 AND ISZERO ISZERO PUSH2 0x39E JUMP JUMPDEST PUSH1 0x0 PUSH2 0x400 DUP3 AND ISZERO ISZERO PUSH2 0x39E JUMP JUMPDEST PUSH1 0x0 PUSH2 0x39E DUP3 PUSH2 0x1800 PUSH2 0x1E4F JUMP JUMPDEST PUSH1 0x0 PUSH2 0x39E DUP3 PUSH3 0x1E000 PUSH2 0x1E4F JUMP JUMPDEST PUSH1 0x0 PUSH2 0x11EF DUP3 PUSH2 0x1E68 JUMP JUMPDEST DUP1 ISZERO PUSH2 0x1201 JUMPI POP PUSH2 0x11FF DUP3 PUSH2 0x1EA4 JUMP JUMPDEST ISZERO JUMPDEST ISZERO PUSH2 0x12E0 JUMPI PUSH1 0x0 DUP3 DUP2 MSTORE PUSH32 0xFDCCEBC9C7798F16C9158AF32C6BB14BB2526BCD260561CAB5771CFF2FA8AD96 PUSH1 0x20 SWAP1 DUP2 MSTORE PUSH1 0x40 DUP1 DUP4 KECCAK256 SLOAD DUP1 DUP5 MSTORE PUSH32 0xFDCCEBC9C7798F16C9158AF32C6BB14BB2526BCD260561CAB5771CFF2FA8AD90 DUP4 MSTORE DUP2 DUP5 KECCAK256 SLOAD DUP1 DUP6 MSTORE PUSH32 0xFDCCEBC9C7798F16C9158AF32C6BB14BB2526BCD260561CAB5771CFF2FA8AD94 SWAP1 SWAP4 MSTORE SWAP3 KECCAK256 SLOAD PUSH32 0xFDCCEBC9C7798F16C9158AF32C6BB14BB2526BCD260561CAB5771CFF2FA8AD8E SWAP3 SWAP2 SWAP1 ISZERO DUP1 ISZERO SWAP1 PUSH2 0x12CC JUMPI POP PUSH1 0x0 DUP2 DUP2 MSTORE PUSH1 0x6 DUP5 ADD PUSH1 0x20 MSTORE PUSH1 0x40 SWAP1 KECCAK256 SLOAD NUMBER GT JUMPDEST ISZERO PUSH2 0x12DC JUMPI POP PUSH1 0x1 SWAP5 SWAP4 POP POP POP POP JUMP JUMPDEST POP POP POP JUMPDEST POP PUSH1 0x0 SWAP2 SWAP1 POP JUMP JUMPDEST PUSH1 0x0 PUSH2 0x12F3 DUP3 PUSH2 0x1EA4 JUMP JUMPDEST ISZERO PUSH2 0x1340 JUMPI PUSH1 0x40 MLOAD PUSH3 0x461BCD PUSH1 0xE5 SHL DUP2 MSTORE PUSH1 0x20 PUSH1 0x4 DUP3 ADD MSTORE PUSH1 0x1A PUSH1 0x24 DUP3 ADD MSTORE PUSH32 0x4C69624861746368696E673A20524E47206E6F74207265616479000000000000 PUSH1 0x44 DUP3 ADD MSTORE PUSH1 0x64 ADD PUSH2 0xA59 JUMP JUMPDEST PUSH2 0x1349 DUP3 PUSH2 0x1E68 JUMP JUMPDEST PUSH2 0x1395 JUMPI PUSH1 0x40 MLOAD PUSH3 0x461BCD PUSH1 0xE5 SHL DUP2 MSTORE PUSH1 0x20 PUSH1 0x4 DUP3 ADD DUP2 SWAP1 MSTORE PUSH1 0x24 DUP3 ADD MSTORE PUSH32 0x4C69624861746368696E673A2057616974696E6720666F72205652462054544C PUSH1 0x44 DUP3 ADD MSTORE PUSH1 0x64 ADD PUSH2 0xA59 JUMP JUMPDEST PUSH1 0x0 DUP3 DUP2 MSTORE PUSH32 0xFDCCEBC9C7798F16C9158AF32C6BB14BB2526BCD260561CAB5771CFF2FA8AD96 PUSH1 0x20 SWAP1 DUP2 MSTORE PUSH1 0x40 DUP1 DUP4 KECCAK256 SLOAD DUP4 MSTORE PUSH32 0xFDCCEBC9C7798F16C9158AF32C6BB14BB2526BCD260561CAB5771CFF2FA8AD90 DUP3 MSTORE DUP1 DUP4 KECCAK256 SLOAD DUP1 DUP5 MSTORE PUSH32 0xFDCCEBC9C7798F16C9158AF32C6BB14BB2526BCD260561CAB5771CFF2FA8AD94 SWAP1 SWAP3 MSTORE SWAP1 SWAP2 KECCAK256 SLOAD PUSH32 0xFDCCEBC9C7798F16C9158AF32C6BB14BB2526BCD260561CAB5771CFF2FA8AD8E SWAP2 SWAP1 PUSH2 0x1489 JUMPI PUSH1 0x40 MLOAD PUSH3 0x461BCD PUSH1 0xE5 SHL DUP2 MSTORE PUSH1 0x20 PUSH1 0x4 DUP3 ADD MSTORE PUSH1 0x17 PUSH1 0x24 DUP3 ADD MSTORE PUSH32 0x4C69624861746368696E673A204E6F20524E4720736574000000000000000000 PUSH1 0x44 DUP3 ADD MSTORE PUSH1 0x64 ADD PUSH2 0xA59 JUMP JUMPDEST PUSH1 0x0 DUP2 DUP2 MSTORE PUSH1 0x6 DUP4 ADD PUSH1 0x20 MSTORE PUSH1 0x40 SWAP1 KECCAK256 SLOAD NUMBER GT PUSH2 0x1504 JUMPI PUSH1 0x40 MLOAD PUSH3 0x461BCD PUSH1 0xE5 SHL DUP2 MSTORE PUSH1 0x20 PUSH1 0x4 DUP3 ADD MSTORE PUSH1 0x33 PUSH1 0x24 DUP3 ADD MSTORE PUSH32 0x4C69624861746368696E673A2050726564696374696F6E206D61736B65642064 PUSH1 0x44 DUP3 ADD MSTORE PUSH19 0x7572696E6720524E472073657420626C6F636B PUSH1 0x68 SHL PUSH1 0x64 DUP3 ADD MSTORE PUSH1 0x84 ADD PUSH2 0xA59 JUMP JUMPDEST PUSH1 0x0 PUSH2 0x150F DUP6 PUSH2 0x1EDD JUMP JUMPDEST SWAP1 POP PUSH1 0x0 PUSH2 0x151C DUP3 PUSH2 0x11C7 JUMP JUMPDEST EQ PUSH2 0x157D JUMPI PUSH1 0x40 MLOAD PUSH3 0x461BCD PUSH1 0xE5 SHL DUP2 MSTORE PUSH1 0x20 PUSH1 0x4 DUP3 ADD MSTORE PUSH1 0x2B PUSH1 0x24 DUP3 ADD MSTORE PUSH32 0x4C69624861746368696E673A20444E412068617320616C726561647920626565 PUSH1 0x44 DUP3 ADD MSTORE PUSH11 0x1B881C195C9CDA5CDD1959 PUSH1 0xAA SHL PUSH1 0x64 DUP3 ADD MSTORE PUSH1 0x84 ADD PUSH2 0xA59 JUMP JUMPDEST PUSH1 0x0 PUSH2 0x1588 DUP3 PUSH2 0x118E JUMP JUMPDEST PUSH1 0x0 DUP8 DUP2 MSTORE PUSH32 0xC8FCAD8DB84D3CC18B4C41D551EA0EE66DD599CDE068D998E57D5E09332C1356 PUSH1 0x20 MSTORE PUSH1 0x40 DUP2 KECCAK256 PUSH1 0xFF SWAP3 SWAP1 SWAP3 AND SWAP3 POP PUSH1 0x0 DUP1 MLOAD PUSH1 0x20 PUSH2 0x24D3 DUP4 CODECOPY DUP2 MLOAD SWAP2 MSTORE SWAP2 PUSH2 0x15DA SWAP1 DUP3 JUMPDEST ADD SLOAD PUSH2 0x843 JUMP JUMPDEST PUSH1 0x0 DUP10 DUP2 MSTORE PUSH1 0x3A DUP5 ADD PUSH1 0x20 MSTORE PUSH1 0x40 DUP2 KECCAK256 SWAP2 SWAP3 POP SWAP1 PUSH2 0x15F8 SWAP1 DUP3 PUSH2 0x15D3 JUMP JUMPDEST SWAP1 POP PUSH1 0x0 PUSH2 0x1605 DUP4 PUSH2 0x118E JUMP JUMPDEST PUSH1 0xFF AND DUP6 EQ SWAP1 POP PUSH1 0x0 PUSH2 0x1617 DUP4 PUSH2 0x118E JUMP JUMPDEST PUSH1 0xFF AND DUP7 EQ SWAP1 POP PUSH1 0x0 DUP3 DUP1 PUSH2 0x1629 JUMPI POP DUP2 JUMPDEST SWAP1 POP PUSH2 0x1636 DUP9 PUSH1 0x1 PUSH2 0x1EF3 JUMP JUMPDEST PUSH1 0x0 DUP11 DUP2 MSTORE PUSH1 0x4 DUP13 ADD PUSH1 0x20 SWAP1 DUP2 MSTORE PUSH1 0x40 DUP1 DUP4 KECCAK256 SLOAD PUSH1 0x5 DUP16 ADD SWAP1 SWAP3 MSTORE DUP3 KECCAK256 SLOAD SWAP3 SWAP11 POP SWAP2 SWAP1 DUP4 DUP1 ISZERO PUSH2 0x1672 JUMPI POP DUP3 PUSH2 0x1670 PUSH2 0x2710 DUP5 PUSH1 0xB PUSH2 0x1F02 JUMP JUMPDEST LT JUMPDEST ISZERO PUSH2 0x170E JUMPI DUP6 DUP1 ISZERO PUSH2 0x1681 JUMPI POP DUP5 JUMPDEST ISZERO PUSH2 0x16A9 JUMPI PUSH2 0x1693 PUSH1 0x2 DUP4 PUSH1 0xC PUSH2 0x1F02 JUMP JUMPDEST PUSH1 0x1 EQ PUSH2 0x16A0 JUMPI DUP7 PUSH2 0x16A2 JUMP JUMPDEST DUP8 JUMPDEST SWAP1 POP PUSH2 0x16B9 JUMP JUMPDEST DUP6 PUSH2 0x16B4 JUMPI DUP7 PUSH2 0x16B6 JUMP JUMPDEST DUP8 JUMPDEST SWAP1 POP JUMPDEST PUSH2 0x16CB DUP12 PUSH2 0x16C6 DUP4 PUSH2 0x1022 JUMP JUMPDEST PUSH2 0x1F4C JUMP JUMPDEST SWAP11 POP PUSH2 0x16DF DUP12 PUSH2 0x16DA DUP4 PUSH2 0x1D20 JUMP JUMPDEST PUSH2 0x1F5D JUMP JUMPDEST SWAP11 POP PUSH2 0x16F3 DUP12 PUSH2 0x16EE DUP4 PUSH2 0x1D31 JUMP JUMPDEST PUSH2 0x1F6F JUMP JUMPDEST SWAP11 POP PUSH2 0x1707 DUP12 PUSH2 0x1702 DUP4 PUSH2 0x1D43 JUMP JUMPDEST PUSH2 0x1F82 JUMP JUMPDEST SWAP11 POP PUSH2 0x1777 JUMP JUMPDEST PUSH2 0x173B DUP12 DUP11 PUSH1 0x26 ADD PUSH1 0x0 PUSH2 0x1727 DUP14 DUP16 PUSH1 0x1 DUP10 PUSH1 0xD PUSH2 0x1F96 JUMP JUMPDEST DUP2 MSTORE PUSH1 0x20 ADD SWAP1 DUP2 MSTORE PUSH1 0x20 ADD PUSH1 0x0 KECCAK256 SLOAD PUSH2 0x1F4C JUMP JUMPDEST SWAP11 POP PUSH2 0x174E DUP12 PUSH2 0x16DA DUP12 DUP14 DUP7 PUSH1 0xE PUSH2 0x2130 JUMP JUMPDEST SWAP11 POP PUSH2 0x1761 DUP12 PUSH2 0x16EE DUP12 DUP14 DUP7 PUSH1 0xF PUSH2 0x2130 JUMP JUMPDEST SWAP11 POP PUSH2 0x1774 DUP12 PUSH2 0x1702 DUP12 DUP14 DUP7 PUSH1 0x10 PUSH2 0x2130 JUMP JUMPDEST SWAP11 POP JUMPDEST DUP4 DUP1 ISZERO PUSH2 0x1790 JUMPI POP DUP3 PUSH2 0x178E PUSH2 0x2710 DUP5 PUSH1 0x15 PUSH2 0x1F02 JUMP JUMPDEST LT JUMPDEST ISZERO PUSH2 0x182C JUMPI DUP6 DUP1 ISZERO PUSH2 0x179F JUMPI POP DUP5 JUMPDEST ISZERO PUSH2 0x17C7 JUMPI PUSH2 0x17B1 PUSH1 0x2 DUP4 PUSH1 0x16 PUSH2 0x1F02 JUMP JUMPDEST PUSH1 0x1 EQ PUSH2 0x17BE JUMPI DUP7 PUSH2 0x17C0 JUMP JUMPDEST DUP8 JUMPDEST SWAP1 POP PUSH2 0x17D7 JUMP JUMPDEST DUP6 PUSH2 0x17D2 JUMPI DUP7 PUSH2 0x17D4 JUMP JUMPDEST DUP8 JUMPDEST SWAP1 POP JUMPDEST PUSH2 0x17E9 DUP12 PUSH2 0x17E4 DUP4 PUSH2 0x1032 JUMP JUMPDEST PUSH2 0x2242 JUMP JUMPDEST SWAP11 POP PUSH2 0x17FD DUP12 PUSH2 0x17F8 DUP4 PUSH2 0x1D56 JUMP JUMPDEST PUSH2 0x2253 JUMP JUMPDEST SWAP11 POP PUSH2 0x1811 DUP12 PUSH2 0x180C DUP4 PUSH2 0x1D66 JUMP JUMPDEST PUSH2 0x2264 JUMP JUMPDEST SWAP11 POP PUSH2 0x1825 DUP12 PUSH2 0x1820 DUP4 PUSH2 0x1D76 JUMP JUMPDEST PUSH2 0x2275 JUMP JUMPDEST SWAP11 POP PUSH2 0x1895 JUMP JUMPDEST PUSH2 0x1859 DUP12 DUP11 PUSH1 0x26 ADD PUSH1 0x0 PUSH2 0x1845 DUP14 DUP16 PUSH1 0x2 DUP10 PUSH1 0x17 PUSH2 0x1F96 JUMP JUMPDEST DUP2 MSTORE PUSH1 0x20 ADD SWAP1 DUP2 MSTORE PUSH1 0x20 ADD PUSH1 0x0 KECCAK256 SLOAD PUSH2 0x2242 JUMP JUMPDEST SWAP11 POP PUSH2 0x186C DUP12 PUSH2 0x17F8 DUP12 DUP14 DUP7 PUSH1 0x18 PUSH2 0x2130 JUMP JUMPDEST SWAP11 POP PUSH2 0x187F DUP12 PUSH2 0x180C DUP12 DUP14 DUP7 PUSH1 0x19 PUSH2 0x2130 JUMP JUMPDEST SWAP11 POP PUSH2 0x1892 DUP12 PUSH2 0x1820 DUP12 DUP14 DUP7 PUSH1 0x1A PUSH2 0x2130 JUMP JUMPDEST SWAP11 POP JUMPDEST DUP4 DUP1 ISZERO PUSH2 0x18AE JUMPI POP DUP3 PUSH2 0x18AC PUSH2 0x2710 DUP5 PUSH1 0x1F PUSH2 0x1F02 JUMP JUMPDEST LT JUMPDEST ISZERO PUSH2 0x194A JUMPI DUP6 DUP1 ISZERO PUSH2 0x18BD JUMPI POP DUP5 JUMPDEST ISZERO PUSH2 0x18E5 JUMPI PUSH2 0x18CF PUSH1 0x2 DUP4 PUSH1 0x20 PUSH2 0x1F02 JUMP JUMPDEST PUSH1 0x1 EQ PUSH2 0x18DC JUMPI DUP7 PUSH2 0x18DE JUMP JUMPDEST DUP8 JUMPDEST SWAP1 POP PUSH2 0x18F5 JUMP JUMPDEST DUP6 PUSH2 0x18F0 JUMPI DUP7 PUSH2 0x18F2 JUMP JUMPDEST DUP8 JUMPDEST SWAP1 POP JUMPDEST PUSH2 0x1907 DUP12 PUSH2 0x1902 DUP4 PUSH2 0x1052 JUMP JUMPDEST PUSH2 0x2286 JUMP JUMPDEST SWAP11 POP PUSH2 0x191B DUP12 PUSH2 0x1916 DUP4 PUSH2 0x1DB6 JUMP JUMPDEST PUSH2 0x2297 JUMP JUMPDEST SWAP11 POP PUSH2 0x192F DUP12 PUSH2 0x192A DUP4 PUSH2 0x1DC6 JUMP JUMPDEST PUSH2 0x22A8 JUMP JUMPDEST SWAP11 POP PUSH2 0x1943 DUP12 PUSH2 0x193E DUP4 PUSH2 0x1DD6 JUMP JUMPDEST PUSH2 0x22B9 JUMP JUMPDEST SWAP11 POP PUSH2 0x19B3 JUMP JUMPDEST PUSH2 0x1977 DUP12 DUP11 PUSH1 0x26 ADD PUSH1 0x0 PUSH2 0x1963 DUP14 DUP16 PUSH1 0x3 DUP10 PUSH1 0x21 PUSH2 0x1F96 JUMP JUMPDEST DUP2 MSTORE PUSH1 0x20 ADD SWAP1 DUP2 MSTORE PUSH1 0x20 ADD PUSH1 0x0 KECCAK256 SLOAD PUSH2 0x2286 JUMP JUMPDEST SWAP11 POP PUSH2 0x198A DUP12 PUSH2 0x1916 DUP12 DUP14 DUP7 PUSH1 0x22 PUSH2 0x2130 JUMP JUMPDEST SWAP11 POP PUSH2 0x199D DUP12 PUSH2 0x192A DUP12 DUP14 DUP7 PUSH1 0x23 PUSH2 0x2130 JUMP JUMPDEST SWAP11 POP PUSH2 0x19B0 DUP12 PUSH2 0x193E DUP12 DUP14 DUP7 PUSH1 0x24 PUSH2 0x2130 JUMP JUMPDEST SWAP11 POP JUMPDEST DUP4 DUP1 ISZERO PUSH2 0x19CC JUMPI POP DUP3 PUSH2 0x19CA PUSH2 0x2710 DUP5 PUSH1 0x29 PUSH2 0x1F02 JUMP JUMPDEST LT JUMPDEST ISZERO PUSH2 0x1A68 JUMPI DUP6 DUP1 ISZERO PUSH2 0x19DB JUMPI POP DUP5 JUMPDEST ISZERO PUSH2 0x1A03 JUMPI PUSH2 0x19ED PUSH1 0x2 DUP4 PUSH1 0x2A PUSH2 0x1F02 JUMP JUMPDEST PUSH1 0x1 EQ PUSH2 0x19FA JUMPI DUP7 PUSH2 0x19FC JUMP JUMPDEST DUP8 JUMPDEST SWAP1 POP PUSH2 0x1A13 JUMP JUMPDEST DUP6 PUSH2 0x1A0E JUMPI DUP7 PUSH2 0x1A10 JUMP JUMPDEST DUP8 JUMPDEST SWAP1 POP JUMPDEST PUSH2 0x1A25 DUP12 PUSH2 0x1A20 DUP4 PUSH2 0x1042 JUMP JUMPDEST PUSH2 0x22CA JUMP JUMPDEST SWAP11 POP PUSH2 0x1A39 DUP12 PUSH2 0x1A34 DUP4 PUSH2 0x1D86 JUMP JUMPDEST PUSH2 0x22DB JUMP JUMPDEST SWAP11 POP PUSH2 0x1A4D DUP12 PUSH2 0x1A48 DUP4 PUSH2 0x1D96 JUMP JUMPDEST PUSH2 0x22EC JUMP JUMPDEST SWAP11 POP PUSH2 0x1A61 DUP12 PUSH2 0x1A5C DUP4 PUSH2 0x1DA6 JUMP JUMPDEST PUSH2 0x22FD JUMP JUMPDEST SWAP11 POP PUSH2 0x1AD1 JUMP JUMPDEST PUSH2 0x1A95 DUP12 DUP11 PUSH1 0x26 ADD PUSH1 0x0 PUSH2 0x1A81 DUP14 DUP16 PUSH1 0x4 DUP10 PUSH1 0x2B PUSH2 0x1F96 JUMP JUMPDEST DUP2 MSTORE PUSH1 0x20 ADD SWAP1 DUP2 MSTORE PUSH1 0x20 ADD PUSH1 0x0 KECCAK256 SLOAD PUSH2 0x22CA JUMP JUMPDEST SWAP11 POP PUSH2 0x1AA8 DUP12 PUSH2 0x1A34 DUP12 DUP14 DUP7 PUSH1 0x2C PUSH2 0x2130 JUMP JUMPDEST SWAP11 POP PUSH2 0x1ABB DUP12 PUSH2 0x1A48 DUP12 DUP14 DUP7 PUSH1 0x2D PUSH2 0x2130 JUMP JUMPDEST SWAP11 POP PUSH2 0x1ACE DUP12 PUSH2 0x1A5C DUP12 DUP14 DUP7 PUSH1 0x2E PUSH2 0x2130 JUMP JUMPDEST SWAP11 POP JUMPDEST DUP4 DUP1 ISZERO PUSH2 0x1AEA JUMPI POP DUP3 PUSH2 0x1AE8 PUSH2 0x2710 DUP5 PUSH1 0x33 PUSH2 0x1F02 JUMP JUMPDEST LT JUMPDEST ISZERO PUSH2 0x1B86 JUMPI DUP6 DUP1 ISZERO PUSH2 0x1AF9 JUMPI POP DUP5 JUMPDEST ISZERO PUSH2 0x1B21 JUMPI PUSH2 0x1B0B PUSH1 0x2 DUP4 PUSH1 0x34 PUSH2 0x1F02 JUMP JUMPDEST PUSH1 0x1 EQ PUSH2 0x1B18 JUMPI DUP7 PUSH2 0x1B1A JUMP JUMPDEST DUP8 JUMPDEST SWAP1 POP PUSH2 0x1B31 JUMP JUMPDEST DUP6 PUSH2 0x1B2C JUMPI DUP7 PUSH2 0x1B2E JUMP JUMPDEST DUP8 JUMPDEST SWAP1 POP JUMPDEST PUSH2 0x1B43 DUP12 PUSH2 0x1B3E DUP4 PUSH2 0x1062 JUMP JUMPDEST PUSH2 0x230E JUMP JUMPDEST SWAP11 POP PUSH2 0x1B57 DUP12 PUSH2 0x1B52 DUP4 PUSH2 0x1DE6 JUMP JUMPDEST PUSH2 0x231F JUMP JUMPDEST SWAP11 POP PUSH2 0x1B6B DUP12 PUSH2 0x1B66 DUP4 PUSH2 0x1DF6 JUMP JUMPDEST PUSH2 0x2330 JUMP JUMPDEST SWAP11 POP PUSH2 0x1B7F DUP12 PUSH2 0x1B7A DUP4 PUSH2 0x1E06 JUMP JUMPDEST PUSH2 0x2341 JUMP JUMPDEST SWAP11 POP PUSH2 0x1BEF JUMP JUMPDEST PUSH2 0x1BB3 DUP12 DUP11 PUSH1 0x26 ADD PUSH1 0x0 PUSH2 0x1B9F DUP14 DUP16 PUSH1 0x5 DUP10 PUSH1 0x35 PUSH2 0x1F96 JUMP JUMPDEST DUP2 MSTORE PUSH1 0x20 ADD SWAP1 DUP2 MSTORE PUSH1 0x20 ADD PUSH1 0x0 KECCAK256 SLOAD PUSH2 0x230E JUMP JUMPDEST SWAP11 POP PUSH2 0x1BC6 DUP12 PUSH2 0x1B52 DUP12 DUP14 DUP7 PUSH1 0x36 PUSH2 0x2130 JUMP JUMPDEST SWAP11 POP PUSH2 0x1BD9 DUP12 PUSH2 0x1B66 DUP12 DUP14 DUP7 PUSH1 0x37 PUSH2 0x2130 JUMP JUMPDEST SWAP11 POP PUSH2 0x1BEC DUP12 PUSH2 0x1B7A DUP12 DUP14 DUP7 PUSH1 0x38 PUSH2 0x2130 JUMP JUMPDEST SWAP11 POP JUMPDEST DUP4 DUP1 ISZERO PUSH2 0x1C08 JUMPI POP DUP3 PUSH2 0x1C06 PUSH2 0x2710 DUP5 PUSH1 0x3D PUSH2 0x1F02 JUMP JUMPDEST LT JUMPDEST ISZERO PUSH2 0x1CA4 JUMPI DUP6 DUP1 ISZERO PUSH2 0x1C17 JUMPI POP DUP5 JUMPDEST ISZERO PUSH2 0x1C3F JUMPI PUSH2 0x1C29 PUSH1 0x2 DUP4 PUSH1 0x3E PUSH2 0x1F02 JUMP JUMPDEST PUSH1 0x1 EQ PUSH2 0x1C36 JUMPI DUP7 PUSH2 0x1C38 JUMP JUMPDEST DUP8 JUMPDEST SWAP1 POP PUSH2 0x1C4F JUMP JUMPDEST DUP6 PUSH2 0x1C4A JUMPI DUP7 PUSH2 0x1C4C JUMP JUMPDEST DUP8 JUMPDEST SWAP1 POP JUMPDEST PUSH2 0x1C61 DUP12 PUSH2 0x1C5C DUP4 PUSH2 0x1072 JUMP JUMPDEST PUSH2 0x2352 JUMP JUMPDEST SWAP11 POP PUSH2 0x1C75 DUP12 PUSH2 0x1C70 DUP4 PUSH2 0x1E16 JUMP JUMPDEST PUSH2 0x2363 JUMP JUMPDEST SWAP11 POP PUSH2 0x1C89 DUP12 PUSH2 0x1C84 DUP4 PUSH2 0x1E26 JUMP JUMPDEST PUSH2 0x2374 JUMP JUMPDEST SWAP11 POP PUSH2 0x1C9D DUP12 PUSH2 0x1C98 DUP4 PUSH2 0x1E36 JUMP JUMPDEST PUSH2 0x2385 JUMP JUMPDEST SWAP11 POP PUSH2 0x1D0D JUMP JUMPDEST PUSH2 0x1CD1 DUP12 DUP11 PUSH1 0x26 ADD PUSH1 0x0 PUSH2 0x1CBD DUP14 DUP16 PUSH1 0x6 DUP10 PUSH1 0x3F PUSH2 0x1F96 JUMP JUMPDEST DUP2 MSTORE PUSH1 0x20 ADD SWAP1 DUP2 MSTORE PUSH1 0x20 ADD PUSH1 0x0 KECCAK256 SLOAD PUSH2 0x2352 JUMP JUMPDEST SWAP11 POP PUSH2 0x1CE4 DUP12 PUSH2 0x1C70 DUP12 DUP14 DUP7 PUSH1 0x40 PUSH2 0x2130 JUMP JUMPDEST SWAP11 POP PUSH2 0x1CF7 DUP12 PUSH2 0x1C84 DUP12 DUP14 DUP7 PUSH1 0x41 PUSH2 0x2130 JUMP JUMPDEST SWAP11 POP PUSH2 0x1D0A DUP12 PUSH2 0x1C98 DUP12 DUP14 DUP7 PUSH1 0x42 PUSH2 0x2130 JUMP JUMPDEST SWAP11 POP JUMPDEST POP SWAP9 SWAP14 SWAP13 POP POP POP POP POP POP POP POP POP POP POP POP POP JUMP JUMPDEST PUSH1 0x0 PUSH2 0x39E DUP3 PUSH5 0x1FE0000000 PUSH2 0x1E4F JUMP JUMPDEST PUSH1 0x0 PUSH2 0x39E DUP3 PUSH6 0x1FE000000000 PUSH2 0x1E4F JUMP JUMPDEST PUSH1 0x0 PUSH2 0x39E DUP3 PUSH7 0x1FE00000000000 PUSH2 0x1E4F JUMP JUMPDEST PUSH1 0x0 PUSH2 0x39E DUP3 PUSH1 0xFF PUSH1 0x3D SHL PUSH2 0x1E4F JUMP JUMPDEST PUSH1 0x0 PUSH2 0x39E DUP3 PUSH1 0xFF PUSH1 0x45 SHL PUSH2 0x1E4F JUMP JUMPDEST PUSH1 0x0 PUSH2 0x39E DUP3 PUSH1 0xFF PUSH1 0x4D SHL PUSH2 0x1E4F JUMP JUMPDEST PUSH1 0x0 PUSH2 0x39E DUP3 PUSH1 0xFF PUSH1 0x7D SHL PUSH2 0x1E4F JUMP JUMPDEST PUSH1 0x0 PUSH2 0x39E DUP3 PUSH1 0xFF PUSH1 0x85 SHL PUSH2 0x1E4F JUMP JUMPDEST PUSH1 0x0 PUSH2 0x39E DUP3 PUSH1 0xFF PUSH1 0x8D SHL PUSH2 0x1E4F JUMP JUMPDEST PUSH1 0x0 PUSH2 0x39E DUP3 PUSH1 0xFF PUSH1 0x5D SHL PUSH2 0x1E4F JUMP JUMPDEST PUSH1 0x0 PUSH2 0x39E DUP3 PUSH1 0xFF PUSH1 0x65 SHL PUSH2 0x1E4F JUMP JUMPDEST PUSH1 0x0 PUSH2 0x39E DUP3 PUSH1 0xFF PUSH1 0x6D SHL PUSH2 0x1E4F JUMP JUMPDEST PUSH1 0x0 PUSH2 0x39E DUP3 PUSH1 0xFF PUSH1 0x9D SHL PUSH2 0x1E4F JUMP JUMPDEST PUSH1 0x0 PUSH2 0x39E DUP3 PUSH1 0xFF PUSH1 0xA5 SHL PUSH2 0x1E4F JUMP JUMPDEST PUSH1 0x0 PUSH2 0x39E DUP3 PUSH1 0xFF PUSH1 0xAD SHL PUSH2 0x1E4F JUMP JUMPDEST PUSH1 0x0 PUSH2 0x39E DUP3 PUSH1 0xFF PUSH1 0xBD SHL PUSH2 0x1E4F JUMP JUMPDEST PUSH1 0x0 PUSH2 0x39E DUP3 PUSH1 0xFF PUSH1 0xC5 SHL PUSH2 0x1E4F JUMP JUMPDEST PUSH1 0x0 PUSH2 0x39E DUP3 PUSH1 0xFF PUSH1 0xCD SHL PUSH2 0x1E4F JUMP JUMPDEST PUSH1 0x0 PUSH2 0x39E DUP3 PUSH1 0xFF JUMPDEST PUSH1 0x0 DUP1 PUSH2 0x1E5B DUP4 PUSH2 0x2396 JUMP JUMPDEST SWAP3 SWAP1 SWAP4 AND SWAP1 SWAP2 SHR SWAP3 SWAP2 POP POP JUMP JUMPDEST PUSH1 0x0 DUP2 DUP2 MSTORE PUSH32 0xC8FCAD8DB84D3CC18B4C41D551EA0EE66DD599CDE068D998E57D5E09332C1335 PUSH1 0x20 MSTORE PUSH1 0x40 DUP2 KECCAK256 SLOAD PUSH1 0x80 DUP2 AND ISZERO ISZERO JUMPDEST SWAP4 SWAP3 POP POP POP JUMP JUMPDEST PUSH1 0x0 DUP2 DUP2 MSTORE PUSH32 0xC8FCAD8DB84D3CC18B4C41D551EA0EE66DD599CDE068D998E57D5E09332C1335 PUSH1 0x20 MSTORE PUSH1 0x40 DUP2 KECCAK256 SLOAD PUSH1 0x40 DUP2 AND ISZERO ISZERO PUSH2 0x1E9D JUMP JUMPDEST PUSH1 0x0 PUSH1 0x0 DUP1 MLOAD PUSH1 0x20 PUSH2 0x24D3 DUP4 CODECOPY DUP2 MLOAD SWAP2 MSTORE PUSH2 0x86C JUMP JUMPDEST PUSH1 0x0 PUSH2 0x1E9D DUP4 DUP4 PUSH2 0x1800 PUSH2 0x23B9 JUMP JUMPDEST PUSH1 0x0 DUP4 DUP4 DUP4 PUSH1 0x40 MLOAD PUSH1 0x20 ADD PUSH2 0x1F21 SWAP3 SWAP2 SWAP1 SWAP2 DUP3 MSTORE PUSH1 0x20 DUP3 ADD MSTORE PUSH1 0x40 ADD SWAP1 JUMP JUMPDEST PUSH1 0x40 MLOAD PUSH1 0x20 DUP2 DUP4 SUB SUB DUP2 MSTORE SWAP1 PUSH1 0x40 MSTORE DUP1 MLOAD SWAP1 PUSH1 0x20 ADD KECCAK256 PUSH1 0x0 SHR PUSH2 0x1F44 SWAP2 SWAP1 PUSH2 0x24BE JUMP JUMPDEST SWAP5 SWAP4 POP POP POP POP JUMP JUMPDEST PUSH1 0x0 PUSH2 0x1E9D DUP4 DUP4 PUSH4 0x1FE00000 PUSH2 0x23B9 JUMP JUMPDEST PUSH1 0x0 PUSH2 0x1E9D DUP4 DUP4 PUSH5 0x1FE0000000 PUSH2 0x23B9 JUMP JUMPDEST PUSH1 0x0 PUSH2 0x1E9D DUP4 DUP4 PUSH6 0x1FE000000000 PUSH2 0x23B9 JUMP JUMPDEST PUSH1 0x0 PUSH2 0x1E9D DUP4 DUP4 PUSH7 0x1FE00000000000 PUSH2 0x23B9 JUMP JUMPDEST PUSH1 0x0 DUP5 DUP2 MSTORE PUSH1 0x29 DUP7 ADD PUSH1 0x20 SWAP1 DUP2 MSTORE PUSH1 0x40 DUP1 DUP4 KECCAK256 DUP7 DUP5 MSTORE SWAP1 SWAP2 MSTORE DUP2 KECCAK256 SLOAD DUP2 DUP1 JUMPDEST DUP3 DUP2 LT ISZERO PUSH2 0x202A JUMPI PUSH1 0x0 DUP9 DUP2 MSTORE PUSH1 0x29 DUP11 ADD PUSH1 0x20 SWAP1 DUP2 MSTORE PUSH1 0x40 DUP1 DUP4 KECCAK256 DUP11 DUP5 MSTORE SWAP1 SWAP2 MSTORE DUP2 KECCAK256 DUP1 SLOAD PUSH1 0x2B DUP13 ADD SWAP3 SWAP2 SWAP1 DUP5 SWAP1 DUP2 LT PUSH2 0x1FF1 JUMPI PUSH2 0x1FF1 PUSH2 0x248D JUMP JUMPDEST SWAP1 PUSH1 0x0 MSTORE PUSH1 0x20 PUSH1 0x0 KECCAK256 ADD SLOAD DUP2 MSTORE PUSH1 0x20 ADD SWAP1 DUP2 MSTORE PUSH1 0x20 ADD PUSH1 0x0 KECCAK256 SLOAD DUP3 PUSH2 0x2016 SWAP2 SWAP1 PUSH2 0x244B JUMP JUMPDEST SWAP2 POP DUP1 PUSH2 0x2022 DUP2 PUSH2 0x24A3 JUMP JUMPDEST SWAP2 POP POP PUSH2 0x1FB5 JUMP JUMPDEST POP PUSH1 0x0 PUSH2 0x2038 DUP3 DUP8 DUP8 PUSH2 0x1F02 JUMP JUMPDEST PUSH2 0x2043 SWAP1 PUSH1 0x1 PUSH2 0x244B JUMP JUMPDEST SWAP1 POP PUSH1 0x0 DUP1 JUMPDEST DUP5 DUP2 LT ISZERO PUSH2 0x20D3 JUMPI PUSH1 0x0 DUP11 DUP2 MSTORE PUSH1 0x29 DUP13 ADD PUSH1 0x20 SWAP1 DUP2 MSTORE PUSH1 0x40 DUP1 DUP4 KECCAK256 DUP13 DUP5 MSTORE SWAP1 SWAP2 MSTORE DUP2 KECCAK256 DUP1 SLOAD DUP4 SWAP1 DUP2 LT PUSH2 0x207E JUMPI PUSH2 0x207E PUSH2 0x248D JUMP JUMPDEST PUSH1 0x0 SWAP2 DUP3 MSTORE PUSH1 0x20 DUP1 DUP4 KECCAK256 SWAP1 SWAP2 ADD SLOAD DUP1 DUP4 MSTORE PUSH1 0x2B DUP16 ADD SWAP1 SWAP2 MSTORE PUSH1 0x40 SWAP1 SWAP2 KECCAK256 SLOAD SWAP1 SWAP2 POP PUSH2 0x20A9 DUP2 DUP6 PUSH2 0x244B JUMP JUMPDEST SWAP4 POP DUP4 DUP6 GT PUSH2 0x20C0 JUMPI POP SWAP6 POP PUSH2 0x356 SWAP5 POP POP POP POP POP JUMP JUMPDEST POP POP DUP1 PUSH2 0x20CC SWAP1 PUSH2 0x24A3 JUMP JUMPDEST SWAP1 POP PUSH2 0x2049 JUMP JUMPDEST POP PUSH1 0x40 MLOAD PUSH3 0x461BCD PUSH1 0xE5 SHL DUP2 MSTORE PUSH1 0x20 PUSH1 0x4 DUP3 ADD MSTORE PUSH1 0x2B PUSH1 0x24 DUP3 ADD MSTORE PUSH32 0x4861746368696E6746616365743A204661696C65642067657474696E6720524E PUSH1 0x44 DUP3 ADD MSTORE PUSH11 0x4720626F64797061727473 PUSH1 0xA8 SHL PUSH1 0x64 DUP3 ADD MSTORE PUSH1 0x84 ADD PUSH2 0xA59 JUMP JUMPDEST PUSH1 0x0 DUP4 DUP2 MSTORE PUSH1 0x21 DUP6 ADD PUSH1 0x20 SWAP1 DUP2 MSTORE PUSH1 0x40 DUP1 DUP4 KECCAK256 SLOAD PUSH1 0x22 DUP9 ADD SWAP1 SWAP3 MSTORE DUP3 KECCAK256 SLOAD DUP3 SWAP1 PUSH2 0x215B SWAP1 DUP7 DUP7 PUSH2 0x1F02 JUMP JUMPDEST PUSH2 0x2166 SWAP1 PUSH1 0x1 PUSH2 0x244B JUMP JUMPDEST SWAP1 POP PUSH1 0x0 DUP1 JUMPDEST DUP4 DUP2 LT ISZERO PUSH2 0x21EA JUMPI PUSH1 0x0 DUP9 DUP2 MSTORE PUSH1 0x21 DUP11 ADD PUSH1 0x20 MSTORE PUSH1 0x40 DUP2 KECCAK256 DUP1 SLOAD DUP4 SWAP1 DUP2 LT PUSH2 0x2196 JUMPI PUSH2 0x2196 PUSH2 0x248D JUMP JUMPDEST SWAP1 PUSH1 0x0 MSTORE PUSH1 0x20 PUSH1 0x0 KECCAK256 ADD SLOAD SWAP1 POP DUP10 PUSH1 0x23 ADD PUSH1 0x0 DUP3 DUP2 MSTORE PUSH1 0x20 ADD SWAP1 DUP2 MSTORE PUSH1 0x20 ADD PUSH1 0x0 KECCAK256 SLOAD DUP4 PUSH2 0x21C4 SWAP2 SWAP1 PUSH2 0x244B JUMP JUMPDEST SWAP3 POP DUP3 DUP5 GT PUSH2 0x21D9 JUMPI SWAP5 POP PUSH2 0x1F44 SWAP4 POP POP POP POP JUMP JUMPDEST POP PUSH2 0x21E3 DUP2 PUSH2 0x24A3 JUMP JUMPDEST SWAP1 POP PUSH2 0x216C JUMP JUMPDEST POP PUSH1 0x40 MLOAD PUSH3 0x461BCD PUSH1 0xE5 SHL DUP2 MSTORE PUSH1 0x20 PUSH1 0x4 DUP3 ADD MSTORE PUSH1 0x26 PUSH1 0x24 DUP3 ADD MSTORE PUSH32 0x4861746368696E6746616365743A204661696C65642067657474696E6720524E PUSH1 0x44 DUP3 ADD MSTORE PUSH6 0x472067656E65 PUSH1 0xD0 SHL PUSH1 0x64 DUP3 ADD MSTORE PUSH1 0x84 ADD PUSH2 0xA59 JUMP JUMPDEST PUSH1 0x0 PUSH2 0x1E9D DUP4 DUP4 PUSH1 0xFF PUSH1 0x35 SHL PUSH2 0x23B9 JUMP JUMPDEST PUSH1 0x0 PUSH2 0x1E9D DUP4 DUP4 PUSH1 0xFF PUSH1 0x3D SHL PUSH2 0x23B9 JUMP JUMPDEST PUSH1 0x0 PUSH2 0x1E9D DUP4 DUP4 PUSH1 0xFF PUSH1 0x45 SHL PUSH2 0x23B9 JUMP JUMPDEST PUSH1 0x0 PUSH2 0x1E9D DUP4 DUP4 PUSH1 0xFF PUSH1 0x4D SHL PUSH2 0x23B9 JUMP JUMPDEST PUSH1 0x0 PUSH2 0x1E9D DUP4 DUP4 PUSH1 0xFF PUSH1 0x55 SHL PUSH2 0x23B9 JUMP JUMPDEST PUSH1 0x0 PUSH2 0x1E9D DUP4 DUP4 PUSH1 0xFF PUSH1 0x5D SHL PUSH2 0x23B9 JUMP JUMPDEST PUSH1 0x0 PUSH2 0x1E9D DUP4 DUP4 PUSH1 0xFF PUSH1 0x65 SHL PUSH2 0x23B9 JUMP JUMPDEST PUSH1 0x0 PUSH2 0x1E9D DUP4 DUP4 PUSH1 0xFF PUSH1 0x6D SHL PUSH2 0x23B9 JUMP JUMPDEST PUSH1 0x0 PUSH2 0x1E9D DUP4 DUP4 PUSH1 0xFF PUSH1 0x75 SHL PUSH2 0x23B9 JUMP JUMPDEST PUSH1 0x0 PUSH2 0x1E9D DUP4 DUP4 PUSH1 0xFF PUSH1 0x7D SHL PUSH2 0x23B9 JUMP JUMPDEST PUSH1 0x0 PUSH2 0x1E9D DUP4 DUP4 PUSH1 0xFF PUSH1 0x85 SHL PUSH2 0x23B9 JUMP JUMPDEST PUSH1 0x0 PUSH2 0x1E9D DUP4 DUP4 PUSH1 0xFF PUSH1 0x8D SHL PUSH2 0x23B9 JUMP JUMPDEST PUSH1 0x0 PUSH2 0x1E9D DUP4 DUP4 PUSH1 0xFF PUSH1 0x95 SHL PUSH2 0x23B9 JUMP JUMPDEST PUSH1 0x0 PUSH2 0x1E9D DUP4 DUP4 PUSH1 0xFF PUSH1 0x9D SHL PUSH2 0x23B9 JUMP JUMPDEST PUSH1 0x0 PUSH2 0x1E9D DUP4 DUP4 PUSH1 0xFF PUSH1 0xA5 SHL PUSH2 0x23B9 JUMP JUMPDEST PUSH1 0x0 PUSH2 0x1E9D DUP4 DUP4 PUSH1 0xFF PUSH1 0xAD SHL PUSH2 0x23B9 JUMP JUMPDEST PUSH1 0x0 PUSH2 0x1E9D DUP4 DUP4 PUSH1 0xFF PUSH1 0xB5 SHL PUSH2 0x23B9 JUMP JUMPDEST PUSH1 0x0 PUSH2 0x1E9D DUP4 DUP4 PUSH1 0xFF PUSH1 0xBD SHL PUSH2 0x23B9 JUMP JUMPDEST PUSH1 0x0 PUSH2 0x1E9D DUP4 DUP4 PUSH1 0xFF PUSH1 0xC5 SHL PUSH2 0x23B9 JUMP JUMPDEST PUSH1 0x0 PUSH2 0x1E9D DUP4 DUP4 PUSH1 0xFF PUSH1 0xCD SHL PUSH2 0x23B9 JUMP JUMPDEST PUSH1 0x0 DUP1 JUMPDEST PUSH1 0x1 DUP4 AND PUSH2 0x39E JUMPI PUSH1 0x1 SWAP3 SWAP1 SWAP3 SHR SWAP2 PUSH2 0x23B2 DUP2 PUSH2 0x24A3 JUMP JUMPDEST SWAP1 POP PUSH2 0x239A JUMP JUMPDEST PUSH1 0x0 DUP1 PUSH2 0x23C5 DUP4 PUSH2 0x2396 JUMP JUMPDEST PUSH1 0x0 NOT DUP5 XOR DUP7 AND SWAP1 DUP6 SWAP1 SHL DUP5 AND OR SWAP2 POP POP SWAP4 SWAP3 POP POP POP JUMP JUMPDEST PUSH1 0x0 PUSH1 0x20 DUP3 DUP5 SUB SLT ISZERO PUSH2 0x23EF JUMPI PUSH1 0x0 DUP1 REVERT JUMPDEST POP CALLDATALOAD SWAP2 SWAP1 POP JUMP JUMPDEST PUSH4 0x4E487B71 PUSH1 0xE0 SHL PUSH1 0x0 MSTORE PUSH1 0x11 PUSH1 0x4 MSTORE PUSH1 0x24 PUSH1 0x0 REVERT JUMPDEST PUSH1 0x0 PUSH1 0xFF DUP3 AND PUSH1 0xFF DUP2 EQ ISZERO PUSH2 0x2423 JUMPI PUSH2 0x2423 PUSH2 0x23F6 JUMP JUMPDEST PUSH1 0x1 ADD SWAP3 SWAP2 POP POP JUMP JUMPDEST PUSH1 0x0 DUP2 PUSH1 0x0 NOT DIV DUP4 GT DUP3 ISZERO ISZERO AND ISZERO PUSH2 0x2446 JUMPI PUSH2 0x2446 PUSH2 0x23F6 JUMP JUMPDEST POP MUL SWAP1 JUMP JUMPDEST PUSH1 0x0 DUP3 NOT DUP3 GT ISZERO PUSH2 0x245E JUMPI PUSH2 0x245E PUSH2 0x23F6 JUMP JUMPDEST POP ADD SWAP1 JUMP JUMPDEST PUSH4 0x4E487B71 PUSH1 0xE0 SHL PUSH1 0x0 MSTORE PUSH1 0x12 PUSH1 0x4 MSTORE PUSH1 0x24 PUSH1 0x0 REVERT JUMPDEST PUSH1 0x0 DUP3 PUSH2 0x2488 JUMPI PUSH2 0x2488 PUSH2 0x2463 JUMP JUMPDEST POP DIV SWAP1 JUMP JUMPDEST PUSH4 0x4E487B71 PUSH1 0xE0 SHL PUSH1 0x0 MSTORE PUSH1 0x32 PUSH1 0x4 MSTORE PUSH1 0x24 PUSH1 0x0 REVERT JUMPDEST PUSH1 0x0 PUSH1 0x0 NOT DUP3 EQ ISZERO PUSH2 0x24B7 JUMPI PUSH2 0x24B7 PUSH2 0x23F6 JUMP JUMPDEST POP PUSH1 0x1 ADD SWAP1 JUMP JUMPDEST PUSH1 0x0 DUP3 PUSH2 0x24CD JUMPI PUSH2 0x24CD PUSH2 0x2463 JUMP JUMPDEST POP MOD SWAP1 JUMP INVALID 0xC8 0xFC 0xAD DUP14 0xB8 0x4D EXTCODECOPY 0xC1 DUP12 0x4C COINBASE 0xD5 MLOAD 0xEA 0xE 0xE6 PUSH14 0xD599CDE068D998E57D5E09332C13 SHR LOG2 PUSH5 0x6970667358 0x22 SLT KECCAK256 0xB9 SWAP13 0xB0 PUSH22 0x9BB355AFF46109A1699614E48AE76118D79D8116DE8A 0xD2 SMOD PUSH3 0x956DD0 PUSH5 0x736F6C6343 STOP ADDMOD MULMOD STOP CALLER ",
  "sha1": "f13fc5e0546040ab4e4b37996f18be43c8d6b00f",
  "source": "// SPDX-License-Identifier: UNLICENSED\npragma solidity ^0.8.0;\n\nimport {LibUnicornDNA} from \"../libraries/LibUnicornDNA.sol\";\nimport {LibDiamond} from \"../libraries/LibDiamond.sol\";\nimport {LibStats} from \"../libraries/LibStats.sol\";\n\ncontract StatsFacet {\n\n    //  TODO: move _deriveStat into a library and convert all of these functions\n    function getAttack(uint256 _dna) public view returns (uint256) {\n        return _deriveStat(_dna, LibUnicornDNA.STAT_ATTACK);\n    }\n\n    function getAccuracy(uint256 _dna) public view returns (uint256) {\n        return _deriveStat(_dna, LibUnicornDNA.STAT_ACCURACY);\n    }\n\n    function getMovementSpeed(uint256 _dna) public view returns (uint256) {\n        return _deriveStat(_dna, LibUnicornDNA.STAT_MOVE_SPEED);\n    }\n\n    function getAttackSpeed(uint256 _dna) public view returns (uint256) {\n        return _deriveStat(_dna, LibUnicornDNA.STAT_ATTACK_SPEED);\n    }\n\n    function getDefense(uint256 _dna) public view returns (uint256) {\n        return _deriveStat(_dna, LibUnicornDNA.STAT_DEFENSE);\n    }\n\n    function getVitality(uint256 _dna) public view returns (uint256) {\n        return _deriveStat(_dna, LibUnicornDNA.STAT_VITALITY);\n    }\n\n    function getResistance(uint256 _dna) public view returns (uint256) {\n        return _deriveStat(_dna, LibUnicornDNA.STAT_RESISTANCE);\n    }\n\n    function getMagic(uint256 _dna) public view returns (uint256) {\n        return _deriveStat(_dna, LibUnicornDNA.STAT_MAGIC);\n    }\n\n    function getUnicornMetadata(uint256 _tokenId)\n        external\n        view\n        returns (\n            bool origin,\n            bool gameLocked,\n            bool limitedEdition,\n            uint256 lifecycleStage,\n            uint256 breedingPoints,\n            uint256 unicornClass,\n            uint256 hatchBirthday\n        )\n    {\n        LibDiamond.DiamondStorage storage ds = LibDiamond.diamondStorage();\n        uint256 dna = LibUnicornDNA._getDNA(_tokenId);\n        LibUnicornDNA.enforceDNAVersionMatch(dna);\n        origin = LibUnicornDNA._getOrigin(dna);\n        gameLocked = LibUnicornDNA._getGameLocked(dna);\n        limitedEdition = LibUnicornDNA._getLimitedEdition(dna);\n        lifecycleStage = LibUnicornDNA._getLifecycleStage(dna);\n        breedingPoints = LibUnicornDNA._getBreedingPoints(dna);\n        unicornClass = LibUnicornDNA._getClass(dna);\n        hatchBirthday = ds.hatch_birthday[_tokenId];\n    }\n\n    function getUnicornBodyParts(uint256 _dna)\n        external\n        view\n        returns (\n            uint256 bodyPartId,\n            uint256 facePartId,\n            uint256 hornPartId,\n            uint256 hoovesPartId,\n            uint256 manePartId,\n            uint256 tailPartId,\n            uint8 mythicCount\n        )\n    {\n        LibUnicornDNA.enforceDNAVersionMatch(_dna);\n        LibDiamond.DiamondStorage storage ds = LibDiamond.diamondStorage();\n\n        uint8 classId = LibUnicornDNA._getClass(_dna);\n\n        bodyPartId = ds.bodyPartGlobalIdFromLocalId[classId][1][\n            LibUnicornDNA._getBodyPart(_dna)\n        ];\n        facePartId = ds.bodyPartGlobalIdFromLocalId[classId][2][\n            LibUnicornDNA._getFacePart(_dna)\n        ];\n        hoovesPartId = ds.bodyPartGlobalIdFromLocalId[classId][4][\n            LibUnicornDNA._getHoovesPart(_dna)\n        ];\n        hornPartId = ds.bodyPartGlobalIdFromLocalId[classId][3][\n            LibUnicornDNA._getHornPart(_dna)\n        ];\n        manePartId = ds.bodyPartGlobalIdFromLocalId[classId][5][\n            LibUnicornDNA._getManePart(_dna)\n        ];\n        tailPartId = ds.bodyPartGlobalIdFromLocalId[classId][6][\n            LibUnicornDNA._getTailPart(_dna)\n        ];\n\n        if (ds.bodyPartIsMythic[bodyPartId]) ++mythicCount;\n        if (ds.bodyPartIsMythic[facePartId]) ++mythicCount;\n        if (ds.bodyPartIsMythic[hoovesPartId]) ++mythicCount;\n        if (ds.bodyPartIsMythic[hornPartId]) ++mythicCount;\n        if (ds.bodyPartIsMythic[manePartId]) ++mythicCount;\n        if (ds.bodyPartIsMythic[tailPartId]) ++mythicCount;\n    }\n\n    function getUnicornBodyPartsLocal(uint256 _dna)\n        external\n        view\n        returns (\n            uint256 bodyPartLocalId,\n            uint256 facePartLocalId,\n            uint256 hornPartLocalId,\n            uint256 hoovesPartLocalId,\n            uint256 manePartLocalId,\n            uint256 tailPartLocalId\n        )\n    {\n        LibUnicornDNA.enforceDNAVersionMatch(_dna);\n        bodyPartLocalId = LibUnicornDNA._getBodyPart(_dna);\n        facePartLocalId = LibUnicornDNA._getFacePart(_dna);\n        hoovesPartLocalId = LibUnicornDNA._getHoovesPart(_dna);\n        hornPartLocalId = LibUnicornDNA._getHornPart(_dna);\n        manePartLocalId = LibUnicornDNA._getManePart(_dna);\n        tailPartLocalId = LibUnicornDNA._getTailPart(_dna);\n    }\n\n    function getStats(uint256 _dna)\n        external\n        view\n        returns (\n            uint256 attack,\n            uint256 accuracy,\n            uint256 movementSpeed,\n            uint256 attackSpeed,\n            uint256 defense,\n            uint256 vitality,\n            uint256 resistance,\n            uint256 magic\n        )\n    {\n        attack = getAttack(_dna);\n        accuracy = getAccuracy(_dna);\n        movementSpeed = getMovementSpeed(_dna);\n        attackSpeed = getAttackSpeed(_dna);\n        defense = getDefense(_dna);\n        vitality = getVitality(_dna);\n        resistance = getResistance(_dna);\n        magic = getMagic(_dna);\n    }\n\n    function _deriveStat(uint256 _dna, uint256 _statId)\n        internal\n        view\n        returns (uint256)\n    {\n        LibUnicornDNA.enforceDNAVersionMatch(_dna);\n        require(\n            LibUnicornDNA._getLifecycleStage(_dna) ==\n                LibUnicornDNA.LIFECYCLE_ADULT ||\n                LibUnicornDNA._getLifecycleStage(_dna) ==\n                LibUnicornDNA.LIFECYCLE_BABY,\n            \"LibStats: Invalid DNA Lifecycle Stage, must be baby or adult\"\n        );\n\n        LibDiamond.DiamondStorage storage ds = LibDiamond.diamondStorage();\n        uint256 class = LibUnicornDNA._getClass(_dna);\n        uint256 statBase = ds.baseStats[class][_statId];\n\n        if (\n            LibUnicornDNA._getLifecycleStage(_dna) ==\n            LibUnicornDNA.LIFECYCLE_ADULT\n        ) {\n            statBase += (statBase / 5); //  add 20%\n        }\n\n        uint256[] memory geneId = new uint256[](18);\n\n        geneId[0] = LibUnicornDNA._getBodyMajorGene(_dna);\n        geneId[1] = LibUnicornDNA._getBodyMidGene(_dna);\n        geneId[2] = LibUnicornDNA._getBodyMinorGene(_dna);\n\n        geneId[3] = LibUnicornDNA._getFaceMajorGene(_dna);\n        geneId[4] = LibUnicornDNA._getFaceMidGene(_dna);\n        geneId[5] = LibUnicornDNA._getFaceMinorGene(_dna);\n\n        geneId[6] = LibUnicornDNA._getHoovesMajorGene(_dna);\n        geneId[7] = LibUnicornDNA._getHoovesMidGene(_dna);\n        geneId[8] = LibUnicornDNA._getHoovesMinorGene(_dna);\n\n        geneId[9] = LibUnicornDNA._getHornMajorGene(_dna);\n        geneId[10] = LibUnicornDNA._getHornMidGene(_dna);\n        geneId[11] = LibUnicornDNA._getHornMinorGene(_dna);\n\n        geneId[12] = LibUnicornDNA._getManeMajorGene(_dna);\n        geneId[13] = LibUnicornDNA._getManeMidGene(_dna);\n        geneId[14] = LibUnicornDNA._getManeMinorGene(_dna);\n\n        geneId[15] = LibUnicornDNA._getTailMajorGene(_dna);\n        geneId[16] = LibUnicornDNA._getTailMidGene(_dna);\n        geneId[17] = LibUnicornDNA._getTailMinorGene(_dna);\n\n        uint256 addition = 0;\n        uint256 multiplier = 0;\n\n        for (uint256 i = 0; i < 18; ++i) {\n            for (uint256 j = 1; j <= 3; ++j) {\n                if (ds.geneBonusStatByGeneId[geneId[i]][j] == _statId) {\n                    if (ds.geneApplicationById[geneId[i]] == 1) {\n                        multiplier += ds.geneBonusValueByGeneId[geneId[i]][j];\n                    } else if (ds.geneApplicationById[geneId[i]] == 2) {\n                        addition += ds.geneBonusValueByGeneId[geneId[i]][j];\n                    }\n                }\n            }\n        }\n\n        uint256 stat = statBase + addition;\n        stat += ((stat * multiplier) / 100);\n        return (stat <= 1000) ? stat : 1000;\n    }\n\n    function getPowerScore(uint256 tokenId) public view returns (uint256) {\n        uint256 dna = LibUnicornDNA._getDNA(tokenId);\n        uint256 attack = getAttack(dna);\n        uint256 accuracy = getAccuracy(dna);\n        return LibStats.getPowerScore(attack, accuracy);\n    }\n\n    function getSpeedScore(uint256 tokenId) public view returns (uint256) {\n        uint256 dna = LibUnicornDNA._getDNA(tokenId);\n        uint256 movementSpeed = getMovementSpeed(dna);\n        uint256 attackSpeed = getAttackSpeed(dna);\n        return LibStats.getSpeedScore(movementSpeed, attackSpeed);\n    }\n\n    function getEnduranceScore(uint256 tokenId) public view returns (uint256) {\n        uint256 dna = LibUnicornDNA._getDNA(tokenId);\n        uint256 vitality = getVitality(dna);\n        uint256 defense = getDefense(dna);\n        return LibStats.getEnduranceScore(vitality, defense);\n    }\n\n    function getIntelligenceScore(uint256 tokenId) public view returns (uint256) {\n        uint256 dna = LibUnicornDNA._getDNA(tokenId);\n        uint256 magic = getMagic(dna);\n        uint256 resistance = getResistance(dna);\n        return LibStats.getIntelligenceScore(magic, resistance);\n    }\n}\n",
  "sourcePath": "contracts/facets/StatsFacet.sol",
  "type": "contract"
}